:1000000000800020BD010000954900004D4900001E
:100010004D4900004D4900004D4900004D49000088
:100020004D4900004D4900004D4900009549000030
:10003000954900004D490000954900003D490000E8
:100040009549000095490000954900009549000038
:100050009549000095490000954900009549000028
:100060009549000095490000954900009549000018
:100070009549000095490000954900009549000008
:1000800095490000954900009549000095490000F8
:1000900095490000954900009549000095490000E8
:1000A000F542000001430000954900009549000019
:1000B00095490000954900009549000095490000C8
:1000C00095490000954900009549000095490000B8
:1000D00095490000954900009549000095490000A8
:1000E0009549000095490000954900009549000098
:1000F00095490000416A00009549000085710000A3
:1001000095490000F57600009549000095490000EA
:100110009549000095490000954900009549000067
:100120009549000095490000954900009549000057
:100130009549000095490000954900009549000047
:100140009549000095490000954900009549000037
:100150009549000095490000954900009549000027
:10016000954900009D4F0000954900009549000009
:100170009549000095490000954900009549000007
:1001800095490000954900009549000095490000F7
:1001900095490000954900009549000095490000E7
:1001A00095490000954900009549000095490000D7
:1001B0009549000095490000E95D0000564B4CF25E
:1001C000205210B51A804DF628121A8000BF00BFC9
:1001D00004F0E4FB514B4FF010621A60504A9A60F1
:1001E000504ADA60504A136813F4807304D14F49BF
:1001F0000B604FF4A85313604D4B1A78110703D5C9
:100200001A7842F008021A704A4B4B492A221A7097
:100210004A4A4B4B8B4204D252F8040F43F8040B6A
:10022000F8E7484B484900228B4202D243F8042B9E
:10023000FAE74649464A002352F8230041F82300D2
:1002400001336F2BF8D1434B434A802103F8011B44
:100250009342FBD1414B3D4A1A60414B8A221A70AE
:10026000A3F5805324225A70A0221A709A7992071B
:10027000FCD59A79D406FCD43A4A937903F00C035E
:10028000082B384BF9D103221A7140225A719A79FE
:100290009006FCD5334A9179324B4906FBD5324A58
:1002A000324911600221516020221A709A7902F0BD
:1002B0000C020C2AFAD12E4B2E4A1A602E4B2F4AD2
:1002C0001A6000225A60072243F8042C2C4AC3F813
:1002D0000C2D62B604F03AFD144B1B68DA0705D505
:1002E000284804F0B9FC284B284A1A60284B1B7890
:1002F0005B0609D5244C254B22689A4204D121483B
:1003000004F0AAFC0023236009F02CFD04F04CFB50
:1003100005F0F6FFFEE700BF0E20054030800440E8
:10032000823F04000100002B10D0034014D0034092
:1003300002D0074000E0074038CAFF1FC8D00000C5
:1003400020BDFF1F38CAFF1FB8D9FF1F00B8FF1F0D
:100350000000000000E400E05FE400E008ED00E0E1
:100360000050064000400640448004400000030165
:1003700004800440C010050014E000E0FF76010096
:1003800000002020D475115C1CE00340A5C3945AE2
:1003900000F00740FFFFFFFFFFFFFFFFFFFFFFFF32
:1003A000FFFFFFFFFFFFFFFFFFFFFFFFFFFFFFFF5D
:1003B000FFFFFFFFFFFFFFFFFFFFFFFFFFFFFFFF4D
:1003C000FFFFFFFFFFFFFFFFFFFFFFFFFFFFFFFF3D
:1003D000FFFFFFFFFFFFFFFFFFFFFFFFFFFFFFFF2D
:1003E000FFFFFFFFFFFFFFFFFFFFFFFFFFFFFFFF1D
:1003F000FFFFFFFFFFFFFFFFFFFFFFFFFFFFFFFF0D
:10040000FFFFFFFFFFFFFFFFFFFFFFFFDEF9FFFF23
:1004100010B5054C237833B9044B13B10448AFF33E
:1004200000800123237010BD38CAFF1F00000000A8
:10043000CCD00000084B10B51BB108490848AFF3F9
:1004400000800848036803B910BD074B002BFBD0A0
:10045000BDE81040184700BF000000003CCAFF1F65
:10046000CCD0000038CAFF1F0000000010B50446C1
:1004700000F5047002F0B2F9204610BD002310B45C
:10048000104C4172026104600372C36041B11946AD
:1004900000E0026942F82310427A01339A42F8DC04
:1004A000094B1A680AB90AE01A465369002BFBD1B6
:1004B0005061002343618380C38010BC7047186083
:1004C000F7E700BFC4B1000064D7FF1F2DE9F04F6C
:1004D000504A514B1468514A03EB041485B0083458
:1004E0001578A31C0093002D56D04D4A4D4B126831
:1004F0001B684D4EDFF844814C4D019204F1080B0E
:100500004FF0000ACDF800B0029327460394D3467B
:1005100037F9021FFF291ED0019BC91878D47F2903
:10052000A8BF7F21424B53F82190C6F80090029952
:10053000484609F0F5F9D8F800A030610446514664
:10054000484609F0E3F851462860204609F0DEF8F5
:100550000BF1020B2861009B9F4206F1040608F193
:10056000040805F10405D3D1DA460AF1FF3A314A0D
:10057000039C52F82A109B462F4B002034F9022F7F
:10058000FF2A1ABF1960196118605C4503F1040362
:10059000F4D105B0BDE8F08F214BDFF894B01F68AF
:1005A000DFF888A0A146A84614E07F2BA8BF7F23D0
:1005B0005BF82360214B304653F8251009F0A6F86C
:1005C000194B4AF8250043F8256008F10108013568
:1005D000082D07D039F9023FFF2BF8D0DB19E4D5FD
:1005E0000023E5E71349144B08F1FF32002551F8C9
:1005F000220000990E3134F9022FFF2A14BF18602F
:100600001D608C4203F10403F5D105B0BDE8F08F05
:10061000002187E7D0D0FF1F44CEFF1F60D2FF1F0D
:1006200080D2FF1FA4BEFF1FB8BEFF1F30D1FF1F27
:10063000ECCBFF1F84BEFF1F24BEFF1F00BEFF1FA9
:100640002DE9F84F1B4D1C4F834605F1200A47F654
:10065000FF794FF0000816E0304609F01DFB1749FE
:10066000174B48B9304609F05BF94FF07C5109F05F
:100670004FF809F041FB03465545A362C4F81C80BE
:10068000A4F82CB014D057F8046F55F8044F00218B
:10069000A4F81890304609F0E1FA0A490028DBD0A6
:1006A00000235545A362C4F81C80A4F82CB0EAD1FD
:1006B000BDE8F88F70D0FF1FB4BEFF1F4B243E472C
:1006C000C0FFFF3FA655AC460B4A0C490438024018
:1006D000002A0CDB0A4B51F8220003F1200153F8E9
:1006E000042F8B421063FAD10420FFF7A9BF013A0F
:1006F00062F007020132EDE707000080D8BEFF1F5D
:1007000070D0FF1F2DE9F04F3F4C237883B0002BB2
:1007100050D03E4A3E4B126801921B680198C01AA5
:1007200009F0A6F83B4B196809F0FAF801464FF0BA
:100730007E5008F0EBFF0021824609F08FFA002876
:100740005DD1354CDFF8E880344F354E04F1200B95
:1007500013E0284609F0A0FA3249334B48B928463D
:1007600009F0DEF84FF07C5108F0D2FF09F0C4FA2E
:1007700003465C45C9F8283019D058F8041F504684
:1007800009F0CEF8014654F8040F08F0BFFF00212D
:1007900047F8040F054609F061FA56F8049F23490B
:1007A0000028D6D000235C45C9F82830E5D103B035
:1007B000BDE8F08F1A4C184E04F1200812E02846CC
:1007C00009F06AFA1749184B48B9284609F0A8F801
:1007D0004FF07C5108F09CFF09F08EFA0346444527
:1007E000BB62E4D056F8045F54F8047F0021284629
:1007F00009F034FA0D490028E1D00023EFE7002387
:100800004FF0000A23709CE724D1FF1F64D6FF1F1E
:1008100058CAFF1F48BEFF1FB4BEFF1FFCBDFF1F0D
:1008200070D0FF1F4B243E47C0FFFF3FA655AC468C
:100830002CD1FF1F734AF8B51268734B734D53F8F0
:1008400022402968204609F06BF87149064609F0F4
:1008500023FA40B96F49304609F000FA002800F049
:10086000BC806D4800E06D486D4E6968B0612046FF
:1008700009F056F86649074609F00EFA40B965498D
:10088000384609F0EBF9002800F09F80624800E04C
:100890006248A968F061204609F042F85C490746C1
:1008A00009F0FAF940B95B49384609F0D7F9002850
:1008B00000F08380584800E05848E96830622046DC
:1008C00009F02EF85249074609F0E6F938B95149BE
:1008D000384609F0C3F9002867D04F4800E04F4878
:1008E00070622969204609F01BF84949064609F05B
:1008F000D3F938B94749304609F0B0F900284CD04F
:10090000454800E04548474E6969B061204609F016
:1009100007F83F49074609F0BFF938B93D4938465D
:1009200009F09CF9002830D03B4800E03B48A96919
:10093000F061204608F0F4FF3549074609F0ACF9AC
:1009400030B93449384609F089F9B0B1324800E08D
:100950003248E9693062204608F0E2FF2C4904463B
:1009600009F09AF9002849D12A49204609F076F978
:1009700000283AD028487062F8BD4FF08F413846C1
:1009800008F0CEFF09F092F9E3E74FF08F413846C7
:1009900008F0C6FF09F08AF9C9E74FF08F413046E9
:1009A00008F0BEFF09F082F9ADE74FF08F413846FD
:1009B00008F0B6FF09F07AF992E74FF08F41384618
:1009C00008F0AEFF09F072F977E74FF08F41384633
:1009D00008F0A6FF09F06AF95BE74FF08F41304657
:1009E00008F09EFF09F062F93EE74FF08F41204684
:1009F00008F096FF09F05AF97062F8BD0748706276
:100A0000F8BD00BFFCCDFF1F54BEFF1F24BEFF1F5B
:100A100000FEFF4600FEFFC6000001800000FF7FD1
:100A200098D0FF1F1CD2FF1FB0FA80F110B5490902
:100A30000446032004F022F9A4F10101B1FA81F186
:100A40004909042004F01AF9A4F10201B1FA81F174
:100A50004909052004F012F9A4F10301B1FA81F16A
:100A600049090620BDE8104004F008B938B50A214C
:100A70000F4801F063FFC0B904460A210C4801F099
:100A80005DFF054688B90F20FFF7CEFF142004F064
:100A90000FF904F00300FFF7C7FF0134142004F03E
:100AA00007F9052CE9D1284638BD0125284638BD6F
:100AB00014D3FF1F30B58310194D002B83B00446AB
:100AC0002B6008DD174B184A1B6801930199174BDF
:100AD000116001221A701648204000281BDBFFF726
:100AE000A3FFE1B240F2D24003F000FF114B4FF000
:100AF00080421A602B6843B12046FFF7E5FD0E4B9C
:100B00004FF080421A6003B030BD0C4B33F9140033
:100B1000FFF796FDF3E7013860F003000130DEE7F0
:100B2000E8CBFF1F64D6FF1F94D1FF1FA4CBFF1F8C
:100B30000300008088E100E008E100E0ACBEFF1F98
:100B4000174B1B68002B2ADD30B5164C164822685F
:100B5000056883B0013B009200994FF4967202FB46
:100B600003F364334A1B93420CD8104A216813786C
:100B700001910199016083F00103137023B90F20E3
:100B8000FFF752FF03B030BD094B0A481B681840FD
:100B90000028F5DA013860F003000130F0E7704713
:100BA000E8CBFF1F64D6FF1F94D1FF1FA4CBFF1F0C
:100BB000FCCDFF1F030000802DE9F041002182B031
:100BC000022004F06FF80021082004F06BF80021E7
:100BD000092004F067F801210B2004F063F80121DB
:100BE000062004F05FF80121052004F05BF80121E4
:100BF000042004F057F80121032004F053F83221B7
:100C00007D487E4C7E4E7F4D7F4F04F0D9FF0D20F6
:100C100003F058FD7D4B7E497E4A7F4819605A603B
:100C20007E497F4ADE601D619F6058619961DA618B
:100C300004F500766FF04405284608F0FDF90246F9
:100C40000B466BA1D1E9000106F0EEFF0022754BC7
:100C500008F058FA08F006FD44F8040FA64205F122
:100C60000105E9D17049714A08681378C40443F05A
:100C7000010109D58B4207D06D4D6E484FF4A27625
:100C80004FF400742E600460674811700068C0045F
:100C900043F0050309D58B4207D0674C67494FF4F1
:100CA000A2754FF400702560086040F2D2401370C6
:100CB00003F002FE624C634F034600F00300236022
:100CC000FFF7B2FEFFF7D2FE0146384600F0D8FF2C
:100CD0005D4A7B78797A1160002B77D15B4A23607B
:100CE0005B4E012313605B4B5B49BA7878681A70DE
:100CF000086008F0BDFD01464FF07E5008F0C4FECC
:100D0000DFF88C81554D564A564B3978C8F80000AB
:100D1000387A2860117003F120004FF0804153F8B9
:100D2000042F98421162FAD14F4B504F5049514A0B
:100D30004FF4803EC3F830E04FF0060E1846A3F89B
:100D40002AE0A3F82EE0A3F834E04FF48043BB611F
:100D5000FB613B627B628B6147F67057CB610B6234
:100D60004B620023136253629761D76101F0FAF876
:100D70003368002B32D02068FFF7A6FC3E4B3F4A79
:100D80001B68019301993E4B116001221A7028687B
:100D90003C4D08F071FD044601464FF08C4008F0D0
:100DA00073FE4FF07C5108F0BBFD08F07FFF364A20
:100DB00003461360C0F5005008F05EFD0146204672
:100DC00008F062FE286002B0BDE8F0812368204E82
:100DD0001E4A9B1003213360116084E722682B4B6D
:100DE00033F91200FFF72CFCD1E700BFAFF300800E
:100DF000000000A08FF3F03F0082FF1FE8CBFF1F31
:100E0000C8CAFF1FFCCAFF1F94CAFF1F74D0FF1F70
:100E1000B0CBFF1F60CAFF1F10CEFF1F50D1FF1FB6
:100E200034CBFF1F00807B403C80044094D7FF1FE1
:100E300018B0044008C0044014B0044004C004408A
:100E4000FCCDFF1F44CEFF1F20BEFF1F4CBEFF1F67
:100E5000E8CBFF1F30CBFF1FA8BEFF1FB4BEFF1F94
:100E600060D2FF1F70D0FF1F6CCBFF1F98D0FF1FF9
:100E70001CD2FF1FD4D0FF1F64D6FF1F94D1FF1FC9
:100E8000A4CBFF1FD0D1FF1F0CD1FF1FACBEFF1F93
:100E900048BEFF1FF0B508208DB003F047FC0546A3
:100EA000062003F043FC634E63493268634F41F60A
:100EB000FF74A5422B46A8BF23468442A8BF044620
:100EC00023EAE37302F140000025834224EAE4743C
:100ED0000B603D7004DCA2F14000834280F285800B
:100EE0003360574B1A6802F14000A04203DBA2F1C5
:100EF0004000A04274DD01221C603A70514B08682A
:100F00001B680093002319464FF4005205F0B8F80F
:100F10004D4B4E491A680860904203D04C4A186005
:100F2000012313704B4B186884424ADD201A08F0E5
:100F3000A3FC494B196808F0F3FC484908F0E8FBAA
:100F40004FF07E5108F0E4FB08F0B0FE444B4549F9
:100F50001A680860904203D03D4A1860012313705C
:100F6000414C424D082003F08FFE23680393039AFF
:100F70002968521A0A2A00D928B323680793079BC5
:100F800022680692069E226805925B1A059A3649E7
:100F9000364F00FB1360131AB3F57A7F28600BD924
:100FA0000B6809930998324A0B680893314B0899EA
:100FB0001060012239601A702F4B1B78DBB10DB025
:100FC000F0BD2420C2E72368294A0493049B1268D9
:100FD0009B1AB3F57A7FD0D3284B01221A70CCE745
:100FE000A41A02EB64141C6088E79B1A02EB6313DB
:100FF00033600B6075E7224800F09AFE204800F04D
:10100000CFFE204B187070B91F4B196823680B93E3
:101010000B9B591A13298CBF002101210B2003F0CF
:101020002DFE0DB0F0BD23680A930A9B164A19469F
:101030001360EBE798D1FF1F08D2FF1F54D2FF1FA8
:10104000E4CBFF1F20BEFF1FACCBFF1FD0D0FF1F84
:1010500044BEFF1F0CD1FF1FD0D1FF1F0000104264
:1010600054CAFF1F80D2FF1F64D6FF1F10D1FF1F7D
:1010700004D2FF1F5CCAFF1F55D2FF1FCCD1FF1F38
:1010800058D2FF1F94D0FF1FA8CBFF1F2DE9F041BE
:10109000524D86B0FFF7FEFE2B78002B40F08C807F
:1010A0004F4C504F236802934F49029A4F4826688D
:1010B00001960E68DFF85C810078019B921B00FBB3
:1010C000123398F800200B60002A3AD12B78002BBD
:1010D0004DD1474E3B78434A9BB123684548049322
:1010E0004549049B006809681B1A99429CBF00236C
:1010F0001370424B4FF080451D60FFF703FB404BE0
:101100001D60FFF71DFD3378394DBBB123683D49A4
:1011100005933D4A059B096812685B1A9A420DD2F5
:1011200000210B2003F0AAFD0021092003F0A6FDF9
:101130000021092003F0B6FD00232B7006B0BDE8A6
:10114000F081DFF8D4E0314BDEF800101B6801318C
:101150009B0091FBF3F203FB12131846CEF800300C
:10116000FFF7A8FC012200232A7088F800302368CA
:1011700003934FF00108234B1D4E039A1A6041461A
:10118000092086F8008003F08DFD41460B2003F016
:1011900075FD4146092003F071FD184B4FF0804862
:1011A000C3F80080FFF7AEFAFFF744FB144A0023B0
:1011B000C2F800802B708DE7FFF788F9144B084CBC
:1011C0001B7843B122680B4B0092064F009A1A60BD
:1011D00001233B7066E7034F64E700BF44BEFF1F77
:1011E00064D6FF1F24D1FF1F68CBFF1F2CD1FF1F28
:1011F00055D2FF1F58CAFF1FA8BEFF1F88E100E09D
:1012000008E100E028D1FF1F50BEFF1F4CBEFF1FAA
:1012100030CBFF1FCCD1FF1FFCCDFF1F2DE9F04FBE
:101220008BB003F001FB9D4B9D48019300F060FDE6
:1012300009219B48DFF8B8B2DFF8B8A2994DDFF872
:10124000B882994F994E00F05BFD2821944800F038
:101250006DFD974A974910680390DDF80CE010681F
:101260000490DDF810C010680590059C1068069089
:101270000698D2F80090CDF81C90C1F800E00799CC
:10128000DFF878E2D2F80090CDF82090CEF800C0D8
:10129000DDF820E0DFF868C212680992864ACCF8CF
:1012A0000040864C1060864A2160019B8549C2F847
:1012B00000E0099C0C600022114618461446FFF716
:1012C000DDF8019B2246214658461D601C835C8345
:1012D000DC611C629C629C85DC851C63FFF7CEF898
:1012E000224621465046CBF80050ABF81840ABF8E8
:1012F0001A40CBF81C40CBF82040CBF82840ABF884
:101300002C40ABF82E40CBF83040FFF7B7F8224620
:1013100021466D48CAF80050AAF81840AAF81A40A9
:10132000CAF81C40CAF82040CAF82840AAF82C4045
:10133000AAF82E40CAF83040FFF7A0F8624B634885
:101340001D60224621461C835C83DC611C629C621A
:101350009C85DC851C63FFF791F85C4B5C481D6045
:10136000224621461C835C83DC611C629C629C8556
:10137000DC851C63FFF782F8554B56481D602246FA
:1013800021461C835C83DC611C629C629C85DC853D
:101390001C63FFF773F84F4B4F481D6022462146F0
:1013A0001C835C83DC611C629C629C85DC851C6305
:1013B000FFF764F8484B08F12802042140464FF437
:1013C00080391D601C835C83DC611C629C629C858F
:1013D000DC851C63FFF752F8404BC8F8003007F17A
:1013E000280204213846C8F81890C8F81C90C8F89C
:1013F0002090C8F82490FFF741F8394BC7F81890AF
:1014000003F1280218460421344B3B60C7F81C90B6
:10141000C7F82090C7F82490FFF730F8304B2F4AD8
:101420001A60012106F1180230462E4DC3F81890BB
:10143000C3F81C90C3F82090C3F82490FFF71EF85F
:101440000321294AB1850920A6214FF0010EDFF8BA
:10145000B4C03260708553224AF6C020B18605F1CF
:101460001801F285306385F809E034773485224627
:1014700020462C72EC60C5F800C02961AE46019B85
:1014800001E0DEF8101041F82200697A154C0132B3
:101490009142F6DC154A1168B9BBD7E0B0CBFF1F0B
:1014A00058D2FF1FB4CB00001CD2FF1F6CCBFF1F14
:1014B00064D6FF1F68CBFF1F04D2FF1F28D1FF1F78
:1014C00094D1FF1F58CAFF1FC8CAFF1FFCCAFF1FC5
:1014D00010CEFF1F50D1FF1F34CBFF1F9CCB00004D
:1014E000D4D0FF1F64D2FF1F90CB000064D7FF1F32
:1014F00060CAFF1F94CAFF1F98D0FF1FA8CBFF1F11
:1015000010D1FF1FC4B1000011464A69002AFBD167
:101510004D6100244E4A4F486C61AC80EC800193D1
:101520002A6000F055FE4C4A019B1472104682E876
:1015300008015472D46004F027FC484B4FF00109B5
:1015400018461C72C3F800B0C3F80480DC6083F84E
:10155000099004F019FC424B4FF0020B18461C7224
:10156000C3F800A0C3F80480DC6083F809B004F07D
:101570000BFC3C4B3C4A1C724FF0030A184683E8B4
:101580000401DC6083F809A004F0FEFB374B384A05
:101590001C72184683E884005C72DC6004F0F4FB83
:1015A000344B354A1C72184683E8840083F809904E
:1015B000DC6004F0E9FB314B314A83F809B018468E
:1015C00083E884001C72DC6004F0DEFB2D4B2E4AA5
:1015D00083F809A0184683E884001C72DC6004F0DC
:1015E000D3FB2A4B2A4A1C721846C3F800805A6063
:1015F0005C72DC6004F0C8FB264B254A83F8099036
:1016000018461F605A601C72DC6004F0BDFB224B60
:101610001F4A1C72184683E844005C72DC6004F0C8
:10162000B3FB1E4B18461C721E605D605C72DC6072
:1016300004F0AAFB1A491B4800F03AF81A4A1B4961
:10164000184808F079FB0BB0BDE8F08F146060E734
:10165000A8CB000064D2FF1F9CD1FF1FECCDFF1F61
:1016600014D1FF1FD4D1FF1FC8CAFF1FE4D1FF1F31
:10167000FCCAFF1F84D1FF1F10CEFF1F00CEFF1F2B
:1016800050D1FF1FACD1FF1F34CBFF1FF4D1FF1F80
:10169000D4D0FF1F84D2FF1FBCD1FF1F0CD2FF1F6D
:1016A0000CC0000044CEFF1FFCBDFF1F6D040000F6
:1016B000F8B50446104D00234FF4807632202622E0
:1016C00023706370A37063720F46606022722946B4
:1016D000324604F10A0002F049FE3246A91904F527
:1016E000857002F043FE04F5047001F069F8C4F857
:1016F0000C722046F8BD00BF20C200002DE9F04169
:1017000000218CB006464172684604F005FDD6F80B
:101710000C228E4904A8012301F0AEF90CAA9DF811
:10172000140012F8143D069986F8140286F81C324B
:10173000C6F8181206F21D2306F22A2012F8011F1D
:1017400003F8011B9842F9D10B9BC6F82C3204A870
:1017500001F044F800252F4606F50474204600F0F9
:10176000A9FF002836D0204600F0C2FFC1B25B2995
:1017700039D021293ED0012D46D0022DEED10A29A3
:1017800038D10721724804F03BF96946714804F0EA
:10179000FFFB0121704804F033F96E4804F01EFC91
:1017A0006E4904A804F0B8FC04A9684604F042FDA0
:1017B000054604A804F070FC002D4DD00123737081
:1017C0006749684604F0CAFC2046002500F072FF15
:1017D0000028C8D1204601F003F8684604F05CFCFC
:1017E0000CB0BDE8F081737A0F2B08D9012D06D01B
:1017F000022DB3D1684604F0F3FC0225AEE768463B
:1018000004F0EEFC0125A9E72C2914D05D29F6D1BE
:10181000757A684604F06EFD07EBC50506EB4505D5
:101820004F496881684604F099FC737A00270133B8
:1018300073723D4692E796F80980684604F05AFDB7
:1018400007EBC80806EB48084549A8F80A006846AF
:10185000013704F083FC81E7424904A804F05CFCF2
:1018600004A9684604F0E6FC054604A804F014FC4C
:10187000C5B10123B3702021684604F0FFFC021EAD
:101880009EDD694604A804F02DFD04A804F032FD95
:10189000706004A804F000FC7368042B37DC052397
:1018A00073608DE7304904A804F036FC04A968464B
:1018B00004F0C0FC054604A804F0EEFBBDB12021F5
:1018C000684604F0DBFC021E7FF77AAF694604A885
:1018D00004F008FD04A804F00DFD307204A804F023
:1018E000DBFB337A0B2B2AD80C23337268E71F49B2
:1018F00004A804F011FC04A9684604F09BFC05460A
:1019000004A804F0C9FB55B10123337058E7B3F5BF
:10191000967F7FF755AF4FF49673736050E70F21B2
:10192000134804F06DF869460A4804F031FB0121C0
:10193000104804F065F8074804F050FB40E7482BD6
:101940007FF63EAF482333723AE700BF14D3FF1F40
:1019500020C4000098D7FF1FB8C7000028C40000AB
:10196000D8C4000030C4000038C4000040C40000E7
:1019700048C4000058C4000010B5044688B0D0F830
:101980000C129E4801F0F8F8D4F80C229B496846E6
:10199000132301F071F808AA9DF8040012F8143D11
:1019A000029984F8140284F81C32C4F8181204F264
:1019B0001D2304F22A2012F8011F03F8011B98428C
:1019C000F9D1079BC4F82C32684604F5047400F082
:1019D00005FF3C228A49204600F078FE204604F0AC
:1019E000FDFA3C228749204600F070FE204604F0B4
:1019F000F5FA3D228449204600F068FE204604F0B6
:101A0000EDFA3D228149204600F060FE204604F0B8
:101A1000E5FA3C227E49204600F058FE204604F0BC
:101A2000DDFA00227B49204600F050FE204604F0FB
:101A3000D5FA3E227849204600F048FE204604F0C0
:101A4000CDFA3E227549204600F040FE204604F0C3
:101A5000C5FA3E227249204600F038FE204604F0C6
:101A6000BDFA3E226F49204600F030FE204604F0C9
:101A7000B5FA3D226C49204600F028FE204604F0CD
:101A8000ADFA00226349204600F020FE204604F013
:101A9000A5FA28226549204600F018FE204604F0E9
:101AA0009DFA33226249204600F010FE204604F0E1
:101AB00095FA2F225F49204600F008FE204604F0E8
:101AC0008DFA33225C49204600F000FE204604F0E7
:101AD00085FA19225949204600F0F8FD204604F005
:101AE0007DFA00224B49204600F0F0FD204604F02C
:101AF00075FA15225249204600F0E8FD204604F010
:101B00006DFA15224F49204600F0E0FD204604F012
:101B100065FA19224C49204600F0D8FD204604F011
:101B20005DFA19224949204600F0D0FD204604F014
:101B300055FA1A224649204600F0C8FD204604F016
:101B40004DFA1A224349204600F0C0FD204604F019
:101B500045FA1D224049204600F0B8FD204604F019
:101B60003DFA19223D49204600F0B0FD204604F020
:101B700035FA19223A49204600F0A8FD204604F023
:101B80002DFA18223749204600F0A0FD204604F027
:101B900025FA18223449204600F098FD204604F02A
:101BA0001DFA19223149204600F090FD204604F02C
:101BB00015FA18222E49204600F088FD204604F030
:101BC0000DFA13222B49204600F080FD204604F038
:101BD00005FA1D222849204600F078FD204604F031
:101BE000FDF926222549204600F070FD204604F02C
:101BF000F5F9204600F0F4FD08B010BD14D3FF1F26
:101C00005CC400009CC40000DCC400001CC50000D3
:101C10005CC50000D8C400009CC50000DCC5000005
:101C20001CC600005CC600009CC60000DCC60000AC
:101C300008C700003CC700006CC70000A0C7000038
:101C4000BCC70000D4C70000ECC7000008C80000F3
:101C500024C8000040C800005CC800007CC8000028
:101C600098C80000B4C80000D0C80000ECC800004C
:101C700008C9000024C9000038C9000058C9000084
:101C800010B588B089B900F1080300F5847403F138
:101C90001001B3F9022123F8022F8B42F9D19C42A3
:101CA000F5D11023437208B010BD04460E490F4A07
:101CB0006846012300F0E0FED4F80C120A4800F058
:101CC0004FFF38B12046FFF719FD684600F086FD4A
:101CD00008B010BD2046FFF74FFE2046FFF70EFD6F
:101CE000684600F07BFDF3E714D3FF1F80C90000B6
:101CF00000220A21818002608271C271704700BF98
:101D000010B504460023C8B282B0E071A37102F09E
:101D1000BBFF08B10323A371034B1B680193019B15
:101D2000236002B010BD00BF64D6FF1F81807047E2
:101D3000F0B5044685B0C07902F0A6FFA279003064
:101D400018BF0120C2F3400102F0F7038842A371DB
:101D50000BD0124A1268019283F00203019AA37118
:101D60002260C3F3C00005B0F0BD0C4D27682968A0
:101D700002910299A688C91BB142F2D302F0010276
:101D80009042EED02A68039283F00903039AA3716C
:101D9000C3F3C000226005B0F0BD00BF64D6FF1FD2
:101DA000807900F00900A0F10900B0FA80F0400944
:101DB000704700BF2DE9F84F0021804603F0C2FFB5
:101DC000002800F0BE8098F81C30002B73D0041D52
:101DD00000F5827C6445074667D24FF4803A4FF0A5
:101DE0000409834644E098F81C20022A4DD0032AB7
:101DF00065D0042A73D0052A00F08E80062A00F0F0
:101E0000A280012A00F08F80D8F82020D8F8243052
:101E10004FF6FF7E201D1A44256883C832FB05F665
:101E20001A4432FB15F5C6EA05461A4432FB00F5A2
:101E30001A4432FB10F0C5EA00451A4432FB01F0A7
:101E40001A4432FB11F1C0EA01401A4432FB07F197
:101E50001344C8F8203033FB17F3C1EA034326606C
:101E60006560A060E360A8F81EE01034A4451BD9AB
:101E7000B8F81E30002BB6D003F1FF3ED8F8202072
:101E8000D8F824301FFA8EFEC4E7B8F82C20A8F842
:101E90001E208AB34FF00302A44588F81C20C8F81E
:101EA00020A0C8F82430E3D85F46404600223946D7
:101EB00003F022FF3846BDE8F84F03F0F9BED8F82A
:101EC0003030B8F82E2088F81C90A3F5803393FBAF
:101ED000F2F3DB10C8F82430A8F81E20C6E7D8F8C3
:101EE0003020C8F824304FF0050188F81C10C8F8DD
:101EF00020204FF6FE7E8DE7B8F82E20D8F830303F
:101F0000A8F81E20A3F58033D20088F81C9093FB1C
:101F1000F2F3C8F82430A9E7D8F82020D8F8243004
:101F20004FF6FE7E76E7B8F82A209AFBF2F34FF0E0
:101F30000201DB1088F81C10A8F81E20C8F8243015
:101F400094E7BDE8F88FA4455F4688F81C30ACD90B
:101F500023606360A3601034A44544F8043CF7D8C0
:101F6000A3E700BF72B6038DC383002202625BB990
:101F7000428DC28302214FF4803393FBF2F3DB10D6
:101F80004362017762B6704701234262037762B60B
:101F9000704700BF10B5044603F0CCFF204610BDCB
:101FA000024A0349034807F0C7BE00BFFCBDFF1F3C
:101FB000951F000094D2FF1F38B5074D074C084805
:101FC0002A46214607F0B8FE2A4621460548BDE8C4
:101FD000384007F0B1BE00BFFCBDFF1F951F0000D9
:101FE0009CD2FF1FA4D2FF1F024A0349034807F0F7
:101FF000A3BE00BFFCBDFF1F951F0000ACD2FF1F9A
:10200000024A0349034807F097BE00BFFCBDFF1F0B
:10201000951F0000B4D2FF1F2DE9F8434FF00008D0
:10202000064600F11805474641463046002F4FD07E
:1020300003F07CFEF0B12C68B4F5803F07F1040199
:1020400000F1040E07F5827C27D05EF8042B34FBE8
:1020500002F334FB12F903F30F0209F30F03C2EA90
:1020600003430A6893FA12F341F8043B8C45ECD819
:1020700003F01EFE08F10108B8F1040F05F1040594
:10208000D2D1002F40D030463946002203F034FE32
:102090003846BDE8F84303F00BBE07F10C0100F130
:1020A0000C0451F8083C54F8082C93FA12F341F848
:1020B000083C54F8042C51F8043C93FA12F38C4574
:1020C00041F8043C04F1080401F10801E9D8CFE724
:1020D00003F038FE07460028CCD02868B0F5803FD2
:1020E000C8D0391D07F582740B6830FB03F230FB52
:1020F00013F302F30F0203F30F03C2EA034341F8A1
:10210000043B8C42F0D8B5E7BDE8F88310B5002158
:1021100003F00CFE70B172B60A4B1A6872B10A492C
:102120000C6844B11C60086062B61046BDE81040FF
:1021300003F0BEBD10BD086062B610BD186062B687
:1021400010BD00BFCCD2FF1FBCD2FF1F38B5194B4A
:1021500019491A68194C12681B79194D0B70A24263
:10216000286836BF2246A4F5807202F58074C8B193
:10217000011D31F9023B03F5FF437F331B1122F8A8
:10218000023B9442F5D803F093FD0E4B00221968F0
:1021900029601A600C4B1B781BB10C4B4FF080422E
:1021A0001A6038BD40F2FF7322F8023B9442FBD81C
:1021B000F0E700BFC0D2FF1F1F800040C8B5FF1F5F
:1021C000CCD2FF1FBCD2FF1FC8D2FF1F08E200E025
:1021D000F8B501215148524D03F048FE514A524989
:1021E0001368802043F480531360002408702C800F
:1021F0000120083402F05CFDA3B2B3F5006F1CB2FD
:10220000F5D14A4B1B685B0208D5494B1A6848F662
:10221000A273134048F6A27293426DD04349444AD8
:102220000B68444F444D4548454C43F480030B60D4
:102230004FF0010E40F23F4648F6A37140F2011301
:10224000C7F800E02E60116014600360334D3D4913
:102250002B6800221960197C1A746FF03F01587CBA
:1022600059740C21987C99744021D87CD974997D3B
:102270009A750124D97DDC7502204FF0FF316FF093
:1022800001065A715A729A72DA721A731A755A756D
:102290001A765A769A76DA765E739C71DC711871CA
:1022A00018729973D973997F29799A7701F18041CE
:1022B000D87FDC7701F5043106201E7F1877B02027
:1022C0005E7F5A770A70087003F076FD2A791E4BFC
:1022D0001E4E187053119B0003F1604302F01F055E
:1022E0001B49327003F5614302F11000AC40194DF7
:1022F00041F820501C60F8BD0F4B1A6840F23F4374
:102300009A428BD10B4B1B68012B87D10B4B1A6860
:1023100040F201139A4281D198E700BFC0D2FF1F5B
:1023200000C00C402C80044021C00C403C80044084
:10233000006003400C6003400460034010600340F1
:10234000A28F0100C8B4FF1FC8D2FF1F1B8000402E
:1023500000B8FF1F4D210000024A0349034807F05F
:10236000EBBC00BFFCBDFF1F951F0000C0D2FF1FCC
:10237000024A0349034807F0DFBC00BFFCBDFF1F52
:10238000951F0000D0D2FF1F024A0349034807F0FF
:10239000D3BC00BFFCBDFF1F951F0000D8D2FF1F9C
:1023A000024A0349034807F0C7BC00BFFCBDFF1F3A
:1023B000951F0000E0D2FF1F024A0349034807F0BF
:1023C000BBBC00BFFCBDFF1F951F0000E8D2FF1F74
:1023D000024A0349034807F0AFBC00BFFCBDFF1F22
:1023E000951F0000F0D2FF1F2DE9F84FB0F918300B
:1023F0000BB9BDE8F88F044603F00EFC0546002833
:10240000F7D0B4F92C30061D072B32D8DFE813F0D3
:1024100066009000A700B9000800D600E9004C0053
:10242000D4F830C0BCF1000F39D0E06905F58278EE
:10243000B646C10D4A1CC0F3CF13D2B23CF911A06D
:102440003CF91210B4F91820A76AC3F57F4909F1C5
:10245000FF0909FB0AF903FB01931B1402FB03F3B9
:10246000DB132EF8023B3844C64520F00040E0D193
:10247000E061B4F92E206AB105F5827101E0B4F98A
:102480002E20B6F90030134403F30F0326F8023B65
:10249000B142F4D820460022294603F02DFC2846FC
:1024A000BDE8F84F03F004BCE36900F582783746D5
:1024B00008E0B4F92400A26A27F8020B1344474548
:1024C000E361D6D0A26A9A42F3D9B4F9181048420F
:1024D00003F0CCFD00B2E369A084ECE74A4F00F5BD
:1024E000827E3046E369B4F91810D4F828804FEAA8
:1024F000D35CC3F3CF1B37F91C900CF1010CCBF567
:102500007F4A0AF1FF0A37F91CC009FB0AF20BFBEC
:102510000C22121401FB02F2D21320F8022B13EB4F
:10252000080348BF23F000437045E361DAD1A0E718
:10253000E26900F5827E3146B4F91870A06A42F370
:10254000CF3303FB07F3DB1321F8023B7145024451
:10255000F2D1E261B4F92E20002A8DD19AE7E26926
:10256000831D00F5837051004ABF218BB4F9181008
:10257000494223F8021CA16A023398420A44F2D16C
:10258000E7E7E16900F5827E30460029B7BF238B7B
:10259000B4F918205B421AB24F004FEA810348BFDA
:1025A0005B425B0C02FB03F3DB13A76A20F8023BE0
:1025B000704501EB4701E8D1E1615AE7E269276A1A
:1025C000831D00F58370BA4236BF218BB4F9181011
:1025D000494223F8021CA16A023398420A44F2D10C
:1025E000B7E7E26900F5827E3146B4F91870A06A57
:1025F00042F3CF3303FB07F3DB1321F8023B7145B2
:10260000A2EB0002F1D1A4E784C900001649174BE0
:102610000A681748F0B442F48052164F164E174D10
:10262000174C0A601F60DE601D611C600378D907CB
:1026300055BF144A144A4FF410714FF400711160E1
:102640009A0754BF114A124A5B074FF4007154BFF6
:10265000104B114B116054BF4FF410724FF40072C5
:102660001A60F0BC704700BF3C80044000C00240CC
:1026700094D7FF1F01401F0001100038011000789F
:1026800000001F8018B0044008C004401CB0044083
:102690000CC0044014B0044004C0044010B582B023
:1026A00002AB026803F8011D546819460122A047D5
:1026B00002B010BDC06938B18369C06847F6FF72C7
:1026C000181A904228BF1046704700BFC36910B562
:1026D000044643B10020187192B2E06901F07CF920
:1026E000E3691B791BB101232371002010BD10BDCC
:1026F000C06978B100B583B001220DF1070100F087
:1027000013FF01280CBF9DF807004FF0FF3003B006
:102710005DF804FB4FF0FF30704700BFC369C3B1E1
:1027200010B582B00446012218460DF1070100F0F1
:10273000FBFE012803D04FF0FF3002B010BDE0696E
:102740009DF80740C168013900F0A0FF204602B0A3
:1027500010BD1846704700BFC06908B100F0C8BF7F
:10276000704700BF2DE9F04105464FF47A731348D6
:10277000AB60002328602B712B7324200C469046FD
:1027800007F01CFBE861B0B1064604F1200E20689A
:102790006168A268E36837460FC7103474453E4647
:1027A000F5D12068386041460C2205F10D0008F093
:1027B00065FA00236B762846BDE8F081C0CB0000A7
:1027C0004FF47A7204498260002201600271027340
:1027D000C2614273704700BFC0CB0000704700BFAA
:1027E000C36953B110B50446184600F025FEE069F0
:1027F00007F0ECFA0023E36110BD704730B58BB0F1
:1028000000240A460A4D8DF808400146012301A81C
:102810008DF80A40019501F09FF8A04218BF0124ED
:1028200002D001A800F008FE20460BB030BD00BF6A
:10283000E0CB00000AB90120704708B501F0B4F8F8
:10284000003018BF012008BDF0B50E68835D2F2B46
:1028500008BF0136841902F1FF3E002523782F2B93
:10286000274604F1010408D03BB101350C2D06F1D7
:1028700001060EF8013FF1D18719002353553B782B
:102880002F2B04BF013687190E603878003018BF2F
:102890000120F0BD2DE9F04F99B08846264D0695F0
:1028A00000218DF81C1083469246994644468DF8C7
:1028B0001E108DF840108DF8421001910F9506AE54
:1028C00005E000F0B9FDFDB1234634461E4602AADC
:1028D00001A95846FFF7B8FF80F00102D2B24B467B
:1028E00002A905462046D04721460746012302AAF1
:1028F00070B13046ADB101F02FF844450546204691
:10290000DFD10DB10FACDFE7002019B0BDE8F08FCB
:102910004445F9D0204600F08FFD384619B0BDE897
:10292000F08F444506D0204600F086FD012019B006
:10293000BDE8F08F0120E8E7E0CB000038B50A469B
:102940000121044600F076FA08B9002038BD251DA3
:1029500028460122214601F025FB40B1294604F119
:102960002C0000F0B9FD003018BF012038BD024630
:102970002146284601F016FB0028EFD1002038BD83
:102980002DE9F04F99B04FF00008DFF8E8A08DF87E
:102990001C808146043106A8934601938DF81E8061
:1029A0008DF840808DF84280CDF818A0CDF83CA07D
:1029B00000F092FD06AE5D460FAF2F21284607F0CE
:1029C000CDFF441BE4B2294608B32B782F2B02A875
:1029D0001BD00C2C28BF0C24224608F04FF918AB52
:1029E0002344384603F8588C00F026FD012302AA40
:1029F0003146384600F0B0FF88B3304600F01CFD89
:102A0000334625443E461F46D7E70135D5E70198B2
:102A100031797279B379B468377DCBEB0505056000
:102A2000F068356989F8041089F80520B16989F8DA
:102A30000630F269336AC9F80C004846C9F800A0AC
:102A4000C9F80840C9F8105089F81470C9F818106E
:102A5000C9F81C20C9F8203019B0BDE8F08F89F8FA
:102A6000040089F806004846C9F800A019B0BDE87E
:102A7000F08F00BFE0CB0000F0B59DB005461F46CB
:102A800001A86B461446FFF77BFF009AA35C144431
:102A9000002B42D09DF80A202F4E0A9600238DF875
:102AA0002C308DF82E30002A31D00AA83B46224621
:102AB00001A900F051FF50B301A800F0BDFC17F0D0
:102AC000060F43D19DF82C700C9B9DF82DE01396BA
:102AD00022469DF82E408DF850708DF85240159387
:102AE0000D990E989DF83C70109E119C129B8DF8CC
:102AF00051E01691179013A928468DF86070199629
:102B00001A941B93FFF72EFE28461DB0F0BD2846F1
:102B1000FFF756FE28461DB0F0BD9DF808700E4E1A
:102B20009DF809409DF80A30039A8DF8507013966D
:102B30008DF851408DF852301592049905989DF802
:102B40001870079E089C099B044AD2E70AA81099AE
:102B500000F09CFDB6E700BFE0CB000080C900009C
:102B600010B40C46002300F12C01024A204610BC90
:102B7000FFF790BEFD27000010B40C46002300F1C3
:102B80002C01024A204610BCFFF784BE3528000005
:102B9000064B074ADA620221002259609A7083F8D4
:102BA000242083F8302083F83220704714D3FF1F8D
:102BB000E0CB000005281ED8DFE800F003030E1369
:102BC00018090F4B4FF038421A60FFF71FBD0C4B2E
:102BD0000C4A1A60FFF71ABD094B0B4A1A60FFF73F
:102BE00015BD074B094A1A60FFF710BD044B084A90
:102BF0001A60FFF70BBD024B064A1A60FFF706BDCD
:102C000068D3FF1F0320013800000138011001388C
:102C1000032000380650003808B50121007802F082
:102C20002DF80E4B1A7802B908BD0D4A1278002112
:102C30001970002AF8D0D00703D50A490A4B096851
:102C40001960910703D50749084B49681960530774
:102C5000EAD5044A064B92681A6008BD6CD3FF1F80
:102C600010D3FF1F04D3FF1F00E100E004E100E0E8
:102C700008E100E0204B1A781AB10078002101F039
:102C8000FDBF70B41D491E4A0C78126801251D70E5
:102C900004B372B60B78DC0707D51A4C1A492668BC
:102CA00009681A4D314029602160990707D5184CF1
:102CB000154926684968154D3140216069605B07F8
:102CC00007D51449104B0D689B68104C2B400B60C6
:102CD000A36062B6104BD968914207D00F4C1C60BC
:102CE0000F49DA6042F080441C61196000780021CD
:102CF00070BC01F0C3BF00BF6CD3FF1F10D3FF1F18
:102D000068D3FF1F80E100E0F8D2FF1F04D3FF1F4C
:102D100084E100E088E100E000C0024001401F00C3
:102D200000001F80F0B4134C134A236882B017468A
:102D3000009300984FF0004680B2FF25136843F4DB
:102D400080631360D6625563D36A002BFCDABB6BD9
:102D5000DBB2FF2B0AD023680193019B9BB21B1AA5
:102D60008B42EBDB002002B0F0BC7047012002B0C8
:102D7000F0BC704764D6FF1F00C00240F8B50D4696
:102D80004FF4967116460446FFF7CCFF284B1A689D
:102D90004FF0004042F4806245F040011A60D86272
:102DA0001A465963D36A002BFCDA214918204FF0E8
:102DB00000470A6826FA00F342F48062DBB20A6038
:102DC000CF624B63CB6A002BFCDA083810F1080F96
:102DD000EFD155B3082D0CBF8721FF21144B1A6882
:102DE0004FF0004042F480621A60D8621A4659637C
:102DF000D36A002BFCDA0E4A002716464FF0004536
:102E0000FF21136843F480631360D5625163D36A72
:102E1000002BFCDAB36BD8B21B06607000D4F8BD8F
:102E20000137B7F5807FECD1F8BD9521D6E700BF1B
:102E300000C002402DE9F0430023944F027085B09A
:102E400083703B6801930546884610460121019E28
:102E500001F014FF2878012101F024FF28780121D6
:102E600001F00CFF8A4A136843F480531360062074
:102E7000FFF7A0FE874B884A93F800E01268B6B2CD
:102E8000BEF1000F23D072B61978CC070BD5834C56
:102E90008348D4F800C00068DFF818E20CEA0000AC
:102EA000CEF80000206088070BD57E4C7C48D4F813
:102EB00000C04068DFF8FCE10CEA00002060CEF8BA
:102EC0000400490700F19F8062B693F800E0764B5A
:102ED000D968914207D0754818607549DA6042F0A8
:102EE000804018611960704A0A244FF00040FF21A9
:102EF000136843F480631360D0625163D36A002B7C
:102F0000FCDA013C14F0FF04F2D1BEF1000F14D042
:102F10001EF0010F03D0674A674B12681A601EF05B
:102F2000020F03D0634A654B52681A601EF0040F0B
:102F300003D0604A624B92681A602846FFF79AFEF7
:102F400007E03B680293029B9B1B9BB2B3F5FA6FB1
:102F500052D8002211462846FFF710FF012881466B
:102F60006870EED14FF4D57208212846FFF706FFAE
:102F7000430727D585F802904FF0000907E03B682A
:102F80000393039B9B1B9BB2B3F5FA6F34D80022CB
:102F900037212846FFF7F2FE4A4629212846FFF747
:102FA000EDFE68700028EAD1AB78022B3BD02846B2
:102FB000FFF732FE4046FFF7FDFD0124204605B035
:102FC000BDE8F083384A042194464FF0004EFF20BC
:102FD000136843F480631360C2F82CE05063D36A33
:102FE000002BFCDADCF838300139DBB211F0FF01DC
:102FF0006B70EDD1AA2B11D02846FFF70DFE2046AD
:1030000005B0BDE8F0832F482549D0F800E0896875
:10301000284C0EEA01010160A16055E70223AB7064
:103020004FF08049B3E702463A212846FFF7A6FE53
:103030000028E1D11C4B1A684FF0004442F4806232
:10304000FF201A601946DC625863CB6A164A002BCF
:10305000FBDA936B144A03F0C003C02B04BF0323B5
:10306000AB70032116464FF00044FF20136843F471
:1030700080631360D4625063D36A002BFCDA013999
:1030800011F0FF01B36BF1D191E700BF64D6FF1FD0
:103090003C80044010D3FF1F68D3FF1F80E100E095
:1030A000F8D2FF1F84E100E000C0024001401F0091
:1030B00000001F8004D3FF1F00E100E004E100E0F6
:1030C00008E100E088E100E0F0B4164C164A2368FD
:1030D00082B01746009300994FF0004689B2FF2551
:1030E000136843F480631360D6625563D36A002B80
:1030F000FCDABB6BDBB2FF2B43700BD1236801936F
:10310000019B9BB25B1AB3F5967FE9DD002002B00C
:10311000F0BC7047A3F1FE00B0FA80F0400902B0A5
:10312000F0BC704764D6FF1F00C00240F8B583783A
:10313000032B0E46044618BF4E021546FFF79AFDB4
:10314000324611212046FFF719FE18B92046FFF735
:10315000BBFF20B92046FFF75FFD0020F8BD204BE4
:103160002049214A1A608E4659631A4659631E4601
:10317000596305F5FD70A91C05F5FE77D36A13F0B8
:10318000F00FFBD0C6F834E0B36B01F8013C1B1222
:1031900001F8023C02318F42F0D105F50075A842DA
:1031A0000DD20F4A1646D36A13F0F00FFBD0B36B63
:1031B000191200F8021BA84200F8013CF3D3084B97
:1031C0000949084A196019465A63CB6A044A13F040
:1031D000F00FFAD02046936BFFF71EFD0120F8BDDB
:1031E00000C00240FFFF009000041F80F0B4314E89
:1031F00033684FF0004743F4806333603D46F76225
:10320000344671633346511C02F20127E26A002AF8
:10321000FCDA1A6811F8016C42F480621A60DD620F
:103220005E63E26A002AFCDA1A6811F8026B42F463
:1032300080628F421A60DD625E63E7D11D49CA6A0F
:103240001C4B002AFBDA1A684FF0004542F48062FA
:10325000FF241A601946DD625C63CB6A154A002BB5
:10326000FBDA13684FF0004543F48063FF241360DA
:103270001146D5625463CB6A0E4A002BFBDA136801
:103280004FF0004543F48063FF2413601146D5627C
:103290005463CB6A074A002BFBDA936BDBB203F073
:1032A0001F024370A2F10500B0FA80F04009F0BCA3
:1032B000704700BF00C0024070B5044671B183780A
:1032C000032B0D4618BF4D021646FFF7D3FC2A46C6
:1032D00018212046FFF752FD054620B12046FFF792
:1032E0009BFC002070BD3246FE212046FFF77EFF8A
:1032F0000028F3D04FF416712046FFF713FD002885
:10330000ECD02A460D212046FFF738FD0028E5D1F4
:103310000B4B1A684FF0004542F48062FF201A60A0
:103320001946DD625863CB6A054A002BFBDA936BC2
:1033300013F0FF0FD2D12046FFF76EFC012070BDC5
:1033400000C00240014B024A1A60704768D3FF1F59
:103350000110013838B590F90530002B03DBBDE8CA
:10336000384000F055BC04460121006900F07AFCA9
:10337000F8B1257D104B13EB45151AD0A3790F4AF0
:10338000012B9CBFA369EB61E36912686B831B0C83
:10339000AB8232B105F1160105F1180090472B8B75
:1033A0006B82637903F07F036371BDE8384000F0FE
:1033B0002FBC002038BD00BF7CD3FF1F70D3FF1F80
:1033C00010B500F1080204460121006A00F034FD46
:1033D00050B1E3693BB96379A268E26163F07F03AE
:1033E0006371012010BD012010BD00BF70B50646FD
:1033F000FFF7E6FF98B1326AB568117C536914791A
:10340000023D8D40013B74B11D4402E014F0FF0405
:1034100007D0601900F08CFC013C0028F6D1002098
:1034200070BD336A197CB0694FF4007202FA01F37F
:103430000344B361012070BD82790AB9002070474E
:1034400010B50446FFF786FF18B10023A3710120D1
:1034500010BD002010BD00BF70B44B1E01F10A0466
:10346000202203F8012FA342FBD1013800250726B3
:1034700010F8014F2CB32E2C1ED0164A01E09C42AE
:1034800017D012F8013B002BF9D1AE421FD3A4F1A3
:1034900021025D2A1BD8A4F16102192A05F101035A
:1034A00098BF203C0D44DBB298BFE4B22C701D469F
:1034B000DEE7002070BC70470A2EFAD008250A26E5
:1034C000D6E70B78B3F1200018BF0120F2E71846C9
:1034D000F0E700BFE8CB000038B583793BB991F83D
:1034E0002020102A0D46044603D0202A10D00020A8
:1034F00038BD022282714A8CC3615301836100236B
:103500000120607123752562A360E360236138BDEB
:1035100003238371496AC16100F11802284600F053
:103520005BFC0028EBD1E2E72DE9F04F8B4683B03E
:103530008179019219B14379DA07064604D44FF034
:10354000FF3003B0BDE8F08F8369C26801989B1A11
:1035500098426CD8019B002B6CD002291D46DFF8E5
:10356000E490374FDFF8E080316AC2F3080A42D0B6
:103570000C79013C04EA5224E4B2BAF1000F54D1B0
:10358000002C52D1002A47D1F269B260087C496907
:10359000023A82400C441019CAF500747279A542AF
:1035A000CCBFA4B22C46530629D4B4F5007F26D054
:1035B000002100F057FB0028C1D00AEB090E0EEBEA
:1035C000040086450BD00BF1FF32734613F8011B44
:1035D00002F8011F9842F9D1CEEB00008344F26853
:1035E0002D1B2244ADB2F26025B3B1790229C2F39A
:1035F000080A316ABCD1486A00EB5220CCE73A682D
:103600009042D5D001465A46D8F80000FFF78EFD0B
:10361000002894D0A344E2E7084606F10802B16806
:1036200000F0A2FB00288AD0316AB268AEE79BB2F4
:1036300001938FE7BDF9040003B0BDE8F08F00BF30
:10364000F8BEFF1F7CD3FF1F78D3FF1F8379012BA8
:1036500017D930B5C36883B001220DF107010446C4
:10366000C3F34315FFF760FF012802D0002003B029
:1036700030BDE36804481F3300EB4510E36003B03E
:1036800030BD0020704700BF7CD3FF1FF8B58379A1
:1036900013B182698A4201D20020F8BD022B0F4685
:1036A00005461AD007B32B6AE9681C7C4A1E04F150
:1036B00009037C1EDA40DC40A24211D9EB69AB6001
:1036C00005F1080606E0A968286A00F04DFB013CF8
:1036D0000028E1D03246002CF5D1EF600120F8BD82
:1036E0000029EBD0A41AEBE7AF60EF600120F8BD32
:1036F00083790BB1FFF72EBE184670478379012BF3
:1037000001D000207047F0B54579AC0783B0024680
:103710001CD585698D420C4618D3D5B12546D6688F
:103720001446FFF7B3FF88B1B5B9E169206A00F02C
:103730000BFC58B1E56122E000F006FC30B16FF0FF
:103740007042A168206A00F0EFFBC0B9002003B00E
:10375000F0BD184603B0F0BD01AAA168206A00F0D0
:1037600003FB0028F2D0206A0F4B90F820700199DB
:103770004FF6F872102F08BF13469942DCD36379D5
:10378000A279A56163F07F036371002ADED0204631
:10379000FFF7E0FD0028D9D0B5422946204628BFD2
:1037A0003146FFF773FFD2E7F8FFFF0F70B51D4BEF
:1037B00003EB4116F37A13F0110F02D012F0420F0F
:1037C0001ED1194B01751B680361738BB18A43EAE3
:1037D0000141C161F37A13F01803154604460DD177
:1037E000F36983610123837105F00F030021637185
:1037F0006B06A160E1600FD4012070BD102B01D0D9
:10380000002070BD00F11802006A00F0E5FA0028FF
:10381000F6D00423A371E7E72046BDE87040FFF728
:103820006DBF00BF7CD3FF1FF8BEFF1F2DE9F0471F
:1038300084B001AF06460C46104639469946FFF75C
:103840000BFE78B30022216A316213461546A2604E
:10385000E260DFF8008108E0E52B1CD001460B2276
:10386000384606F089FD88B3E368A2699A421DD9FB
:103870002046C3F3431AFFF7E9FE98B10378002B03
:10388000EAD15DB9D8F8003086F814A03361037826
:1038900023B10125E8E7002DFBD1F3E709F012037E
:1038A000122B1DD0002004B0BDE8F08709F01203F0
:1038B000122BF7D1A5B9A379022BF3D02046FFF73D
:1038C00095FD0028EED0214C357514E009F0300349
:1038D000302BE7D04A4651463046FFF767FFE2E714
:1038E0000121306900F0BEF90028DBD0347D174B90
:1038F00013EB4414D6D020220021204606F0D2FD3E
:1039000097E80700234603C3114923F8022B0D68EB
:10391000120C1A709DB104F10E0104F11000A847B9
:10392000238AE28963822383E28200F071F900280E
:10393000B8D04A46317D3046FFF738FFB3E742F64C
:1039400021034FF400622382E281EBE77CD3FF1F67
:1039500070D3FF1FF8BEFF1F10B4847914B100208C
:1039600010BC704710BCFFF761BF00BF10B500214D
:103970000446FFF7C3FE08B9002010BD01212069ED
:1039800000F070F90028F7D0237D064A5B01DA4287
:10399000F2D0E52098540021A171BDE8104000F05C
:1039A00037B900BF7CD3FF1F30B58BB000240A4667
:1039B000084D8DF808400146022301A88DF80A4001
:1039C0000195FFF733FF10B101A8FFF7CFFF0BB050
:1039D00030BD00BFE0CB00002DE9F04F8B46817970
:1039E00085B001298046019206D0012388F8043071
:1039F000002005B0BDE8F08F42799107F5D5530757
:103A00000AD5D8F80C40D8F818108C4200F0C680BF
:103A1000FFF73CFE0028E8D0019BD8F80C40002BB3
:103A200000F0AF80DFF8C891DFF8C8A1019F3AE04D
:103A3000002C43D1D8F80810002940F08380D8F832
:103A40001C20002A00F09280C8F80820C4F50076F7
:103A5000B6B2BE4239D890F810E04169023A02FA93
:103A60000EF20D44B6F5007F154435D1DAF800208A
:103A7000954204BF4FF0FF32CAF80020584A294649
:103A800010685A46FFF718FC0028AED00BF5007BF3
:103A90004FF40074D8F80C20BF1B1444BFB2C8F810
:103AA0000C40002F6DD0D8F820000579013D05EAC3
:103AB000542515F0FF05C4F30804B9D0C4F5007609
:103AC000B6B2BE42D8F80820C5D9067C4169023A90
:103AD000B2400D4415443E462CB9D8F80C10D8F825
:103AE000182091421BD22846012100F0BBF8002883
:103AF0003FF47BAF4C4404EB060E744520D00BF131
:103B0000FF31621E0EF1FF3511F8010F02F8010FAF
:103B10009542F9D1C4EB0E0EF3443446BAE700F0F7
:103B200077F800283FF461AF2E49CAF800500A78B0
:103B30004C4404EB060E42F0010274450A70DED1DB
:103B40003446A7E703AA00F00FF900283FF451AF6D
:103B5000D8F82000244B90F82060039A4FF6F871B3
:103B6000102E18BF19468A42FFF46EAF4046FFF789
:103B700027FC00283FF439AFD8F82000D8F80820F7
:103B800064E7D8F81830A3420DD298F80520C8F899
:103B9000184042F0800288F805200FE0019B002BBE
:103BA0007FF440AF0AE0114B98F805201B682BB159
:103BB000019B1BB142F0800288F8052012070AD54C
:103BC00098F80630002B3FF410AF4046FFF7C2FBD9
:103BD00000283FF40AAF019805B0BDE8F08F00BFA0
:103BE00078D3FF1F7CD5FF1FF8FFFF0F70D3FF1F97
:103BF0007CD3FF1FF8BEFF1F00B583B002AB0122CC
:103C000003F8011D1946FFF7E7FE03B05DF804FB5A
:103C100070B50F4C23780BB9012070BD0D4B0E4DC4
:103C2000196828680D4AFFF747FB70B10C4E3168E0
:103C300019B900232370012070BD2868074AFFF7D7
:103C40003BFB10B100233360F3E7002070BD00BFE1
:103C50007CD5FF1FF8BEFF1F78D3FF1F7CD3FF1F4B
:103C600074D3FF1F70B50D4D2B6883420E460ED0E6
:103C70000446FFF7CDFF08B9002070BD084B094A84
:103C800018682146FFF752FA0028F5D02C60064B41
:103C9000197831431970012070BD00BFF8BEFF1FB5
:103CA00078D3FF1F7CD3FF1F7CD5FF1FF8B590F89A
:103CB0002030C469102B1A4B05460E4617461B6868
:103CC00016D004EBD1149C4216D106F07F06154A9B
:103CD00042F826701449287E0A78012842F0010231
:103CE0000A7018D9A968114A0B4413600120F8BD65
:103CF00004EB11249C4208D000212046FFF7B2FFBC
:103D000050B195F82030102B07D1F6B2054A234662
:103D100022F81670DEE70120F8BD2346D5E700BF84
:103D2000F8BEFF1F7CD3FF1F7CD5FF1F74D3FF1F7E
:103D300010B50446FFF76CFF78B1084B002103F57E
:103D4000007203F8011F9342FBD1054A054913781D
:103D50000C6043F001031370012010BD7BD3FF1FE3
:103D60007CD5FF1FF8BEFF1FC36801338B4218D3F9
:103D700070B590F82030102B154B044616460D46B2
:103D8000C0691B680FD000EBD11098420FD105F02D
:103D90007F01104B53F8213023F070433360012032
:103DA00070BD0020704700EB1120984207D0002121
:103DB000FFF758FF50B194F82030102BE7D1E9B24B
:103DC000044B33F811303360012070BD002070BD0A
:103DD000F8BEFF1F7CD3FF1F2DE9F04782B002AD74
:103DE000DFF8508045F8041D044691464FF0000A64
:103DF0004FF400774FF6F8760CE094F82030227CF0
:103E00000199102B14BF4346334607FA02F2994238
:103E1000924408D22A462046FFF7A6FF0028ECD19C
:103E200002B0BDE8F0870120C9F800A002B0BDE8EB
:103E3000F08700BFF8FFFF0F2DE9F04F176883B040
:103E40006FB301374FF0000AC36803F1010813B3E1
:103E50008B46064691463C46002505E01C461F461B
:103E6000F3680135AB4216D9A04538BF022421467C
:103E700001AA304638BF2746FFF776FF631CD91BDF
:103E800048B1019A002AE9D18B4510D01C46F3684D
:103E90000135AB42E8D8002003B0BDE8F08FA1F1B6
:103EA000010ABAFA8AFA07684FEA5A1ACCE7012CD3
:103EB000F1D9F36801339C42EDD86FF0704221468E
:103EC0003046FFF7F3FE0028E5D0A74214D2013CAC
:103ED000012CE0D9F36801339C42DCD8621C2146F6
:103EE0003046FFF7E3FE0028D5D0A74204F1FF34A7
:103EF00002D0012CEED1CEE7D9F8001059B101293A
:103F0000C9D9F36801339942C5D83A463046FFF71C
:103F1000CDFE0028BFD0C9F80070BAF1000F01D063
:103F2000013737600120B7E701290AD9C368013397
:103F3000994210B402D810BCFFF7B8BE002010BCE4
:103F400070470020704700BFF0B5022383B00546DC
:103F5000134F03600C464FF6F8760FE0EB68013321
:103F60009C4216D8FFF7A2FE98B195F82030019C2C
:103F7000102B0CBF33463B469C420DD201AA214672
:103F80002846FFF7F1FE2146002210B1012C2846F9
:103F9000E4D8002003B0F0BD012003B0F0BD00BFA5
:103FA000F8FFFF0FF8B53E4B054619601446DAB12D
:103FB000042A01D90020F8BD00210846FFF752FE6F
:103FC0000028F7D0374B03EB041292F8AE215206CB
:103FD000F0D11B3403EB0414D4F80A30632BE9D975
:103FE000D4F80640002CE5D000212046FFF73AFE29
:103FF0000028DFD02B4AB2F80B30B3F5007FD9D1BF
:10400000117C0029D6D0D389002BD3D0567B002E2B
:10401000D0D0002329762E712B74012703E00929C3
:104020000B462974C6D007FA03F0B04203F1010130
:10403000F5D1D68A1B4906B94E6AB2F80EE0AE60D9
:10404000A644C5F81CE0B2F81110177C6984480139
:1040500006FB07E600F2FF1006EB60206E62686167
:10406000B2F813100F4E01B9316A241A0C4424FA25
:1040700003F340F6F4718B42EB600BD94FF6F47109
:104080008B4285BFD36A6B621023202385F82030D2
:104090000120F8BD0C2385F820300120F8BD00BFB9
:1040A00078D3FF1F7CD3FF1F90F8392090F8380099
:1040B000101A704790F8383090F839209A4205D994
:1040C0005A1C034480F83820187E70474FF0FF30A8
:1040D000704700BF90F8383090F839209A4286BF78
:1040E0001B18187E4FF0FF30704700BF704700BFAD
:1040F000B0F85E306BB190F85D30202B07D8C21855
:10410000013380F85D30012082F83B1070470123B5
:1041100003710020704700BF38B50546B0F85E0057
:1041200090B195F85D301446C3F1210294420CD849
:1041300005F13B001844224600F018F995F85D306F
:10414000234485F85D30204638BD0120144628718F
:10415000EEE700BF10B50269D378DBB2D90604469A
:104160003DD510215806D17038D503F0040303F073
:10417000FF02002B51D03D49626E00230B7084F882
:104180005D30002A5BD0904794F85D30002B56D00C
:104190002369D0229A70236994F83B201A7123690D
:1041A000012284F85C200222DA7010BD304B84F8C2
:1041B00060009C424AD02F4B9C4252D094F8391058
:1041C00013791F29DBB207D82848007820B160187E
:1041D000013184F8391003760223D37010BD5906DB
:1041E000C3D4917801F0100101F0FF000029DDD067
:1041F00013F001031ED194F85C1094F85D0088421E
:1042000081BF4B1C091984F85C3091F83B30137165
:104210002369D0229A702269DEE7236984F8392065
:10422000C0229A702369114A197901211170022262
:10423000DA7010BDC023937022691379CCE7012294
:10424000002384F85D2084F83B30A1E7626994F88C
:104250006130094913440322187A00F03DFC2269B9
:10426000ACE7626994F861300449F3E7ECD5FF1FCD
:10427000F0D5FF1F80D5FF1FDD420000E94200009E
:104280000369DB7803F0200373B190F860300133E9
:10429000DBB2012B80F860301AD9426990F86130A6
:1042A0001344187A00F094BC70B5426903F0FF051E
:1042B00090F8613013440446187A00F089FCA36E2C
:1042C0005BB184F8385094F83900BDE87040184765
:1042D00090F85F30002BE0D0704770BD0148FFF7C9
:1042E000CFBF00BFF0D5FF1F0148FFF7C9BF00BF18
:1042F00080D5FF1F0148FFF72DBF00BFF0D5FF1F7E
:104300000148FFF727BF00BF80D5FF1FF0B4104959
:10431000104B114A0A6100224FF47A740F4F104873
:10432000104E114D0A710A7381F8612081F86220E4
:104330001A711A7383F8612083F862204F618C60D0
:104340009C601E615D6108601860F0BC704700BF32
:10435000F0D5FF1F80D5FF1F00600640F8CB00009E
:1043600040CC00000070064018CC0000844641EAB2
:10437000000313F003036DD1403A41D351F8043BDD
:1043800040F8043B51F8043B40F8043B51F8043B2F
:1043900040F8043B51F8043B40F8043B51F8043B1F
:1043A00040F8043B51F8043B40F8043B51F8043B0F
:1043B00040F8043B51F8043B40F8043B51F8043BFF
:1043C00040F8043B51F8043B40F8043B51F8043BEF
:1043D00040F8043B51F8043B40F8043B51F8043BDF
:1043E00040F8043B51F8043B40F8043B51F8043BCF
:1043F00040F8043B51F8043B40F8043B403ABDD23E
:10440000303211D351F8043B40F8043B51F8043BDF
:1044100040F8043B51F8043B40F8043B51F8043B9E
:1044200040F8043B103AEDD20C3205D351F8043B6E
:1044300040F8043B043AF9D2043208D0D2071CBF3A
:1044400011F8013B00F8013B01D30B880380604663
:10445000704700BF082A13D38B078DD010F00303D9
:104460008AD0C3F10403D21ADB071CBF11F8013B49
:1044700000F8013B80D331F8023B20F8023B7BE798
:10448000043AD9D3013A11F8013B00F8013BF9D2C3
:104490000B7803704B7843708B788370604670475D
:1044A000374A384913681B06FCD40B6813F08003A5
:1044B000F8D172B634490A78002A5FD0334A3448BA
:1044C000F0B4344C176806682568D4680C303E4454
:1044D000143200681268304F35442C4420440244A2
:1044E000C2F34E022D4E2E482E4D2F4C42F4004268
:1044F0003A60376806682D682C4A24680C303E44C0
:10450000006812682A4F35442C4420440244C2F308
:104510004E02284E2848294D294C42F400423A6068
:10452000376806682D68274A24680C303E440068C6
:104530001268254F35442C4420440244C2F34E02F5
:10454000224E2348234D244C42F400423A603768FF
:1045500006682D68214A24680C303E4400681268C1
:1045600035442C4420440244C2F34E021C4842F419
:10457000004202600B7062B6F0BC704762B67047D2
:1045800024B0034024B00B405DD6FF1F38B0034079
:104590003CB0034040B003402CB0034058B003404F
:1045A0005CB0034060B0034064B003406CB00340B3
:1045B00030B0034038B00B403CB00B4040B00B4033
:1045C00044B00B404CB00B402CB00B4058B00B40EB
:1045D0005CB00B4060B00B4064B00B406CB00B4063
:1045E00030B00B4030B42948294A2A4B2A4D602468
:1045F000E121047011701B78284C082B30D00A2B55
:104600002748284937D00C2B0CBF35223D221223D6
:104610002A60236002600B60234B24491B78244AE4
:10462000BBB101230B601360224B23491B78234A43
:10463000012B26D9042B0FD9082B1ED9102B94BF80
:10464000862387230B6013601D4B01221A7030BC38
:1046500070470B601360E7E784230B601360F3E798
:1046600000F58E200F490830012213232A602360B1
:1046700002600B60D0E73922F7E785230B601360F7
:10468000E2E780230B601360DEE700BF00400740D5
:1046900001400740FCBEFF1F08B003400CB00340C0
:1046A00008B00B400CB00B4060D6FF1F20B0034099
:1046B00020B00B40FDBEFF1F24B0034024B00B40D0
:1046C0005DD6FF1F0C2830B417D91023984228BF9D
:1046D00018461C46104A114D1178181A8C42287041
:1046E00018D00F4913700B7823B10E490E4A0023DE
:1046F0000B60136030BCFFF775BF0A2802D90C238A
:104700001C46E7E7082802D90A231C46E2E70823EB
:104710001C46DFE730BC7047FCBEFF1F5CD6FF1FA6
:104720005DD6FF1F24B0034024B00B4028282FD8AB
:10473000334B2DE9F0411E5CFF2E2BD0314B1B7803
:10474000002B2AD132062CD472B62F4D2F4C2F4677
:10475000012326602B7062B672B623681B060CD448
:104760003B781BB9F4E72B78002BF1D062B601F04F
:10477000F1FD72B623681806F5D5254B1B6800229B
:104780002A7062B6234A107843FA00F0BDE8F0813F
:10479000002070470020BDE8F081FFF781FE32065F
:1047A000D2D572B61C4DDFF87C801C4C06F0400759
:1047B000FFB206F03F06D8F80030DFB123F0100357
:1047C000C8F8003001232660134A2B7062B672B617
:1047D000236819060CD413781BB9ECE72B78002B4F
:1047E000E9D062B601F0B6FD72B623681B06F5D5B6
:1047F0000B4BC3E743F01003C8F80030E2E700BFFB
:1048000058CC00005DD6FF1F5FD6FF1F00B00340ED
:1048100010B003405CD6FF1F5ED6FF1F00B00B40F8
:1048200010B00B400CB00B40F0B51B4B1B4E596841
:1048300018689A68DB6885B06C460FC433789907AE
:104840001DD5174A174C1378174913F0700318BF7A
:104850001370164A164B8027177000263320032248
:1048600026706D4608701A7072B6043C45F001055A
:104870002046A84762B6237813F0700309D10D4B88
:10488000064901E0013B02D00A78D207FAD505B00B
:10489000F0BD237005B0F0BD84CC000001000240E3
:1048A00000000240040002400B00024007000240EA
:1048B0000A000240410D0300B0F5006F0AD210B5A6
:1048C000094B1B78DB07044606D504F1A05000789D
:1048D000C0B210BD00207047FFF7A6FF04F1A05042
:1048E0000078C0B210BD00BF01000240B0F5006FFB
:1048F00017D238B50F4B1B78DA070D46044611D591
:1049000004F1A0500378AB420AD00B4A137813F09D
:10491000700318BF1370074A05701378DB07FCD5C6
:1049200038BD7047FFF780FF04F1A0500378AB4219
:10493000EBD1F5E70100024000000240024A136893
:1049400001331360704700BF64D6FF1F08B5104CD9
:1049500008E0236859050DD423681A050FD423688D
:10496000DB0411D423685803F3D500F017FB236848
:104970005905F1D502F064F823681A05EFD502F065
:1049800001FC2368DB04EDD502F0B4FEEAE700BFCA
:104990003480044008B5FFF7D9FF00BF014B102257
:1049A0001A80704700200540704700BF094908B5CC
:1049B0000B6830B16A461844A2F58052904202D288
:1049C0000860184608BD05F0C7F90C2303604FF0D6
:1049D000FF3008BD00BFFF1FFEE700BFEFF31380ED
:1049E00070B9EFF310836BB9EFF305825AB94FF446
:1049F0008070EFF311832BB1984228BF184670479F
:104A00004FF0FF3070470F2A01D81846F1E7014BED
:104A1000D05CEEE7F0E300E0704700BF10B40F4B4E
:104A200053F8302092F880422CB1012369B182F80A
:104A3000803010BC704703EBC0035B681A6841B953
:104A400022F002021A6010BC704782F8003110BCDC
:104A5000704742F003021A6010BC704794CC00000B
:104A60001C4A02EBC00301295B6811D004291BD04A
:104A700052F83000002280F8802229B1022920D08B
:104A8000032922D01A6070474FF480721A60704771
:104A900052F830004FF4A27280F880121A601A683F
:104AA00022F020021A60704752F830104FF4A272C0
:104AB000012081F880021A601A6842F020021A6010
:104AC000704740F203121A6070474FF481721A6007
:104AD000704700BF94CC0000212817D8F8B5042AED
:104AE00013D8DFE802F0494C4F1446002C4872B648
:104AF000236823F4702343F08072C4F384011643C7
:104B0000236040F82150266062B6F8BD70474FF42C
:104B10001026244B03EBC0030D465C68216811F49A
:104B2000E06134D0204B214A2149C3F89C2104F193
:104B300040422048C3F8A411A2F592211E4FC3F8A9
:104B4000A0017C291D48C3F8A871C3F8AC01CDD9D8
:104B5000A2F594237C2B18D9A2F596237C2B19D986
:104B6000A2F598237C2B17D9A2F59A227C2A15D975
:104B7000F8BD4FF43026CCE74FF40026C9E74FF4D8
:104B80004026C6E74FF42026C3E70D48AFE7FFF7FE
:104B900067FFC7E70B48AAE70B48A8E70B48A6E75B
:104BA00004BFFF1F94CC000000B8FF1FD1BDFF1F42
:104BB00079BDFF1FA5BDFF1F4DBDFF1F21BDFF1FFD
:104BC0003CBFFF1F8CBFFF1FBCBFFF1FDCBFFF1F11
:104BD0001A4B03EBC00010B4426802F14043A3F546
:104BE00092217C2905D9A3F594217C2913D8144955
:104BF00000E0144972B61368134C23F08773C2F3B4
:104C0000840023F4803343F08073136041F8204024
:104C100062B610BC7047A3F596217C2909D9A3F58B
:104C200098217C2907D9A3F59A237C2BF1D8074931
:104C3000E0E70749DEE70749DCE700BF94CC000066
:104C40003CBFFF1F04BFFF1F194A0000DCBFFF1F4E
:104C50008CBFFF1FBCBFFF1F30B4054B054D064C7A
:104C6000002210211A602A602060196030BC704751
:104C700014D0034004D0034000D00340212801D8C1
:104C8000FFF7CCBE704700BF212806D8044B53F86D
:104C9000303093F80002C0B270470020704700BF68
:104CA00094CC0000212801D8FFF7DABE704700BF7E
:104CB0002DE9F843054672B6204F214B214A1B6867
:104CC0003C68126862B6520102D5322B88BF0134AB
:104CD00095B3C3F5BB331C4EDFF86490DFF86480F6
:104CE000FF334FF47A72A6FB031302FB04F404EBC8
:104CF000931472B6D9F800103A68D8F800E062B69A
:104D0000C1F5BB33FF33A6FB03031EF0806FC4EB7A
:104D100093134FF47A7002D0322988BF013200FB1E
:104D20000233B3F57A7F04D3013D05D004F57A74DC
:104D3000DFE701F00FFBDCE7BDE8F88364D6FF1F77
:104D400018E000E004ED00E0ABAAAAAAF8B52D4BEC
:104D50002D49DFF8D0E0DFF8D0C02C4E2C4D2D4C83
:104D60002D4A2E4F4FF4000018604FF080701860ED
:104D70004FF0007018604FF0806018604FF00060D6
:104D800018600020086028234BF6FF71CCF8001053
:104D9000CEF80030336013602B6023603B60B36259
:104DA0009362092245F8242CC4F8D80F05F57F65D5
:104DB000C7F8D41F07F5FF2707F5FA67C6F8F83FCD
:104DC0002B6006F5FF26C4F8D42F05F5FD2504F564
:104DD000FF24386006F2F4761148316005F5FF656E
:104DE00004F5FD642B6023600260FFF7FBFB3220BB
:104DF000FFF75EFF00F0FCFC4FF4AF70BDE8F84039
:104E0000FFF756BF08E100E0048003401480034030
:104E1000248003402C8003401C80034034800340E6
:104E200000800B400C80034008800340431E032B8E
:104E300014D872B60A4951F8230068B170B4094C0D
:104E4000058834F81320466841F82360521B24F883
:104E5000132062B670BC704762B67047002070477E
:104E6000C0D6FF1FA0D9FF1F013803280BD872B688
:104E7000074B53F8203043B100205B680130002B12
:104E8000FBD162B67047002070471846F9E700BFB3
:104E900014D7FF1FF0B472B61A491B4E012311F844
:104EA000014B194F9A00240742F0010505D556F829
:104EB000324064B156F83520BAB10133052BEED13A
:104EC00062B6124B00221A70F0BC00F00DBD0F4C00
:104ED0000F4D217847F8325007EB431308304A1E34
:104EE0005860227062B6F0BC70470849094B0A78D6
:104EF00047F8353007EBC5030830013A58600A70AF
:104F000062B6F0E7CCCD00000080FF1F3DD7FF1F49
:104F100088004000C8004000431E032B1DD81B4AD8
:104F2000400140F0100030B4104472B6184CE25CFE
:104F3000032A1BD8DFE802F00212151703220D889E
:104F4000E25410F0080F14BFC823882343EA054336
:104F500008310360416062B630BC704708300222FD
:104F6000EDE70522EBE708300422E8E7094A52F8AA
:104F7000230038B1084A52F82300416042F8231058
:104F800062B6E9E742F82310034AF7E70080FF1F03
:104F90004CD7FF1F14D7FF1F24D7FF1F2DE9F04F59
:104FA000DFF800A3DFF800B387B044E0A84F4FEA72
:104FB000930807EBC809013ED9F8042003F0080361
:104FC000F6B2A2F1080003F0FF04002B40F0FC80D1
:104FD00057F838301B0C99B222F8081C002B00F04F
:104FE000EA809C4B22F8064C42F8044C53F82620E9
:104FF000002A00F02982984D55F826305860974CC9
:1050000045F8260034F81630194424F8161000F03C
:105010004BFC002800F01182914A924B19F0080FC6
:1050200000F1080018BF1346C9F8040047F83830EB
:1050300008238AF800309AF80040E4B260071AD5D5
:10504000894B1B78A3B189490A7802F0FF0322B18A
:10505000013BDBB20B7003B900BE85490A7802F050
:10506000FF032AB1013BDBB20B70002B00F0BB81C8
:1050700004238AF8003004F0080303F0FF02002B39
:1050800000F0C6809BF80030DBB21E098ED19C0870
:105090006F4F57F8342007EBC401C2F38302013A83
:1050A00049680C2A00F28380DFE802F0777781817B
:1050B0008181818140818181070008686D4B6E4D3F
:1050C0000193674B4A686D4E47F8343081B240F225
:1050D0008164684B6A60286000220120A1421A6046
:1050E0003A61BA61307000F2E180B1F5D06F80F0C2
:1050F0002582B1F5817F00F0DE8100F2C181802937
:1051000000F03482822940F0DC81A9885C4B0429BC
:1051100000F2D8815B4C89000B44227062701A78CF
:10512000930740F122832070022023E2514B019328
:105130001A683AB3544B514E5449188834780D7854
:105140004028864645F0020828BF4FF0400E002C4C
:1051500084F001043470CEEB00000CBF8824C82416
:1051600007EBC80680B285F0010544EA0E44726080
:10517000188047F8384072440D70002800F0B7805E
:10518000019B1A603C4B1A88B2F5A06F0FD1002129
:105190009A7859703E4B1A7009E0374A108842F2EB
:1051A0002102904200F0A8802D4A47F83420394A65
:1051B000012313703CE72A4A2A4B19F0080F18BF45
:1051C000134647F8383033E700F08EFB324A334954
:1051D00052F82630002B00F03B8158688C5D42F875
:1051E000260003F10802C9F80420032C05D8DFE8E3
:1051F00004F02C02292602228A551A8819F0080F79
:105200000CBF8823C82343EA024347F838300FE72E
:10521000E00700F1EB80210600F12881A20706D506
:105220001F4A204913780220DBB213700870E3068E
:1052300002D51C4B10221A7007B0BDE8F08F042273
:105240008A55DAE705228A55D7E703228A55D4E73B
:105250000080FF1FC0D6FF1F6CD6FF1FA0D9FF1F05
:10526000C80040008800400048D7FF1FD1D6FF1F6C
:1052700050D7FF1F68D6FF1F34D7FF1FD0D6FF1FA0
:10528000C020074040D7FF1F7CD6FF1F3CD7FF1F21
:10529000982007409420074014D7FF1F4CD7FF1FCA
:1052A00088200740802007409020074042F22104D8
:1052B000A14200F0948043D8B1F5086F00F0A881B6
:1052C000B1F5106F40F0FD80B84AB94CA978117063
:1052D00004F1800503E00834AC4200F09E81236AAB
:1052E0001906F8D5606A083800F0FEFAF3E7BEF157
:1052F000400F18BF002243E7AE4ACD1D11F8013B15
:1053000002F8013FA942F9D1AB4A1268862A00F09F
:105310001181AA49AA4E0A78307882F00105002846
:1053200042F002020D700CBF8821C82147F83210EC
:1053300007EBC20280F0010000213070516033E7BA
:1053400042F22124A14240F0FE81DFF8BCC29D4B15
:105350009D49AC78DCF800501D6081460C7000203F
:10536000029080468446044694490D7845F0020E2A
:1053700007EBCE03B9F1000F5C600CBF8824C82492
:1053800044EA080385F0010447F83E3032700C709F
:10539000DFF81CE28A4BDFF82482002840F0988076
:1053A000BCF1400F1BD144F0020407EBC403029F81
:1053B000DFF8FCE15F60002A40F09F80020442F0C9
:1053C000880207444EF8342086F800900D703B4662
:1053D000402804D100207D4A019910800B607C4A4E
:1053E00001231370E3E600F0C7FB41E6704B7848F9
:1053F00072491A614FF0020E80F800E0754F0A7092
:10540000754919609960754E754D764C9A610D21FC
:105410003970FF213170DFF8F4E129702270724D8C
:10542000724A8EF800109F27012406F8047C5D6004
:105430000470DA6007B0BDE8F08F6D4A47F83800B5
:10544000137801331370F3E543F82600694DD6E570
:105450008B5D032B67D801A252F823F03150000076
:1054600031500000B1540000AB54000059495C4B6E
:1054700080220D2008701A70A2077FF5D8AECFE603
:1054800040F20232914240F05681A98801F07F013A
:10549000042916D86A88A2B94E4C89000C4481466A
:1054A000217841F00201217059E701238B55BFE5B6
:1054B00000238B55BCE5A98801F07F01042940F247
:1054C0004781444B0F221A70414A012313706EE644
:1054D00040287FF668AF44F002040EEBC401029E40
:1054E0004E60AAB1444A83F800903346403888F8A9
:1054F000005040334EF834206DE70204029B86F8DA
:10550000009042F0C8020D7003444EF834205FE76B
:1055100083F80090029B304A88F8005040384033AE
:105520004EF8342057E719F0080F0CBF022303236D
:105530008B557DE5314A0F211170EAE6304A5468F7
:10554000002CBED06888B5F804E003E00C32546843
:10555000002CB6D013888342F8D153887345F5D117
:10556000000A03280CBF2078108903E0254C022094
:1055700022706270EA88824280F00C810F490D78B7
:10558000402A45F0020E944607EBCE0028BF4FF0AC
:10559000400C04EB0C0344600293CCEB02004FEA96
:1055A0000C484FF001090022C824E9E648D7FF1F44
:1055B0000080FF1FA7D9FF1FA8D9FF1F3CD7FF1FDF
:1055C000D0D6FF1FB0D9FF1F60D7FF1F7CD6FF1FAB
:1055D00094200740C02007408800400088200740F2
:1055E000802007409820074080D6FF1FD4D6FF1F99
:1055F0003DD7FF1F6CD6FF1FC8004000D1D6FF1F4C
:10560000D0CD000040D7FF1F64D6FF1F8C2007407D
:10561000684A694C12782270ACE76849684B694A5D
:1056200002916949694C6A4D039405964FF000094F
:1056300088461C4616460495206828B1456800F047
:1056400053F92846002DF9D100232360049B3068CC
:105650001A46002342F8293028B1456800F044F981
:105660002846002DF9D100223260029A98F80030C5
:105670001146002241F8042B039A0291023B4FF09D
:10568000000122F81910032B07D8DFE803F03402D9
:1056900034024FF0010388F8003009F10109B9F133
:1056A000040F04F1040406F1040608F10108C3D153
:1056B000484B059EDFF83091DFF8308100211970EA
:1056C000012518F8013B09F8043B1A0718D4AC006F
:1056D00044F0020244F00304002347F8323047F854
:1056E00034303D4B994505F10105EAD196F800901B
:1056F00089F0010233E64FF0000388F80030CCE770
:1057000000F0D2F8AC0007EB451300F108020028C6
:1057100037D05A60314B47F8343000F0C5F844F0C8
:10572000010307EBC30200F1080100B351602C4AEA
:1057300047F83320CCE7B1F5A06F7FF4C2AE00226A
:105740004FF001090BE642F221329142F7D0B8E660
:105750006A88002A7FF4B5AE224C89000C44814649
:10576000217821F002012170F9E5022002E7194BAE
:1057700044F001021B7847F83200164A01331370D7
:10578000A6E7144B134A1B78AC00013347F83400EA
:105790001370C2E74028844628BF4FF0400C04EB4A
:1057A0000C03CCEB00004FEA0C48029300224FF0B0
:1057B0000109D9E548D7FF1F40D7FF1F24D7FF1F96
:1057C000C0D6FF1F14D7FF1F4CD7FF1FA0D9FF1F44
:1057D0006CD6FF1F3DD7FF1FD42007408800400034
:1057E000C8004000C0200740C4200740CCCD0000C6
:1057F0002DE9F843204C01F0E9FF002204F1880074
:1058000023461A605A60083383424FF00001F8D1F2
:105810001A4A1B4F13681B4D1B481C4EDFF878803B
:10582000DFF878C0DFF87890DFF878E043F4802381
:105830001360C4F307233B70C4F307432B70240E9B
:10584000FF2302F528320470114D88F8003011480A
:105850008CF80030D4323370012389F80030702680
:105860008EF800104FF40074102107F8183C2E70C9
:1058700004601170BDE8F8830080FF1F348004408D
:105880009C200740B0200740B4200740102007406C
:1058900049E400E008E100E080200740882007405C
:1058A000942007400021074072B60D480268B2FA02
:1058B00082F30B2B10DC4FF00041D94022EA0102A9
:1058C000026062B6074803EBC303DB00C218002185
:1058D000C15010465160704762B60020704700BF4B
:1058E000E4BFFF1FBCB9FF1F0D4B0E4AC31AA2FB3A
:1058F00003231B090B2B0CD80B4A127852B972B632
:105900000A484FF00041026821FA03F31A4302608B
:1059100062B67047064A1278002AF0D0FFF7BABA8A
:10592000BCB9FF1F398EE3383DD7FF1FE4BFFF1F0F
:1059300048D7FF1F38B50F4D286878B143880288D3
:10594000C118013393420C7A02D24380204638BDFD
:10595000FFF7CAFF002320462B6038BD064B1B789B
:105960002BB10320FFF762FA28600028E6D14FF040
:10597000FF3038BD5CD7FF1F48D7FF1F10B5094C5B
:10598000206818B143881844007A10BD064B1B7874
:105990002BB10320FFF74AFA20600028F2D14FF024
:1059A000FF3010BD5CD7FF1F48D7FF1F044B054ACF
:1059B0001B6890881BB11A885B88D31A18447047FB
:1059C0005CD7FF1FA0D9FF1F0B4B1B789BB110B5F5
:1059D0000A4C206848B1FFF787FF002303202360AB
:1059E000FFF724FA30B1FFF77FFF0320FFF71EFA1D
:1059F0000028F8D110BD704748D7FF1F5CD7FF1FA4
:105A00002DE9F04FDFF8F89083B0012289F80020EB
:105A1000019169B3DFF8EC80364F019E8346D8F8D8
:105A20000000B0B3344D4488C4F14001B14228BFF6
:105A3000314604EB010E00221FFA8EFE2A70761A00
:105A4000A0F802E000F1080251B1013C224459449F
:105A50001BF8014B02F8014F8B45F9D1B0F802E079
:105A6000BEF13F0F0BD8254A05211170002ED6D16B
:105A70000198002389F8003003B0BDE8F08F402280
:105A8000028001460420FFF747FA0022C8F80020F0
:105A9000E9E73A782AB3184D4AF2F9244FF0010A9F
:105AA00007E0013C16D02A78A2B900F053FC3A78FE
:105AB000BAB10420FFF7D8F90728F2D889F800A076
:105AC000FFF7F2FEC8F800000028ACD10C4B013CF7
:105AD0001870E8D101234FF0FF302B7003B0BDE800
