:1000000000800020BD0100001D640000D5630000D9
:10001000D5630000D5630000D5630000D563000000
:10002000D5630000D5630000D56300001D640000A7
:100030001D640000D56300001D640000C56300005E
:100040001D6400001D6400001D6400001D640000AC
:100050001D6400001D6400001D6400001D6400009C
:100060001D6400001D6400001D6400001D6400008C
:100070001D6400001D6400001D6400001D6400007C
:100080001D6400001D6400001D6400001D6400006C
:100090001D6400001D6400001D6400001D6400005C
:1000A000215700002D5700001D6400001D64000052
:1000B0001D6400001D6400001D6400001D6400003C
:1000C0001D6400001D6400001D6400001D6400002C
:1000D0001D6400001D6400001D6400001D6400001C
:1000E0001D6400001D6400001D6400001D6400000C
:1000F0001D640000DD8400001D640000218C0000F0
:100100001D640000919100001D6400001D6400004A
:100110001D6400001D6400001D6400001D640000DB
:100120001D6400001D6400001D6400001D640000CB
:100130001D6400001D6400001D6400001D640000BB
:100140001D6400001D6400001D6400001D640000AB
:100150001D6400001D6400001D6400001D6400009B
:100160001D640000256A00001D6400001D6400007D
:100170001D6400001D6400001D6400001D6400007B
:100180001D6400001D6400001D6400001D6400006B
:100190001D6400001D6400001D6400001D6400005B
:1001A0001D6400001D6400001D6400001D6400004B
:1001B0001D6400001D64000071780000564B4CF275
:1001C000205210B51A804DF628121A8000BF00BFC9
:1001D00006F028F9514B4FF010621A60504A9A60AD
:1001E000504ADA60504A136813F4807304D14F49BF
:1001F0000B604FF4A85313604D4B1A78110703D5C9
:100200001A7842F008021A704A4B4B492A221A7097
:100210004A4A4B4B8B4204D252F8040F43F8040B6A
:10022000F8E7484B484900228B4202D243F8042B9E
:10023000FAE74649464A002352F8230041F82300D2
:1002400001336F2BF8D1434B434A802103F8011B44
:100250009342FBD1414B3D4A1A60414B8A221A70AE
:10026000A3F5805324225A70A0221A709A7992071B
:10027000FCD59A79D406FCD43A4A937903F00C035E
:10028000082B384BF9D103221A7140225A719A79FE
:100290009006FCD5334A9179324B4906FBD5324A58
:1002A000324911600221516020221A709A7902F0BD
:1002B0000C020C2AFAD12E4B2E4A1A602E4B2F4AD2
:1002C0001A6000225A60072243F8042C2C4AC3F813
:1002D0000C2D62B606F07EFA144B1B68DA0705D5C2
:1002E000284806F0FDF9284B284A1A60284B1B784D
:1002F0005B0609D5244C254B22689A4204D121483B
:1003000006F0EEF9002323600BF0D4FB06F090F822
:1003100007F044FDFEE700BF0E200540308004409A
:10032000823F04000100002B10D0034014D0034092
:1003300002D0074000E0074048AFFF1FE4E20000A2
:1003400020A3FF1F48AFFF1FF8350020009EFF1FAE
:100350000000000000E400E05FE400E008ED00E0E1
:100360000050064000400640448004400000030165
:1003700004800440C010050014E000E0FF76010096
:10038000000020209366125C1CE00340A5C3945A31
:1003900000F00740FFFFFFFFFFFFFFFFFFFFFFFF32
:1003A000FFFFFFFFFFFFFFFFFFFFFFFFFFFFFFFF5D
:1003B000FFFFFFFFFFFFFFFFFFFFFFFFFFFFFFFF4D
:1003C000FFFFFFFFFFFFFFFFFFFFFFFFFFFFFFFF3D
:1003D000FFFFFFFFFFFFFFFFFFFFFFFFFFFFFFFF2D
:1003E000FFFFFFFFFFFFFFFFFFFFFFFFFFFFFFFF1D
:1003F000FFFFFFFFFFFFFFFFFFFFFFFFFFFFFFFF0D
:10040000FFFFFFFFFFFFFFFFFFFFFFFFDEF9FFFF23
:1004100010B5054C237833B9044B13B10448AFF33E
:1004200000800123237010BD48AFFF1F00000000B3
:10043000E8E20000084B10B51BB108490848AFF3CB
:1004400000800848036803B910BD074B002BFBD0A0
:10045000BDE81040184700BF000000004CAFFF1F70
:10046000E8E2000048AFFF1F00000000F0B40E4AB1
:100470000E4DC16000244FF07E56102728210260E7
:1004800000220781466104618461C461056245629E
:1004900080F82B10426080F8282080F8292080F80E
:1004A0002A20F0BC704700BF0000C8C218FCFFFF44
:1004B00070B50E46044680F8293011463046154680
:1004C0000BF092FA10B325616661294630460AF0B6
:1004D000C5FF4FF07E510AF0C3FF014606464FF0BC
:1004E0008C400BF079F91249A061054630460BF0BB
:1004F0005DFA10B194F829306BB910232381294695
:100500004FF07E500BF068F9E06170BD26616561C7
:1005100031462846DBE7012384F828304FF07A5132
:1005200028460BF0A5F80BF08FFA2081E7E700BF13
:100530000000484380F82A10704700BF2DE9F041C1
:1005400090F82A50044690F82B0025B300266660E8
:10055000002800F08380207B05F02CFE636894F86F
:100560002B2001361844B2426060F4DC218990FBF4
:10057000F2F0636A60608842B8BF0020A0EB03031A
:10058000B8BF6060002BB8BF5B42994240DB0025DA
:100590002846BDE8F081656000285DD0207B05F02D
:1005A00009FE636894F82B6001351844AE42606020
:1005B000F4DC94F8295090FBF6F66660002D34D0F8
:1005C00030460BF001F8E1690BF052F80BF016FA27
:1005D0000AF0FAFF21690AF043FF0BF00FFA804698
:1005E0000AF0F2FF216807460BF0D6F90028CED1B9
:1005F000636A2289F31A002BB8BF5B42934202DC84
:1006000018F1630FC3DB666227602846BDE8F081FE
:1006100060620AF0D9FFE1690BF02AF821690AF05B
:100620001FFF20602846BDE8F081236A2289F31A63
:10063000002BB8BF5B429342A9DD30460AF0C4FFED
:10064000E1690BF015F821690AF00AFF0125206025
:1006500026622846BDE8F0810646AAE7024685E7FD
:1006600070B504460E4641F6945519210C4806F023
:10067000EBFFB17C665104F1100001F03FFE6359BD
:1006800004F56360997C01F039FE04F5E55341F609
:1006900084514FF4803200209A61DA61605470BD59
:1006A0000082FF1F70B5036893F8D52D82B0044611
:1006B00002F0FF0542B141F694528258927C002A22
:1006C0002DD1284602B070BD184941F694520968F0
:1006D000019141F67850A1582658019A0889921B39
:1006E000904213D2606890F8D42D12B101F0F2FE5E
:1006F00023689A8C92B20A2A8ABF41F684539B8C53
:100700000122284688BFE25402B070BD8A7B002ACD
:10071000EFD1606890F8D42D002AE7D1E9E71846B8
:1007200001F0C4FE0025284602B070BDA8320020AA
:100730002DE9F04F41F6945A87B050F80A70BB7C0F
:1007400004460D4600F5EC5873B1D8F8000058B1D6
:100750003B7E012B00F0B980022B00F00581032BBA
:1007600002D08B4E002014E0D5F810902B7F884EDD
:10077000884909FB02F0400BC3F34103CB5CDB105B
:10078000B0FBF3F203FB1203C01AB0FBF9F309FB51
:1007900013003368039341F688523B7D0399A861A7
:1007A000A150C8F80050D4F800808BB17B7DD8F8F8
:1007B0001C90002B6BD0784948460BF015F90028A7
:1007C00065D0DFF8F0916368C8F81C90C3F81C90FE
:1007D000FB7D002B69D104F11000404500F0B6808C
:1007E00004F5E35204F5E2531832103304F5636163
:1007F00084E80F00694B4FF0804241F694581A602C
:10080000294601F02DFE54F808309A7BAAB96449B4
:10081000A06805F045F801226149E06805F040F85C
:100820003368059341F67853059AE2505D4B4FF0DB
:1008300080421A6007B0BDE8F08F1A895A4FA0684D
:10084000C2EBC202C2EB82110531A7FB01314FF0AE
:10085000FF350022C908B5FBF1F105F021F854F885
:100860000830E0681B89C3EBC303C3EB8311053178
:10087000A7FB01310122C908B5FBF1F105F010F821
:100880003368049341F67853049AE250CEE747491F
:1008900048460BF0A9F8002895D06368DFF8189156
:1008A000C8F81C90C3F81C9092E73C4B4FF0804670
:1008B0001E602946404601F0D3FD606801F00AFE43
:1008C000384B1E6007B0BDE8F08F314E027F3368B1
:1008D000019341F68853DDF8049054F803E0DFF803
:1008E000DCC02C49324BC2F3C20BC2F3410ACEEB3F
:1008F00009095CF82B2011F80AA04FEA490902FB0C
:1009000009F98269A3FB099302EB93134FEAEA0A00
:10091000B3FBFAF20AFB123283610AB19B1A8361BC
:100920002B7F32680292C3F3C20202985CF8222045
:10093000DFF87CC0D5F81090CEEB000E02FB0EF075
:10094000AA69ACFB00E002EB901015E704F5E25257
:1009500004F5E3531032183304F56360C4F80480DF
:10096000A260E360206045E72068094E02F0CAF902
:10097000D5F81090074648460AF022FE39460AF09C
:1009800077FE0BF061F854F80A702B7F0149F3E60B
:10099000A8320020D8D700000AD7634088E100E0E1
:1009A0002EBAE80208E100E0CDCCCCCCE3A58F4024
:1009B000D34D6210F111644071AC8F40DCD7000060
:1009C00038B541F694530546C3585B7D0C4653B188
:1009D0000B4920460BF008F828B10A4C95E80C00AA
:1009E000D461DC6138BD084920460AF0FDFF0028CB
:1009F000F4D095E80C00054CD461DC6138BD00BF33
:100A00000AD76340F1116440E3A58F4071AC8F4079
:100A10002DE9F04100F5EC53174A1E68337F376922
:100A2000C3F3410382B005460846D45C0AF0C8FD12
:100A30004FF064510AF01CFEE4108046B7FBF4F05E
:100A40000AF0BEFD014640460AF012FE0AF0FCFF25
:100A500004FB00F0B0FBF7F107FB1101B16128685E
:100A600001F0BEFC054B1B680193019A41F68853C7
:100A7000EA5002B0BDE8F081D8D70000A8320020CB
:100A800072B600F5E6501830037F03F0FF020BB199
:100A90000023037762B6E2B110B572B647F6FF7471
:100AA0004FF40041B0F91E20B0F92030C483018416
:100AB00062B6002B82EAE270A0EBE270B8BF5B4244
:100AC0009842B8BF18460AF07FFD03490AF084FE39
:100AD00010BD0020704700BF00FEFF4607F0D6B8EB
:100AE0002DE9F0470646002500F5B44746F8045BBB
:100AF0008046043706F1200406F5C069304600E060
:100B00002034002107F020F8A1454FF0000A44F8F6
:100B10000C5C44F8085C04F8045C2046F0D1BE424A
:100B200001D04E46E6E746F24403302208F5C040C5
:100B300008F803201449483007F006F808F5C040CB
:100B40001249583007F000F808F5C04010496830E5
:100B500006F0FAFF08F5C0400E49783006F0F4FFC1
:100B600008F5C1400C49083006F0EEFF46F29C0340
:100B700008F5C14008F803A05146203006F0E4FF14
:100B80004046BDE8F08700BFF4D70000F8D700006A
:100B9000FCD7000000D8000004D8000070B500F5B4
:100BA000C046043600F5C045041D55F8041F064B29
:100BB000002920464FF0200204F5C06401DD0BF04F
:100BC00081FBB442F1D170BDDD0A000038B50446A6
:100BD00000F5C1401830154602F048FD78B146F2E4
:100BE0009C03E35C63B12B7F13F001001CD1164919
:100BF000C3F341028A5CD210022A18D038BD38BD36
:100C00002B7FDA0712D51149114AC3F3C20451F8F8
:100C100024109142F3D9C3F341030B4AD05CC010B6
:100C2000033818BF012038BD002038BD38BD074A41
:100C3000C3F3C2034AF6444052F82330181AB0FAFC
:100C400080F0400938BD00BFF0D7000034D8000064
:100C5000905F01002DE9F04700F5C14888B00746D4
:100C6000894608F12008002605E0684602F030FFBA
:100C7000684602F003FF68460122494603F008F97E
:100C8000684602F033FF002849D0684602F0F8FEBB
:100C90000146404606F092FF684602F0F3FE002847
:100CA000E3D12E21404607F063F80130DDD107EB98
:100CB000860404F5C0440434236806EB460503EBC0
:100CC000051507EB451505F1040A524669463846F5
:100CD000FFF77CFF50B923682F2BC6DD01360F2E9E
:100CE0001ADC3B689E42C8BF3E60BEE73023AB6162
:100CF0009AF81C3043F004038AF81C306B69063BF9
:100D00006B61684602F0BCFE0146504606F056FF95
:100D1000236801332360DFE7684602F0D9FE6846A6
:100D200002F0ACFE08B0BDE8F08700BF2DE9F04F3F
:100D300000F5C145A84693B081468A46203508F1A2
:100D400008080AA80122514603F0A2F80AA802F0F6
:100D5000CDFE002800F0AE800AA802F091FE014608
:100D6000284606F02BFF5C4906A806F0EDFE06A912
:100D7000284606F0DDFF044606A806F0A5FE9CB94D
:100D80000AA802F07FFE002861D109F5C04448346A
:100D90006FF001062146284606F0D4FF58B91034FA
:100DA000444506F10106F5D10AA802F091FE0AA811
:100DB00002F064FEC5E7404606F0EAFF024609EB92
:100DC000800B0BF5C04B0F2A0BF1040B0AA802EBAA
:100DD000420733DCD9F800108A42C8BFC9F80020A6
:100DE000DBF8003003EB071709EB4717012E07F17B
:100DF000040365D9019302F067FE019B78611A7FB5
:100E000042F012021A77414606A8019306F0B0FE9E
:100E1000324906A806F01CFF294606F011FF019B87
:100E20000146184606F0C2FE06A806F04DFEDBF8A5
:100E300000300133302BCBF80030B0D10AA802F0DB
:100E400047FE0AA802F01AFE13B0BDE8F08F24494D
:100E500002A806F079FE02A9284606F069FF48B10B
:100E600002A806F031FE0AA802F032FE0AA802F03B
:100E700005FE66E71B4906A806F066FE06A9284699
:100E800006F056FF044606A806F01EFE02A806F06D
:100E90001BFE002C88D12946404606F087FE0AA991
:100EA0004846FFF743FF0AA802F012FE0AA802F024
:100EB000E5FD46E70AA802F0E1FD13B0BDE8F08FBA
:100EC0001A460AA948460193FFF780FE019B0028B5
:100ED0003FF465AF97E700BF10D8000024D80000AA
:100EE00014D800001CD80000537D70B5144646F29B
:100EF0009C0283F0010305460E4683541BB946F25B
:100F000044032022C2540D490D4802F0A9FF314686
:100F100050B92846FFF70AFFE37C03B970BD2846A5
:100F2000BDE87040FFF73ABE2846FFF793FE012365
:100F30000022A274E375237570BD00BF28D800009D
:100F4000F42E0020014B01221A70704764AFFF1F7E
:100F50002DE9F04782B01D4604460D2090460A9EBA
:100F600005F0F4F80121082005F0E0FBA97D092037
:100F700005F0DCFB04F1740703223549092005F074
:100F8000EFFA3846082104F0D1FE3846052104F076
:100F9000E3FEAA892F7D84F89070D20092B2A4F863
:100FA0008220002F37D14FF4005090FBF2F00AF06E
:100FB0000BFB04F148093B46024600214846FFF777
:100FC00077FA48460121FFF7B5FA2023A4F85030FC
:100FD0002A7C6B7C84F885301FFA88F084F88420A2
:100FE000A4F8868001380AF0EFFA012302460021B6
:100FF00004F11C00FFF75CFA164BA6611A68019217
:1010000001991B680093009AE167002362612373D2
:1010100002B0BDE8F087274695F806A007F848AB70
:10102000E8780AF0D1FA4FF07C510AF019FA8146BB
:1010300028790AF0C9FA49460AF012FA53460246DC
:1010400049463846FFF734FA4023A4F85030BFE74A
:10105000450F0000A832002010B50446A0F8861005
:10106000481E0AF0B1FA01230246002104F11C00D7
:10107000BDE81040FFF71CBA70B504461C30FFF7FE
:101080005DFAE0B1E569B4F88660002128460AF00F
:101090008DFCF0B9701E0AF097FA06460146284604
:1010A0000AF0A2FC60B130460AF0A8FCA3695A78A5
:1010B00082420CD0987094F8843063B9042070BDDB
:1010C00028460AF09BFCA3695A788242F2D100209C
:1010D00070BD0020EAE7A3690122DA70042070BD28
:1010E00070B504464830FFF729FAE8B194F8853026
:1010F000002B14BF0A250225B4F882000AF064FA16
:10110000A16C0AF0B5FA002106460AF04FFC90B92E
:101110004FF08C4130460AF067FC38B930460AF08F
:1011200093FC2061284670BD0546E5E74FF400506A
:101130002061284670BD00202061284670BD00BF98
:10114000F8B505464830FFF7F9F920B32B78A86CBD
:1011500023BB686006464FF40074AE60304609F069
:10116000DDFD08F039FB0646D5F888000F4609F08A
:10117000D5FD02460B46304639460AF08BF858B981
:10118000304639460AF016F944F40064A4B2C5F8B2
:1011900088002046F8BD04462046F8BD09F0BEFD93
:1011A00008F01AFB0AF006F9D5F88C1068600646BC
:1011B0000AF0F2FB00280CBF4FF400740024CCE7C7
:1011C00030B500F1740489B00546204604F0C6FD30
:1011D000204604F0FBFD30B1274B1B680093009BB9
:1011E000EB6701232B73204604F0FAFDB0B1224BCC
:1011F000E96F1A680192019A521A0020092A28738D
:101200002BD81A680392039A511AB1F5167F94BF2E
:10121000002040201B680493049BEB672B7BD3B119
:101220001549EC6F0B680593059A121BB2F5167FF2
:1012300011D30B680693069BA3F516731B1BB3F51E
:10124000167F13D30B680793079B40F0A000A3F50C
:10125000167380B2EB6709B030BD1A680292029A29
:10126000521AB2F5167FCCD21020D3E740F02000FE
:1012700080B209B030BD00BFA832002038B50446A6
:10128000FFF7FAFE94F8903005462046CBB1FFF701
:1012900057FF0543A4F880502046FFF791FFB4F8AC
:1012A0008030094A1843137880B2A4F880000BB943
:1012B000C30603D540F48070A4F8800000231370A7
:1012C00038BDFFF70DFFE4E764AFFF1F10B4094B13
:1012D000094A1B68948883B0002101930346106873
:1012E000019A986018469C8119705A6003B010BC2E
:1012F000704700BFA832002048D8000008B501217F
:101300000B2005F013FA0121062005F00FFA012148
:10131000052005F00BFA0121042005F007FA012150
:101320000320BDE8084005F001BA00BF10B5032056
:101330000C4601F0010105F0E5F9C4F34001042079
:1013400005F0E0F9C4F38001052005F0DBF9C4F3F2
:10135000C0010620BDE8104005F0D4B910B50C4618
:10136000B1FA81F14909032005F0CCF9A4F101019A
:10137000B1FA81F14909042005F0C4F9A4F1020190
:10138000B1FA81F14909052005F0BCF9A4F1030186
:10139000B1FA81F149090620BDE8104005F0B2B963
:1013A0000B2005F0AFB900BF10B50446203002F0A5
:1013B00065FB204610BD00BF38B504460B4DC4F890
:1013C000305E00F5E050183006F07EFB04F6586001
:1013D00002F054FB256104F6F85006F075FB04F1A9
:1013E000380002F04BFB204638BD00BF68D9000032
:1013F00070B5064600F5C14004460834203006F5B5
:10140000C04506F061FB4835204606F05DFB2DB176
:10141000103C204606F058FBA542F9D1351D0AD0F4
:1014200006F5C0440434A54205D0203C204606F011
:101430004BFBA542F9D1304670BD00BF08B5002076
:1014400004F07EFF074B1B68984204DC064B012228
:101450001870DA7008BD00210846BDE8084004F0A5
:1014600089BF00BF28CEFF1F00A4FF1F38B50A2187
:101470001D4802F0E3FB10B10125284638BD0621C6
:101480001A481B4C06F000F81A4806F0C5FA21E08D
:101490001948FFF763FF142005F04EF9217816482C
:1014A00001F00301FFF75AFF142005F045F92378F6
:1014B000124801331021237005F0E6FF2B460A2263
:1014C00021780C4806F0B8FA0A4806F0A5FA237805
:1014D000042BD2D80A21044802F0B0FB0F210546A4
:1014E0000028D5D0C8E700BFF42E0020DCD80000CB
:1014F00018CEFF1FD8330020BCCDFF1FE4D800005A
:10150000F0B5574D57488DB0FFF7F8FE297855488C
:10151000FFF724FF5449554A08681378C40443F080
:10152000010109D58B4207D0514E52484FF4A277A2
:101530004FF40074376004604B4811700068C004B9
:1015400043F0050309D58B4207D04B4C4B494FF470
:10155000A2764FF40070266008601370FFF786FFD4
:101560000446002866D021464548464C02F056F80D
:10157000012304A8444A454902F0FEFB04A9204681
:101580003F4AFFF7B1FCFFF759FF3D494048FFF7DD
:1015900067F82668002E3ADB06F5C050013004EBF0
:1015A000800004F5C043002253F8041F98420A4407
:1015B000FAD162B32B78334F03F5C05204EB8202A9
:1015C00019465268A2B946F2040110467F5809E054
:1015D000CBB203F5C052B34204EB82024FF00100DC
:1015E00025D05268591C002AF2D0002834D119465F
:1015F00001EB410104EB412400956169204B254832
:10160000FFF7A6FC04A802F039FA0DB0F0BD224B9A
:1016100029781B680393214A039E2148166001F52F
:10162000C05304EB830301265A680660E0E73A469C
:101630000023D7E709211B4805F026FF1A4806F0CA
:10164000EBF90921174805F01FFF174806F0E4F9E8
:10165000164B174A1A6086E72B701946C8E700BF79
:1016600000A4FF1FBCCDFF1F3C800440D4330020EA
:1016700018B0044008C0044014B0044004C0044042
:10168000D8CDFF1F28CEFF1F24D80000F42E002045
:1016900000B0FF1F68AFFF1FA8320020D0CDFF1F92
:1016A000FCAFFF1F5CD80000D83300200CED00E039
:1016B0000400FA0510B50E4B0E4C587909F084FF62
:1016C0000146A06809F0CAFE0B490AF085F809F046
:1016D00025FB02460B4600204FF0804108F004F93C
:1016E00009F068FEBDE8104001460448FFF768B9FC
:1016F000D8CDFF1F68AFFF1F0000404100B0FF1FA3
:101700001B4A116851B330B51A4C194D2378013377
:10171000DBB29942B8BF0023237003F5C05302EB3C
:10172000830383B05968D1B1A378124A12488B421F
:10173000A8BF01F1FF3389B2A8BF9370FFF78CFCFB
:101740000E4A0F4B12680192019A1A602178012308
:101750000020E37004F00EFE03B030BD7047FFF7C9
:10176000CFFF237803F5C05305EB83056968DBE7FA
:1017700028CEFF1F00A4FF1F68AFFF1FA832002064
:1017800098CDFF1F70B5364882B0FFF777FD86060B
:10179000044609D5334B1A7822B342064BD5324959
:1017A00000220A701A7005E045061FD52D4B1A78E5
:1017B000002AF4D12D4D2A7D04F480739BB2F2B13E
:1017C0001E1C18BF012614F4306F04D0002B44D126
:1017D0001E46FFF76FFF16B1254BD97809B3204697
:1017E00002B070BD01221A70FFF78AFF2006E1D512
:1017F0001C4B1B78002BDDD0FFF782FFDAE714F4D7
:10180000847FECD0002BE7D06107194B03D4987884
:101810005978884212D00121D970E2B9D9780029CB
:10182000DDD12B7D8BB90E4B12481969FFF7F0F80B
:10183000204602B070BD0306DED4BBE70E480F4958
:101840000068019001980860E7E70A48FFF7E0F8B0
:10185000204602B070BD0126BBE70122D4E700BFDD
:1018600068AFFF1F20CEFF1F19CEFF1FD8CDFF1F6F
:1018700000A4FF1F00B0FF1FA8320020D4CDFF1F1F
:10188000F0B52D4C2D4D23682A6885B00193019B3E
:101890009B1A312B3DD9236829490293294A029B7F
:1018A000096852895B1A9A4233D82748FFF7E8F84B
:1018B0004FF0814109F0DCFE002106460AF08AF86B
:1018C00048B34FF07C51304609F0CAFD0AF096F853
:1018D00009F012FA02460B4600204FF0804108F052
:1018E00003F80022002306460F4609F0F1FCD0B1B0
:1018F0000022164B3046394609F0B2F809F012FDC5
:10190000411EC9B21248FFF711FD23680393039BE0
:101910002B6005B0F0BD4FF07C51304609F09EFDC4
:101920000AF06CF8D4E70022084B3046394609F03B
:1019300095F809F0F7FCE3E7A83200201CCEFF1F62
:1019400098CDFF1FD8CDFF1F00B0FF1F0000E03F64
:10195000BCCDFF1F70B52E4C2E4A2368116886B08F
:101960000093009B5B1AFA2B03D923680193019B18
:101970001360294D2B78E3B1284E29480121FFF748
:101980000FFD3378002B30D0236826490393039B47
:101990000A681F489B1A272B2DD903680493049BC0
:1019A0009B1A4F2B2DD903680593059B0B6006B03E
:1019B00070BD23681C4A0293029B11681848174E99
:1019C000591A09298CBF00210121FFF7E9FC33785E
:1019D000002BD9D1154BDB7B002BE8D02B78002BCB
:1019E000E5D1FFF74DFF06B070BD114B0C481978DB
:1019F000FFF79CFCEBE70F210948FFF797FC06B0C7
:101A000070BD00210648FFF791FC06B070BD00BF15
:101A1000A832002024CEFF1F20CEFF1F19CEFF1FAB
:101A2000BCCDFF1FD0CDFF1FD4CDFF1FD8CDFF1FD2
:101A300000A4FF1F70B5364B1B6884B0002B2AD062
:101A4000344D354C2B680193019B22689B1A642B03
:101A500001D804B070BD314E31483178FFF77EFCBB
:101A6000304932780B78286802900133DBB20132BA
:101A700002F00302029832701E2B0B702060E8D136
:101A80000921294805F000FD284805F0C5FF284B2D
:101A9000284A1A60DDE7284CFFF774FEFFF75AFF6B
:101AA0002046FEF7FFFD41F68453E35CEBB9234C7F
:101AB000E378002BCDD02578A3782149637005EB1E
:101AC000450503EB05131F4A1B48126901EB43113F
:101AD0000431FEF72DFE0F4A1B4B12680392039A46
:101AE0001A600023E37004B070BD1B21174805F095
:101AF000CBFC0E4805F090FF09210B4805F0C4FC13
:101B00000A4805F089FF0A4B0A4A1A60CFE700BF6E
:101B1000FCAFFF1FA8320020D0CDFF1F21CEFF1F3A
:101B2000BCCDFF1F18CEFF1F5CD80000D8330020AB
:101B30000CED00E00400FA0500B0FF1F00A4FF1F39
:101B400028CEFF1F68AFFF1FD4CDFF1F08D90000AC
:101B50002DE9F04FDFF854B3BB4DBC4CBC4E91B0F7
:101B600004F0A6FBDBF800300693DDF818E0DBF8A4
:101B7000003007930799DBF800300893089FDBF8E3
:101B800000300993099ADBF800300A93B14B0A98A8
:101B9000C3F800E0B04BDBF800E01960AF49B04B90
:101BA0000F60B049CDF82CE01A60AF4B0B9A08607B
:101BB000AE481A6001F054FFAD4AAE49AB4809F097
:101BC00063FFAD49AD4801F0B5F8A94AAC49AB484F
:101BD00009F05AFFAB48FFF779FBAB48FEF780FFEF
:101BE000A34AAA49A84809F04FFF2A6826610023A2
:101BF000637623622376E3610AB93DE31A465369AB
:101C0000002BFBD1A24B0493536100274FF07E5869
:101C1000DFF89C929F4884F829706762C4F82C8092
:101C2000A7822786E782678684F82870C4F8109018
:101C3000A78601F015FF02233946974884F85870AB
:101C400084F85970C4F8DC8DC4F8E08DC4F8E83D20
:101C5000C4F8EC7DC4F8F07DC4F8F47D05F074FFA1
:101C600001238B48A4F8103EC4F8087EC4F80C7E0B
:101C7000C4F8147EC4F8187EC4F81C7EC4F8207E14
:101C8000A4F8247EC4F8287EC4F82C7E00F028FB3B
:101C90002A6884F8397EC4F8407E84F8387EC4F817
:101CA0003C7EC4F8306E684B0AB9EAE21A465369C2
:101CB000002BFBD1794B03935361DFF8F881C4F813
:101CC000309E00274FF07E5AA8F6A85084F8497E2F
:101CD000C4F8447EC4F84CAEA4F8347EA4F8507E18
:101CE000A4F8367EA4F8527E84F8487EA4F8547E88
:101CF00001F0B6FE404641F6FC3241F608430221AF
:101D000084F8787E41F60C4E84F8797E44F802A07F
:101D100040F818AB41F61042E15041F61443394601
:101D200044F80E70A750E75005F00EFF41F62C4E18
:101D300041F6344141F6384241F63C4341F62840F1
:101D400044F80E706750A75041F6484141F64C42A6
:101D5000E75041F6444E41F630432750C8F84070F2
:101D6000A8F55D604FF001096750A75024F8039073
:101D700024F80E7000F0B4FA41F6584041F6594389
:101D800041F65C414246275441F6504004F8039026
:101D900008F1740367502650394642F8603F3846D0
:101DA00008F1590800E0136843F8210098F8003062
:101DB00001318B42F7DC2A68234B0AB965E21A46E7
:101DC0005369002BFBD1364B0193536141F6884098
:101DD000344A225041F66448002041F6544C41F602
:101DE000564E41F6504944F808002F4924F80C009B
:101DF00041F6684841F6844324F80E0041F6784CD9
:101E000041F6814E44F809104FF0FF3944F808902C
:101E10004FF00108E05004F80E80034644F80C60CF
:101E200002F81C0CA2F11B07A2F1140E01E0DEF86F
:101E3000002042F823003A7801339A42F7DC2A68FE
:101E4000014BD2BB25E200BFA833002000B0FF1F2A
:101E500058D80000CCCDFF1F24CEFF1FD4CDFF1FCC
:101E6000D0CDFF1F98CDFF1F1CCEFF1F9CCDFF1FA5
:101E7000FCA3FF1F7D3A000024D90000D8CDFF1F2E
:101E8000A9130000BCCDFF1F28CEFF1FF1130000D7
:101E900010B0FF1F38B0FF1FF8BDFF1F30BEFF1F7F
:101EA00050CCFF1F9CCCFF1F54DE0000A832002046
:101EB00068D9000000CCFF1F1A465369002BFBD1E4
:101EC000654B02935361DFF8A8914A4641F6B0434F
:101ED00042F8286B41F68C4E41F67C47E2500023D5
:101EE00041F67E4044F80E3041F6784EE35341F619
:101EF0009047235241F6A84841F6A94041F6AC4C20
:101F000044F80E104FF0FF31E1510421215404F840
:101F1000083044F80C30184609F1090109F110079E
:101F200000E03A6842F823000A7801339A42F8DC6C
:101F30002A684A4B0AB9B0E11A465369002BFBD113
:101F4000C2F814904649474BC9F8003041F6B847EB
:101F50004FF480300A4641F6BC43E05141F6C44795
:101F6000E05041F6B44842F8300B41F6E84341F600
:101F7000A44E41F6A64CE051002044F8080024F895
:101F80000E00E25041F6D84841F6E44341F6E14EF6
:101F900024F80C004FF0010CE05081F820000346BB
:101FA000074644F8086001F1210004F80EC028310A
:101FB00000E00A6842F82370027801339A42F8DCA4
:101FC0002A68264B0AB96BE11A465369002BFBD1EC
:101FD000DFF8A0A0C2F814A041F6DC4E002341F6C1
:101FE000DE4724F80E3041F6045041F6D84E1E4923
:101FF000E35341F6EC4C41F6F64744F80E102354F7
:1020000047F6FF7141F6F840184A44F80C30E153A6
:1020100041F60C5841F6055141F6085C41F6FC4E7C
:102020004FF4004727520120605444F80E6044F8F2
:10203000082044F80C30A2F10F00A2F1080619465E
:1020400000E0326842F82310027801339A42F8DC4B
:102050002A68024B8AB928E178CCFF1FA8330020F8
:10206000C0CCFF1F60DE000048DE000014CDFF1F63
:10207000A0CCFF1FD8CCFF1F1A465369002BFBD101
:102080008C4B059353618C4F8C4A8D4E41F6105307
:1020900000253846E55041F6025141F6FC4320F850
:1020A0000459E250655203F02DFD41F6215341F6EB
:1020B000245141F61852E554655041F61C530499D9
:1020C000A15087F82050019AE25007F1180005F05E
:1020D0009FFB41F6305241F6315341F63451A5543D
:1020E00041F62852E554655041F62C530399A1500E
:1020F00007F128000299E15005F08AFB41F64153AF
:1021000041F64451E55441F6385241F63C5387F8C4
:102110004050655007F138000199A15044F80390F0
:1021200005F076FB41F6545141F6505241F64853C2
:1021300065500299E150A55441F6515341F64C5275
:102140004FF0010807F1480044F8029004F80380BA
:1021500005F05EFB41F6615341F66452E55441F6E9
:10216000585387F8605044F8039041F65C53A550EB
:1021700007F15800059AE25005F04AFB41F670520B
:1021800041F67153A554E55441F6745141F6685235
:1021900041F66C5307F1680044F8029044F803A03C
:1021A000655005F035FBDBF800300E930E9ADBF836
:1021B00000300F93A7F5E850019B049F059241F66C
:1021C000785C2760A360039F029B676041F67C52A6
:1021D00041F68451E36041F68C5A059BDDF83CE002
:1021E00044F80C3041F68E5941F68857A554655491
:1021F0004FF00203334A344944F807E084F8483E7C
:1022000084F8288024F80A5004F8095009F03CFCAE
:10221000DBF800300C930C9A7261002306F11C006D
:1022200016217360B36086F8008035733561FEF760
:102230001DF9142106F14800FEF718F906F17400A3
:1022400003F06CFDDBF800300D930D9A1F4BA6F8E0
:102250008050A6F8828086F8848086F88580A6F86B
:10226000865086F89050B561F267C6F88830C6F897
:102270008C3011B0BDE8F08F04F1100304932B6093
:10228000C3E4134A03921A6017E5124A01921A60D6
:102290009CE5114A02921A6015E6C3F8009051E6D7
:1022A000DFF838A0C3F800A096E6024A05921A604B
:1022B000E9E600BFFCCCFF1F00CDFF1F6CDE000075
:1022C00068AFFF1FFCA3FF1FB91300000000C8C2C6
:1022D00030BEFF1F50CCFF1F78CCFF1FD8CCFF1F94
:1022E0000346002280F8D42D034983F8D52D00F64B
:1022F000E8509A8405F062BC38D9000072B680F8C4
:10230000D61D62B6704700BF70B5044688B000F6AF
:10231000E85016460D4605F049FC72B6002E52D123
:10232000684601232A682A4901F026FD08AA029B73
:1023300012F8140D9DF8041084F83400236384F817
:102340002C1004F1350304F1420012F8011F03F8C8
:10235000011B8342F9D1079B6364684601F08EFB41
:102360002B696A69C4F8FC2DC4F8F83DC4F8043E32
:102370002B7F1849184A13F0010F14BF02230123C1
:10238000A4F8003E2B7FC3F34103CB5CDB10C4F801
:10239000D83D2B7FC3F3C20352F8230009F010F994
:1023A0000E4909F019FA0023C4F8CC0DC4F8DC3D3D
:1023B000C4F8E03DC4F8E43D84F8D53D637662B6E8
:1023C000012008B070BD04F1280001F081FBA7E7EF
:1023D000F42E002034D900004CD9000000442C47D2
:1023E0002DE9F04100F12805044628460E4601F08B
:1023F0007DFB58B3194FD4F8FC1D3B8806EB010850
:1024000033BB5E2001F07CFA72B64146284601F0EB
:1024100049FBD4F8F82D0023961B0122C4F8E03DB7
:102420000546C4F8DC3DC4F8046EC4F8E43D6376A8
:1024300084F8D42D84F8D53D62B65E2001F046FACA
:102440003B88013328463B80BDE8F081BDE8F08140
:10245000013B9BB23B80002BD3D0D5E7A0320020BC
:1024600070B504460D46084604F6E85105F00EFC2A
:1024700098B1012229462046FFF746FF064618B9C3
:1024800084F84900304670BDA9692046FFF7A8FFCF
:10249000002384F84930304670BD84F84900A969AA
:1024A0002046BDE87040FFF79BBF00BF10B5044653
:1024B00072B6D0F8FC1D283001F0F4FA012384F83C
:1024C000D43DD4F8F82DC4F8042E002384F8D53D6B
:1024D00062B610BD72B690F8D43D0BB962B67047C3
:1024E000002380F8D43D62B6704700BFF8B5D0F83D
:1024F000E42DD0F8DC3DD0F8046E0D46C2F55862EC
:10250000EB1A002192B29E420446C0F81C1EA0F8AD
:10251000142E35DA90F8D63D93BB964240F3958061
:10252000D4F8E41D04F1280521444A31284601F07D
:10253000B1FA471CC4F81C0E00F0FA80D4F8043E2F
:102540000021B342C4F8E41DC0F2BE80321A002A52
:1025500040F32E8104F14A0192B2284601F09AFA22
:10256000411C00F03581D4F81C3EC4F8E40D184439
:10257000D4F8043EC4F81C0E1B1AC4F8043E7BE0D9
:10258000954247DD964280F2E280D4F8E41D04F1E2
:1025900028072144B2B24A31384601F07BFAC4F828
:1025A0001C0E013000F0C980D4F8FC1D384601F043
:1025B00079FAD4F81C1EB4F8142ED4F8E43D521A5B
:1025C000194492B22144A4F8142E4A31384601F03D
:1025D00061FA421C064600F0E280D4F81C3E334407
:1025E000EA1AC4F81C3E384692B204F14A0101F0DE
:1025F00051FA431C00F0DF80D4F81C2ED4F8F83DCB
:10260000C4F8E40D06449E1B1044C4F8046EC4F8DC
:102610001C0E31E0AE4217DAD4F8E41D04F12807AD
:102620002144B2B24A31384601F034FA461CC4F8AB
:102630001C0E00F0878094F8D63D002B40F0898076
:10264000012384F8D53D17E02E46D4F8E41D21443B
:10265000B2B24A3104F1280001F01CFA471CC4F858
:102660001C0E29D0D4F8042ED4F8E43D121A0344E9
:10267000C4F8042EC4F8E43D411C22D0637E03BBA1
:10268000D4F8DC2D554BD4F8041E1044C4F8DC0DEE
:10269000D4F8E40DC209A3FB02324FF4586303FBE4
:1026A0001203C4F8E43D238C01339BB22384012040
:1026B00049B984F8D50DF8BD637E002BD2D1012332
:1026C00063760020F8BDF8BD1A1A002A0EDD92B21A
:1026D00004F14A01284601F0DDF9421C70D0D4F81B
:1026E0001C3EC4F8E40D1844C4F81C0ED4F8FC1DBC
:1026F000284601F0D7F9D4F81C3ED4F8E41DF61AA8
:1027000021442846B2B24A3101F0C4F9431C5BD0DF
:10271000D4F81C1ED4F8E43DD4F8F82D0844921BDC
:102720001E44C4F81C0EC4F8042EC4F8E46DA3E7DC
:10273000637E002B7FF402AFC1E7637E002B7FF442
:1027400033AFBCE7637E002B7FF475AFB7E72E464F
:10275000E6E6D4F8FC1D384601F0A4F9D4F8E41DEF
:10276000D4F81C3ED4F8042E0B44E118AA1A3846BB
:102770004A3192B201F08EF90346013013D0D4F8F9
:102780001C0ED4F8E41DD4F8F82D18440144D31AD3
:10279000C4F81C0EC4F8E41DC4F8043E6CE7637E64
:1027A000002B7FF41AAF01236376D4F81C0E63E785
:1027B000C4F8E41DE0E6637E002B7FF41DAFF2E772
:1027C000637E002B8BD1EEE7637E002BA0D1EAE77E
:1027D000637E002B7FF4C7AEE5E700BF63427B0951
:1027E0002DE9F04F838C9BB2642B83B00ED890F808
:1027F000D43D5BB190F8D63D7BB990F8D53D43B15F
:102800000022012380F8D42D80F8D53D03B0BDE827
:10281000F08FD0F8043E002BF2D0044604F040FFC5
:1028200007460028F2D0012384F848300023E069ED
:10283000C4F81C3ED4F8CC1D08F01AFFC4F8D00D23
:10284000D4F8D00D4FF0864108F012FF08F066FA78
:1028500006F03AFF80468946D4F8D80DB4F800AEA9
:1028600008F04AFA42464B4608F0ACFA8046504619
:10287000894608F041FA0B4602464946404608F0B0
:10288000A1FA08F04FFDD4F8DC3DB0F5586FC8BF91
:102890004FF458608342C4F8180EC0F285804FF0A0
:1028A00086498026D4F8D05D4FF00008C4F8088E21
:1028B000C4F80C8E504608F087FE294608F0D8FE72
:1028C000494608F0D5FE8146D4F8D80DD4F8E0BDCD
:1028D00008F07AFE494608F0CBFE0546584608F057
:1028E00073FE0146284608F0BBFDD4F8D83D022B04
:1028F00007F1040500F0C080D4F8D83D032B00F0A8
:102900002581802E00F0B380D4F8D80D08F05CFE4D
:10291000494608F0ADFE09F097F87F2EC4F8100E76
:102920000AD8C6F17F0292B205EB4202AB1E00212B
:1029300023F8021F9A42FBD194F8D63D13B9012324
:1029400084F8D53DD4F8E02DD44B0244C4F8E02DF2
:10295000D4F8E02D83FB0231D317C3EBA1234FF44E
:10296000586101FB1323C4F8E03DD4F8DC3D181A8C
:10297000C4F8DC0D00223946204604F001FF384639
:1029800004F0DAFE002384F84830638C01339BB2F4
:102990006384637E1BB1A38C01339BB2A3840023A9
:1029A000637603B0BDE8F08FD4F8D83DDB010AFBB5
:1029B00003F38342C5BFD4F8D81DC90101460AFB01
:1029C00001F12046FFF792FDD4F81C3E002B30DBCE
:1029D000D4F8182E93422CDAD4F8DC0DB4F800AEFB
:1029E000D4F8D83D0AFB03F390FBF3F008F084F928
:1029F00006F0F2FE8046D4F8D00D894608F08EF934
:102A000002460B464046494608F006FB0022A44B0E
:102A10008046894608F066FC00287FF440AF4946AE
:102A2000404608F0A7FC86B2304608F0CDFD81464E
:102A300038E7637E002B57D0A38C013300229BB272
:102A4000A38411466276BB1C07F5817223F8021F2E
:102A50009A42FBD100223946204604F091FE3846C6
:102A600004F06AFE638C01339BB26384CEE6D4F833
:102A7000180EC4F8100E65E78A4908F0ABFF00286D
:102A80003AD0002E00F0FD80AB4601E0B4F800AE75
:102A9000D4F8D01D0191404608F096FD019908F048
:102AA000E7FD08F0D1FFD4F8E03DC4F80C0E00FAC1
:102AB0000AF01844B0F5586F28BFA0F55860C4F864
:102AC000080E204408F10108B0F84A30ABF8003095
:102AD0001FFA88F39E420BF1020BD7D8731E9BB2EC
:102AE000013305EB43050CE70028A5D0B4F800AE90
:102AF0004FF086498026D5E6002E00F0C28083463E
:102B0000A84601E0B4F800AED4F8D01D01915846B3
:102B100008F05AFD019908F0ABFD08F095FFD4F8D4
:102B2000E02DC4F80C0E00FA0AF08318E218C4F87D
:102B3000083EB2F84A30A8F800300BF1010B1FFA3A
:102B40008BF39E4208F10208DCD8C7E7BAF1010F07
:102B500054496CD008F03EFF90BB002E00F09180ED
:102B60008046AA46D4F8D0BD404608F02DFD59460F
:102B700008F07EFD08F068FFD4F8E03D00EB40026D
:102B800003EB42039A1C04EB030EA1189EF84B3092
:102B900091F84A101B0208F1010843EA01431FFAA9
:102BA00088F11B0A8E422AF8023BDBD8731E9BB2C7
:102BB0000133C4F8082EC4F80C0E05EB4305A0E65B
:102BC000002E5ED0AA46D4F8D0BD404608F0FCFCEA
:102BD000594608F04DFD08F037FFD4F8E03D00EB12
:102BE000400203EB4203B3F5586F28BFA3F55863C7
:102BF000991C04EB030C04EB010E9CF84B309EF87F
:102C00004AE008F101081B021FFA88F243EA0E436A
:102C10001B0A96422AF8023BD5D8731E9BB2013399
:102C2000C4F8081EC4F80C0E05EB430569E608F06D
:102C3000D1FEC8BB2EB38046AA46D4F8D0BD4046CC
:102C400008F0C2FC594608F013FD08F0FDFED4F868
:102C5000E03D00EB400213449A1C04EB030EA11864
:102C60009EF84B3091F84A101B0208F1010843EA24
:102C700001431FFA88F11B0A8E422AF8023BDCD876
:102C800094E7D4F8D80D08F09FFC494608F0F0FC12
:102C900008F0DAFEC4F8100E43E600BFF712DA4B74
:102CA0000000604000005845002EEAD0AA46D4F843
:102CB000D0BD404608F088FC594608F0D9FC08F021
:102CC000C3FED4F8E03D00EB40021344B3F5586F67
:102CD00028BFA3F55863991C04EB030C04EB010E09
:102CE0009CF84B309EF84AE008F101081B021FFADD
:102CF00088F243EA0E431B0A96422AF8023BD6D8D2
:102D00008BE700BFD0F8182E38B5D0F8043ED0F8C5
:102D1000F84D52009342C8BF9B1AE01A08F050FCCD
:102D20000546204608F04CFC0146284608F054FDB4
:102D300038BD00BFF8B50446192200234FF4FA6EDF
:102D4000342518202281022701220E46A0706071CE
:102D5000A4F80AE0A7812370E370A3736374A374DB
:102D60002375A375E375237665702571A271E273EF
:102D70002274E274627504F1200000F071FEE661D5
:102D80002046F8BD2DE9F04188B00D460646E449DD
:102D90006846174604F0D8FE6946284604F08CFFC2
:102DA000002800F04281684604F08EFE04AC3946EB
:102DB000204604F0DDFE204604F0EAFFA0F1010009
:102DC000B0FA80F04009B073204604F07DFED5498A
:102DD000684604F0B9FE6946284604F06DFF0028F5
:102DE00000F03682684604F06FFE384604F0D0FFEB
:102DF0003081CD49204604F0A7FE2146284604F044
:102E00005BFF8046204604F05FFEB8F1000F40F003
:102E10001A82C649204604F097FE2146284604F04F
:102E20004BFF8046204604F04FFEB8F1000F40F003
:102E30000582BF49204604F087FE2146284604F05B
:102E40003BFF8046204604F03FFEB8F1000F40F003
:102E5000F081B849204604F077FE2146284604F068
:102E60002BFF8046204604F02FFEB8F1000F40F003
:102E7000CF81B149204604F067FE2146284604F080
:102E80001BFF8046204604F01FFEB8F1000F40F003
:102E9000BA81AA49204604F057FE2146284604F08C
:102EA0000BFF8046204604F00FFEB8F1000F40F003
:102EB0009981A349204604F047FE2146284604F0A4
:102EC000FBFE8046204604F0FFFDB8F1000F40F005
:102ED00078819C49204604F037FE2146284604F0BC
:102EE000EBFE8046204604F0EFFDB8F1000F40F005
:102EF00063819549204604F027FE2146284604F0C8
:102F0000DBFE8046204604F0DFFDB8F1000F40F004
:102F100042818E49204604F017FE2146284604F0DF
:102F2000CBFE8046204604F0CFFDB8F1000F40F004
:102F300021818749204604F007FE2146284604F0F7
:102F4000BBFE8046204604F0BFFDB8F1000F40F004
:102F5000D5808049204604F0F7FD2146284604F03C
:102F6000ABFE8046204604F0AFFDB8F1000F40F004
:102F7000B4807949204604F0E7FD2146284604F054
:102F80009BFE8046204604F09FFDB8F1000F40F004
:102F900093807249204604F0D7FD2146284604F06C
:102FA0008BFE8046204604F08FFDB8F1000F79D1EA
:102FB0006B49204604F0C8FD2146284604F07CFEFB
:102FC0008046204604F080FDB8F1000F5BD16549D2
:102FD000204604F0B9FD2146284604F06DFE8046E7
:102FE000204604F071FDB8F1000F47D15E496846F4
:102FF00004F0AAFD6946284604F05EFE50B3684618
:1030000004F062FD3946204604F0B2FD204604F08B
:10301000BFFEA0F10100B0FA80F04009B071204677
:1030200004F052FD08B0BDE8F08104AC4F492046E1
:1030300004F08AFD2146284604F03EFE80462046E4
:1030400004F042FD684604F03FFDB8F1000F3FF484
:10305000BEAEACE64649204604F076FD2146284641
:1030600004F02AFE0546204604F02EFD684604F0D2
:103070002BFD002DC6D108B0BDE8F081384604F024
:1030800087FE3076B2E7384604F082FE3378C0B26D
:103090009842B0703CBF1846B370602884BF60236C
:1030A000B37094E7384604F073FEC0B2002840F0D5
:1030B000E380012373707BE73946204604F058FD16
:1030C000204604F065FEA0F10100B0FA80F040094E
:1030D000F075204604F0F8FC5BE73946204604F022
:1030E00047FD204604F054FEA0F10100B0FA80F044
:1030F00040093075204604F0E7FC3AE7394620469F
:1031000004F036FD204604F043FEA0F10100B0FAC1
:1031100080F040097075204604F0D6FC19E700BF26
:103120006CD9000080D9000098D90000A4D9000013
:10313000B4D90000C0D90000CCD90000D8D9000013
:10314000E8D90000FCD900000CDA000014DA000015
:103150001CDA00002CDA000038DA000044DA000043
:1031600050DA00005CDA000068DA000074D9000070
:1031700078DA00003946204604F0FAFC204604F0D4
:1031800007FEA0F10100B0FA80F04009F07420467B
:1031900004F09AFCCDE63946204604F0E9FC2046CE
:1031A00004F0F6FDA0F10100B0FA80F04009B0741F
:1031B000204604F089FCACE6384604F0E9FDB08115
:1031C00097E63946204604F0D3FC204604F0E0FDA3
:1031D000A0F10100B0FA80F040097074204604F0BC
:1031E00073FC76E63946204604F0C2FC204604F023
:1031F000CFFDA0F10100B0FA80F040093074204604
:1032000004F062FC55E6384604F0C2FD708140E6E9
:103210003946204604F0ACFC204604F0B9FDA0F18C
:103220000100B0FA80F04009F073204604F04CFC35
:103230001FE6384604F0ACFD70710AE6384604F02B
:10324000A7FD3071F5E5384604F0A2FDF070E0E529
:103250000C49204604F078FC2146284604F02CFD59
:103260008046204604F030FC684604F02DFCB8F19E
:10327000000F3FF4BEADB8E548288ABF4823707000
:10328000737095E688D90000F0B595B00646002128
:10329000684604F059FC002104A804F055FC0CA871
:1032A00001235C4A5C4900F067FD14AA9DF83400D4
:1032B00012F8143D0E9986F8240086F82C30B1627D
:1032C00006F12D0306F13A0012F8011F03F8011B65
:1032D0008342F9D1139BF3630CA806F1200400F09C
:1032E000CDFB204600F002FC002800F08B80012777
:1032F000204600F02FFBE0B1204600F049FB012FF3
:10330000C5B204A90CA82AD00A2D5FD004F030FC65
:1033100029460CA804F0AAFC014604A804F046FCC7
:103320000CA804F0D1FB2046022700F013FB002874
:10333000E2D1029B6BBB204600F0CAFB337E0BBB85
:10334000337D002B3CD0032333760123F37504A88F
:1033500004F0BAFB684604F0B7FB15B0F0BD3D2D94
:1033600069460DD004F004FC29460CA804F07EFC4C
:103370000146684604F01AFC0CA804F0A5FBB7E768
:103380000227B5E7737D002BDFD1337D002BDCD125
:10339000DDE7069B002BCED0694608A804F0E8FBC9
:1033A00004A90CA804F0E4FB0CAA08A93046FFF716
:1033B000E9FC0CA804F088FB08A804F085FBBAE738
:1033C000737D01223276002BBFD1C0E7694608A881
:1033D00004F0CEFB04A90CA804F0CAFB0CAA08A9AF
:1033E0003046FFF7CFFC0CA804F06EFB08A804F0F1
:1033F0006BFB0A49684604F0E1FB084904A804F0A5
:10340000DDFB74E71A21064804F03EF8054804F095
:1034100003FB93E788DA0000F42E00208CD800002C
:1034200098DA0000D833002030B52D2189B0054648
:10343000694804F029F8694804F0EEFA68496948D7
:1034400000F01AFD68461323654A664900F094FCB3
:1034500008AA9DF8040012F8143D029985F824008A
:1034600085F82C30A96205F12D0305F13A0012F818
:10347000011F03F8011B9842F9D1079BEB6305F18B
:103480002004684600F0FAFA0A222046564900F065
:103490006DFAA97B204604F00FFB204604F0BCFA2D
:1034A0000E222046514900F061FA2989204604F095
:1034B00003FB204604F0B0FA0A2220464C4900F0F3
:1034C00055FAE97B204604F0F7FA204604F0A4FA06
:1034D0000A222046474900F049FA6989204604F04B
:1034E000EBFA204604F098FA10222046424900F0F8
:1034F0003DFA297C204604F0DFFA204604F08CFADD
:10350000112220463D4900F031FA697C204604F042
:10351000D3FA204604F080FA0F222046384900F002
:1035200025FAA989204604F0C7FA204604F074FA67
:1035300008222046334900F019FAA97C204604F0FD
:10354000BBFA204604F068FA052220462E4900F016
:103550000DFAE97C204604F0AFFA204604F05CFA4C
:103560000A222046294900F001FA297D204604F06C
:10357000A3FA204604F050FA20460B22244900F01A
:10358000F5F90023E9780A22204604F055FA20468E
:1035900004F042FA20460D221E4900F0E7F900230C
:1035A00029790A22204604F047FA204604F034FA2A
:1035B00020460C22184900F0D9F9697900230A2223
:1035C000204604F039FA204604F026FA204600F09E
:1035D0007FFA09B030BD00BFB4DA0000D833002054
:1035E00088DA0000F42E0020E4DA0000F0DA0000AF
:1035F00000DB00000CDB000018DB00002CDB00000F
:1036000040DB000050DB00005CDB000064DB0000FE
:1036100070DB00007CDB00008CDB000001B9704730
:1036200010B5C1690446064800F01AFC10B92046DE
:10363000FFF7FAFE2046BDE81040FFF725BE00BFA9
:10364000F42E002070B5064600680368DB689847D2
:103650000824054630680368DB689847A0400834B2
:10366000202C45EA0005F5D1284670BD2DE9F84328
:103670000B68016004469B6808461646984718B9CF
:1036800001252846BDE8F8830421206800F00AFAE5
:10369000054618B900252846BDE8F8832046FFF7FF
:1036A000D1FF2046FFF7CEFF5F4B9842F2D1204674
:1036B000FFF7C8FF5D4B984218BF994611D02046CE
:1036C000FFF7C0FF27688046384600F0F5F908EBA1
:1036D0000001384600F0E6F92046FFF7B3FF484501
:1036E000EDD1206803689B6898470028D2D0204617
:1036F000FFF7A8FF074620680368DB689847206843
:103700000368DB68984720680368DB689847804651
:10371000206803685FFA88F8DB689847B8F1020F01
:1037200070D02046FFF78EFF414BA3FB00235B0BBD
:1037300042F6113202FB1302002A4AD1013BDBB2EE
:10374000032B18BFDB00327F14BF5BB2102313437F
:1037500033772046FFF776FF20680368DB689847D9
:1037600020680368DB68984720680368DB6898472F
:10377000804620680368DB68984748EA002003B267
:103780005A0787D1327FC3F3C403013B42EA4303A4
:10379000102F33773BD8DFF8A0900BE0FFF752FFF4
:1037A00027688046384600F087F908EB0001384664
:1037B00000F078F92046FFF745FF48452046EDD157
:1037C0002046FFF73FFF3061206800F075F9706117
:1037D00057E7184BA3FB00239B0A4BF6803202FBF2
:1037E0001303002B7FF456AFA0F53B404BF67F331D
:1037F00080389842337F94BF43F0180343F020038E
:103800003377A6E7337F43F00103337789E7D4F8B2
:103810000080404600F050F9A7F1100101444046F5
:1038200000F040F9B7E700BF57415645666D742078
:103830003BC637BEF1197605646174611649174BB2
:103840000A681748F0B442F48052164F164E174DCE
:10385000174C0A601F60DE601D611C600378D90789
:1038600055BF144A144A4FF410714FF4007111609F
:103870009A0754BF114A124A5B074FF4007154BFB4
:10388000104B114B116054BF4FF410724FF4007283
:103890001A60F0BC704700BF3C80044000C002408A
:1038A000D433002001401F000110003801100078BF
:1038B00000001F8018B0044008C004401CB0044041
:1038C0000CC0044014B0044004C004405E2812D868
:1038D00070B44109084E094D56F821402A78012359
:1038E00000F01F0003FA00F08B402043134346F81A
:1038F00021002B7070BC7047D82E0020F02E0020C5
:103900005E2815D8410910B40A4C00F01F0054F885
:103910002130012202FA00F023EA000044F82100DD
:1039200028B9054803788A4023EA0202027010BCD5
:10393000704700BFD82E0020F02E002010B582B0B6
:1039400002AB026803F8011D546819460122A04722
:1039500002B010BDC06938B18369C06847F6FF7214
:10396000181A904228BF1046704700BFC36910B5AF
:10397000044643B10020187192B2E06901F042FAA6
:10398000E3691B791BB101232371002010BD10BD19
:10399000C06978B100B583B001220DF1070100F0D4
:1039A000B7FF01280CBF9DF807004FF0FF3003B0B0
:1039B0005DF804FB4FF0FF30704700BFC369C3B12F
:1039C00010B582B00446012218460DF1070100F03F
:1039D0009FFF012803D04FF0FF3002B010BDE06917
:1039E0009DF80740C168013901F066F8204602B031
:1039F00010BD1846704700BFC06908B101F08EB80D
:103A0000704700BF2DE9F04105464FF47A73134823
:103A1000AB60002328602B712B7324200C4690464A
:103A200008F08AF8E861B0B1064604F1200E20687B
:103A30006168A268E36837460FC7103474453E4694
:103A4000F5D12068386041460C2205F10D0009F0DF
:103A500015FC00236B762846BDE8F081A4DB00004E
:103A60004FF47A720449826000220160027102738D
:103A7000C2614273704700BFA4DB0000704700BF03
:103A80000D307047C06920B18079012894BF0020B3
:103A900001207047C06918B108B500F039FF08BDB2
:103AA000704700BFC06930B108B501F005F80030BB
:103AB00018BF012008BD7047C3690BB1D8687047B3
:103AC0004FF0FF30704700BFC06900B18069704798
:103AD000C36953B110B50446184600F087FEE0698B
:103AE00008F032F80023E36110BD7047C06918B1D7
:103AF0008079003018BF0120704700BF30B58BB00F
:103B000000240A460A4D8DF808400146012301A809
:103B10008DF80A40019501F035F9A04218BF012443
:103B200002D001A800F062FE20460BB030BD00BFFD
:103B3000C4DB00000AB90120704708B501F04AF95A
:103B4000003018BF012008BDF0B50E68835D2F2B33
:103B500008BF0136841902F1FF3E002523782F2B80
:103B6000274604F1010408D03BB101350C2D06F1C4
:103B700001060EF8013FF1D18719002353553B7818
:103B80002F2B04BF013687190E603878003018BF1C
:103B90000120F0BD2DE9F04F99B08846264D0695DD
:103BA00000218DF81C1083469246994644468DF8B4
:103BB0001E108DF840108DF8421001910F9506AE41
:103BC00005E000F013FEFDB1234634461E4602AA6E
:103BD00001A95846FFF7B8FF80F00102D2B24B4668
:103BE00002A905462046D04721460746012302AADE
:103BF00070B13046ADB101F0C5F8444505462046E8
:103C0000DFD10DB10FACDFE7002019B0BDE8F08FB8
:103C10004445F9D0204600F0E9FD384619B0BDE82A
:103C2000F08F444506D0204600F0E0FD012019B099
:103C3000BDE8F08F0120E8E7C4DB000038B50A4694
:103C40000121044600F0D0FA08B9002038BD251D36
:103C500028460122214601F0BBFB40B1294604F170
:103C60002C0000F02DFE003018BF012038BD0246A8
:103C70002146284601F0ACFB0028EFD1002038BDDA
:103C80002DE9F04F99B04FF00008DFF8E8A08DF86B
:103C90001C808146043106A8934601938DF81E804E
:103CA0008DF840808DF84280CDF818A0CDF83CA06A
:103CB00000F006FE06AE5D460FAF2F21284608F045
:103CC000D1FF441BE4B2294608B32B782F2B02A85E
:103CD0001BD00C2C28BF0C24224609F0CFFA18ABBD
:103CE0002344384603F8588C00F080FD012302AAD3
:103CF0003146384601F046F888B3304600F076FD8C
:103D0000334625443E461F46D7E70135D5E701989F
:103D100031797279B379B468377DCBEB05050560ED
:103D2000F068356989F8041089F80520B16989F8C7
:103D30000630F269336AC9F80C004846C9F800A099
:103D4000C9F80840C9F8105089F81470C9F818105B
:103D5000C9F81C20C9F8203019B0BDE8F08F89F8E7
:103D6000040089F806004846C9F800A019B0BDE86B
:103D7000F08F00BFC4DB0000F0B59DB005461F46C4
:103D800001A86B461446FFF77BFF009AA35C14441E
:103D9000002B42D09DF80A202F4E0A9600238DF862
:103DA0002C308DF82E30002A31D00AA83B4622460E
:103DB00001A900F0E7FF50B301A800F017FD17F0CC
:103DC000060F43D19DF82C700C9B9DF82DE01396A7
:103DD00022469DF82E408DF850708DF85240159374
:103DE0000D990E989DF83C70109E119C129B8DF8B9
:103DF00051E01691179013A928468DF86070199616
:103E00001A941B93FFF7FEFD28461DB0F0BD28460F
:103E1000FFF726FE28461DB0F0BD9DF808700E4E37
:103E20009DF809409DF80A30039A8DF8507013965A
:103E30008DF851408DF852301592049905989DF8EF
:103E40001870079E089C099B044AD2E70AA810999B
:103E500000F032FEB6E700BFC4DB000024D800004B
:103E600010B40C46002300F12C01024A204610BC7D
:103E7000FFF790BEFD3A000010B40C46002300F19D
:103E80002C01024A204610BCFFF784BE353B0000DF
:103E9000F0B505469FB00C46164604A9E06900F04F
:103EA000C9FD002845DD9DF81030002B41D0E52BE1
:103EB000F3D02E2BF1D09DF81B3003F0080303F054
:103EC000FF02002BE9D104A869461D4F8DF834206C
:103ED0008DF836200C9700F099FC33466A46E1696C
:103EE0000CA800F04FFF20B39DF835609DF83640D8
:103EF0000E9B0F9910989DF834E015978DF8596036
:103F00009DF84470129E8DF85A401793139C149B91
:103F1000189119906A4615A928468DF858E08DF831
:103F200068701B961C941D93FFF76CFD28461FB00C
:103F3000F0BD2846FFF794FD28461FB0F0BD00BF36
:103F4000C4DB0000064B074ADA62022100225960F6
:103F50009A7083F8242083F8302083F83220704749
:103F6000F42E0020C4DB000005281ED8DFE800F096
:103F700003030E1318090F4B4FF038421A60FFF776
:103F80005DBC0C4B0C4A1A60FFF758BC094B0B4A3E
:103F90001A60FFF753BC074B094A1A60FFF74EBC83
:103FA000044B084A1A60FFF749BC024B064A1A60E4
:103FB000FFF744BC482F00200320013800000138DF
:103FC00001100138032000380650003808B50121DF
:103FD000007802F097FB0E4B1A7802B908BD0D4A23
:103FE000127800211970002AF8D0D00703D50A49A9
:103FF0000A4B09681960910703D50749084B4968BE
:1040000019605307EAD5044A064B92681A6008BD46
:104010004C2F0020F02E0020E42E002000E100E0D4
:1040200004E100E008E100E0204B1A781AB10078C2
:10403000002102F067BB70B41D491E4A0C7812685B
:1040400001251D7004B372B60B78DC0707D51A4C36
:104050001A49266809681A4D31402960216099077C
:1040600007D5184C154926684968154D314021601F
:1040700069605B0707D51449104B0D689B68104CAD
:104080002B400B60A36062B6104BD968914207D0F9
:104090000F4C1C600F49DA6042F080441C611960CB
:1040A0000078002170BC02F02DBB00BF4C2F002017
:1040B000F02E0020482F002080E100E0D82E0020C4
:1040C000E42E002084E100E088E100E000C002402E
:1040D00001401F0000001F80F0B4134C134A2368F6
:1040E00082B01746009300984FF0004680B2FF253B
:1040F000136843F480631360D6625563D36A002B60
:10410000FCDABB6BDBB2FF2B0AD023680193019B67
:104110009BB21B1A8B42EBDB002002B0F0BC704755
:10412000012002B0F0BC7047A832002000C002405D
:10413000F8B50D464FF4967116460446FFF7CCFFCE
:10414000284B1A684FF0004042F4806245F040016D
:104150001A60D8621A465963D36A002BFCDA2149E7
:1041600018204FF000470A6826FA00F342F48062F4
:10417000DBB20A60CF624B63CB6A002BFCDA0838F3
:1041800010F1080FEFD155B3082D0CBF8721FF2187
:10419000144B1A684FF0004042F480621A60D862F3
:1041A0001A465963D36A002BFCDA0E4A00271646DA
:1041B0004FF00045FF21136843F480631360D5621C
:1041C0005163D36A002BFCDAB36BD8B21B06607064
:1041D00000D4F8BD0137B7F5807FECD1F8BD95214B
:1041E000D6E700BF00C002402DE9F0430023944F02
:1041F000027085B083703B6801930546884610467F
:104200000121019E02F07EFA2878012102F08EFA47
:104210002878012102F076FA8A4A136843F4805321
:1042200013600620FFF7A0FE874B884A93F800E052
:104230001268B6B2BEF1000F23D072B61978CC075F
:104240000BD5834C8348D4F800C00068DFF818E22F
:104250000CEA0000CEF80000206088070BD57E4CE9
:104260007C48D4F800C04068DFF8FCE10CEA0000AC
:104270002060CEF80400490700F19F8062B693F8F1
:1042800000E0764BD968914207D0754818607549AF
:10429000DA6042F0804018611960704A0A244FF0D9
:1042A0000040FF21136843F480631360D0625163C0
:1042B000D36A002BFCDA013C14F0FF04F2D1BEF10A
:1042C000000F14D01EF0010F03D0674A674B12682D
:1042D0001A601EF0020F03D0634A654B52681A60E1
:1042E0001EF0040F03D0604A624B92681A602846A1
:1042F000FFF79AFE07E03B680293029B9B1B9BB271
:10430000B3F5FA6F52D8002211462846FFF710FF86
:10431000012881466870EED14FF4D57208212846F5
:10432000FFF706FF430727D585F802904FF00009F5
:1043300007E03B680393039B9B1B9BB2B3F5FA6FAB
:1043400034D8002237212846FFF7F2FE4A462921B9
:104350002846FFF7EDFE68700028EAD1AB78022B03
:104360003BD02846FFF732FE4046FFF7FDFD012413
:10437000204605B0BDE8F083384A042194464FF04A
:10438000004EFF20136843F480631360C2F82CE0F2
:104390005063D36A002BFCDADCF838300139DBB229
:1043A00011F0FF016B70EDD1AA2B11D02846FFF759
:1043B0000DFE204605B0BDE8F0832F482549D0F812
:1043C00000E08968284C0EEA01010160A16055E710
:1043D0000223AB704FF08049B3E702463A212846EA
:1043E000FFF7A6FE0028E1D11C4B1A684FF00044ED
:1043F00042F48062FF201A601946DC625863CB6A7F
:10440000164A002BFBDA936B144A03F0C003C02B4F
:1044100004BF0323AB70032116464FF00044FF2076
:10442000136843F480631360D4625063D36A002B33
:10443000FCDA013911F0FF01B36BF1D191E700BF54
:10444000A83200203C800440F02E0020482F00209D
:1044500080E100E0D82E002084E100E000C00240AE
:1044600001401F0000001F80E42E002000E100E05A
:1044700004E100E008E100E088E100E0F0B4164C5F
:10448000164A236882B01746009300994FF0004601
:1044900089B2FF25136843F480631360D6625563C5
:1044A000D36A002BFCDABB6BDBB2FF2B43700BD162
:1044B00023680193019B9BB25B1AB3F5967FE9DDFC
:1044C000002002B0F0BC7047A3F1FE00B0FA80F00B
:1044D000400902B0F0BC7047A832002000C0024082
:1044E000F8B58378032B0E46044618BF4E021546D6
:1044F000FFF79AFD324611212046FFF719FE18B941
:104500002046FFF7BBFF20B92046FFF75FFD0020E4
:10451000F8BD204B2049214A1A608E4659631A463D
:1045200059631E46596305F5FD70A91C05F5FE7714
:10453000D36A13F0F00FFBD0C6F834E0B36B01F888
:10454000013C1B1201F8023C02318F42F0D105F50B
:104550000075A8420DD20F4A1646D36A13F0F00F29
:10456000FBD0B36B191200F8021BA84200F8013C03
:10457000F3D3084B0949084A196019465A63CB6AB4
:10458000044A13F0F00FFAD02046936BFFF71EFD9C
:104590000120F8BD00C00240FFFF009000041F8012
:1045A000F0B4314E33684FF0004743F4806333601A
:1045B0003D46F762344671633346511C02F20127CF
:1045C000E26A002AFCDA1A6811F8016C42F480628F
:1045D0001A60DD625E63E26A002AFCDA1A6811F88A
:1045E000026B42F480628F421A60DD625E63E7D143
:1045F0001D49CA6A1C4B002AFBDA1A684FF00045B5
:1046000042F48062FF241A601946DD625C63CB6A63
:10461000154A002BFBDA13684FF0004543F4806322
:10462000FF2413601146D5625463CB6A0E4A002BF7
:10463000FBDA13684FF0004543F48063FF241360F6
:104640001146D5625463CB6A074A002BFBDA936BA1
:10465000DBB203F01F024370A2F10500B0FA80F054
:104660004009F0BC704700BF00C0024070B504466E
:1046700071B18378032B0D4618BF4D021646FFF724
:10468000D3FC2A4618212046FFF752FD054620B1EB
:104690002046FFF79BFC002070BD3246FE212046DD
:1046A000FFF77EFF0028F3D04FF416712046FFF786
:1046B00013FD0028ECD02A460D212046FFF738FDD7
:1046C0000028E5D10B4B1A684FF0004542F4806298
:1046D000FF201A601946DD625863CB6A054A002B39
:1046E000FBDA936B13F0FF0FD2D12046FFF76EFC7D
:1046F000012070BD00C00240014B024A1A607047A1
:10470000482F00200110013838B590F90530002BF2
:1047100003DBBDE8384000F091BC0446012100698C
:1047200000F0B6FCF8B1257D104B13EB45151AD0FF
:10473000A3790F4A012B9CBFA369EB61E36912685F
:104740006B831B0CAB8232B105F1160105F1180029
:1047500090472B8B6B82637903F07F036371BDE815
:10476000384000F06BBC002038BD00BF5C2F00203B
:10477000502F002010B500F1080204460121006A04
:1047800000F070FD50B1E3693BB96379A268E26162
:1047900063F07F036371012010BD012010BD00BFD5
:1047A00070B50646FFF7E6FF98B1326AB568117C2E
:1047B00053691479023D8D40013B74B11D4402E000
:1047C00014F0FF0407D0601900F0C8FC013C002879
:1047D000F6D1002070BD336A197CB0694FF40072C5
:1047E00002FA01F30344B361012070BD82790AB972
:1047F0000020704710B50446FFF786FF18B100236C
:10480000A371012010BD002010BD00BF002270B4B4
:10481000013814462E2610F8013F202B04D0082A18
:1048200009D0651C0B55ECB201320B2AF3D10023E1
:104830000B5570BC70470E550134E4B20378F0E7B5
:1048400070B44B1E01F10A04202203F8012FA34289
:10485000FBD101380025072610F8014F2CB32E2C70
:104860001ED0164A01E09C4217D012F8013B002BE3
:10487000F9D1AE421FD3A4F121025D2A1BD8A4F1C5
:104880006102192A05F1010398BF203C0D44DBB2F7
:1048900098BFE4B22C701D46DEE7002070BC704764
:1048A0000A2EFAD008250A26D6E70B78B3F12000A5
:1048B00018BF0120F2E71846F0E700BFCCDB00008C
:1048C00038B583793BB991F82020102A0D4604466B
:1048D00003D0202A10D0002038BD022282714A8CD9
:1048E000C361530183610023012060712375256238
:1048F000A360E360236138BD03238371496AC1610A
:1049000000F11802284600F07DFC0028EBD1E2E718
:104910002DE9F04F8B4683B08179019219B143792B
:10492000DA07064604D44FF0FF3003B0BDE8F08F3D
:104930008369C26801989B1A98426CD8019B002B2E
:104940006CD002291D46DFF8E490374FDFF8E08095
:10495000316AC2F3080A42D00C79013C04EA5224BD
:10496000E4B2BAF1000F54D1002C52D1002A47D141
:10497000F269B260087C4969023A82400C4410191D
:10498000CAF500747279A542CCBFA4B22C46530676
:1049900029D4B4F5007F26D0002100F079FB00284F
:1049A000C1D00AEB090E0EEB040086450BD00BF1CB
:1049B000FF32734613F8011B02F8011F9842F9D128
:1049C000CEEB00008344F2682D1B2244ADB2F260AE
:1049D00025B3B1790229C2F3080A316ABCD1486A09
:1049E00000EB5220CCE73A689042D5D001465A46B7
:1049F000D8F80000FFF774FD002894D0A344E2E744
:104A0000084606F10802B16800F0C4FB00288AD00D
:104A1000316AB268AEE79BB201938FE7BDF904003B
:104A200003B0BDE8F08F00BF04A4FF1F5C2F00207F
:104A3000582F002038B58379012B16D9C368DA06C0
:104A40000C46054611D1202221462846FFF760FF7B
:104A500040B220280CD1237863B1E52BF3D02E2B64
:104A6000F1D0E37A1B07EED438BD4FF0FF3038BDEC
:104A7000C01738BD184638BD8379012B17D930B51A
:104A8000C36883B001220DF107010446C3F3431547
:104A9000FFF73EFF012802D0002003B030BDE368DD
:104AA00004481F3300EB4510E36003B030BD002025
:104AB000704700BF5C2F0020F8B5837913B182697D
:104AC0008A4201D20020F8BD022B0F4605461AD0BB
:104AD00007B32B6AE9681C7C4A1E04F109037C1E9B
:104AE000DA40DC40A24211D9EB69AB6005F108065F
:104AF00006E0A968286A00F04DFB013C0028E1D0DF
:104B00003246002CF5D1EF600120F8BD0029EBD032
:104B1000A41AEBE7AF60EF600120F8BD83790BB119
:104B2000FFF7F2BD184670478379012B01D00020B2
:104B30007047F0B54579AC0783B002461CD585694E
:104B40008D420C4618D3D5B12546D6681446FFF7DA
:104B5000B3FF88B1B5B9E169206A00F00BFC58B128
:104B6000E56122E000F006FC30B16FF07042A16810
:104B7000206A00F0EFFBC0B9002003B0F0BD18467A
:104B800003B0F0BD01AAA168206A00F003FB002871
:104B9000F2D0206A0F4B90F8207001994FF6F8720E
:104BA000102F08BF13469942DCD36379A279A5611F
:104BB00063F07F036371002ADED02046FFF7A4FD77
:104BC0000028D9D0B5422946204628BF3146FFF7F4
:104BD00073FFD2E7F8FFFF0F70B51D4B03EB4116D3
:104BE000F37A13F0110F02D012F0420F1ED1194BBD
:104BF00001751B680361738BB18A43EA0141C1618E
:104C0000F37A13F01803154604460DD1F369836156
:104C10000123837105F00F03002163716B06A1600E
:104C2000E1600FD4012070BD102B01D0002070BDB9
:104C300000F11802006A00F0E5FA0028F6D004231B
:104C4000A371E7E72046BDE87040FFF76DBF00BFE6
:104C50005C2F002004A4FF1F2DE9F04784B001AFB2
:104C600006460C46104639469946FFF7E9FD78B3EB
:104C70000022216A316213461546A260E260DFF825
:104C8000008108E0E52B1CD001460B22384607F0D6
:104C900031FA88B3E368A2699A421DD92046C3F36A
:104CA000431AFFF7E9FE98B10378002BEAD15DB90A
:104CB000D8F8003086F814A03361037823B10125B9
:104CC000E8E7002DFBD1F3E709F01203122B1DD00A
:104CD000002004B0BDE8F08709F01203122BF7D1D1
:104CE000A5B9A379022BF3D02046FFF759FD002880
:104CF000EED0214C357514E009F03003302BE7D0AD
:104D00004A4651463046FFF767FFE2E70121306926
:104D100000F0BEF90028DBD0347D174B13EB4414B0
:104D2000D6D020220021204607F07AFA97E8070023
:104D3000234603C3114923F8022B0D68120C1A7085
:104D40009DB104F10E0104F11000A847238AE28905
:104D500063822383E28200F071F90028B8D04A46CA
:104D6000317D3046FFF738FFB3E742F621034FF4B9
:104D700000622382E281EBE75C2F0020502F0020AD
:104D800004A4FF1F10B4847914B1002010BC704734
:104D900010BCFFF761BF00BF10B500210446FFF74C
:104DA000C3FE08B9002010BD0121206900F070F990
:104DB0000028F7D0237D064A5B01DA42F2D0E520D5
:104DC00098540021A171BDE8104000F037B900BF30
:104DD0005C2F002030B58BB000240A46084D8DF8BA
:104DE00008400146022301A88DF80A400195FFF70B
:104DF00033FF10B101A8FFF7CFFF0BB030BD00BFEC
:104E0000C4DB00002DE9F04F8B46817985B0012984
:104E10008046019206D0012388F80430002005B0B6
:104E2000BDE8F08F42799107F5D553070AD5D8F838
:104E30000C40D8F818108C4200F0C680FFF73CFEFA
:104E40000028E8D0019BD8F80C40002B00F0AF8080
:104E5000DFF8C891DFF8C8A1019F3AE0002C43D1E8
:104E6000D8F80810002940F08380D8F81C20002AC8
:104E700000F09280C8F80820C4F50076B6B2BE42B1
:104E800039D890F810E04169023A02FA0EF20D4466
:104E9000B6F5007F154435D1DAF80020954204BFFD
:104EA0004FF0FF32CAF80020584A294610685A4687
:104EB000FFF7DCFB0028AED00BF5007B4FF400744D
:104EC000D8F80C20BF1B1444BFB2C8F80C40002F08
:104ED0006DD0D8F820000579013D05EA542515F07C
:104EE000FF05C4F30804B9D0C4F50076B6B2BE42DB
:104EF000D8F80820C5D9067C4169023AB2400D4471
:104F000015443E462CB9D8F80C10D8F81820914218
:104F10001BD22846012100F0BBF800283FF47BAFEC
:104F20004C4404EB060E744520D00BF1FF31621E99
:104F30000EF1FF3511F8010F02F8010F9542F9D17A
:104F4000C4EB0E0EF3443446BAE700F077F80028BD
:104F50003FF461AF2E49CAF800500A784C4404EB84
:104F6000060E42F0010274450A70DED13446A7E70E
:104F700003AA00F00FF900283FF451AFD8F8200041
:104F8000244B90F82060039A4FF6F871102E18BF4A
:104F900019468A42FFF46EAF4046FFF7EBFB00284C
:104FA0003FF439AFD8F82000D8F8082064E7D8F8E3
:104FB0001830A3420DD298F80520C8F8184042F0E6
:104FC000800288F805200FE0019B002B7FF440AFA2
:104FD0000AE0114B98F805201B682BB1019B1BB10F
:104FE00042F0800288F8052012070AD598F80630AA
:104FF000002B3FF410AF4046FFF786FB00283FF43C
:105000000AAF019805B0BDE8F08F00BF582F00200F
:105010005C310020F8FFFF0F502F00205C2F002094
:1050200004A4FF1F00B583B002AB012203F8011DE9
:105030001946FFF7E7FE03B05DF804FB70B50F4CAF
:1050400023780BB9012070BD0D4B0E4D19682868EF
:105050000D4AFFF70BFB70B10C4E316819B90023F4
:105060002370012070BD2868074AFFF7FFFA10B1CE
:1050700000233360F3E7002070BD00BF5C310020E7
:1050800004A4FF1F582F00205C2F0020542F002065
:1050900070B50D4D2B6883420E460ED00446FFF7C7
:1050A000CDFF08B9002070BD084B094A1868214699
:1050B000FFF716FA0028F5D02C60064B197831431B
:1050C0001970012070BD00BF04A4FF1F582F0020DD
:1050D0005C2F00205C310020F8B590F82030C469C6
:1050E000102B1A4B05460E4617461B6816D004EBCC
:1050F000D1149C4216D106F07F06154A42F826705C
:105100001449287E0A78012842F001020A7018D951
:10511000A968114A0B4413600120F8BD04EB112467
:105120009C4208D000212046FFF7B2FF50B195F80D
:105130002030102B07D1F6B2054A234622F816700C
:10514000DEE70120F8BD2346D5E700BF04A4FF1F1A
:105150005C2F00205C310020542F002010B5044645
:10516000FFF76CFF78B1084B002103F5007203F8DC
:10517000011F9342FBD1054A054913780C6043F0A7
:1051800001031370012010BD5B2F00205C31002053
:1051900004A4FF1FC36801338B4218D370B590F885
:1051A0002030102B154B044616460D46C0691B686F
:1051B0000FD000EBD11098420FD105F07F01104BBA
:1051C00053F8213023F070433360012070BD00207C
:1051D000704700EB1120984207D00021FFF758FFDD
:1051E00050B194F82030102BE7D1E9B2044B33F8DA
:1051F00011303360012070BD002070BD04A4FF1F7A
:105200005C2F00202DE9F04782B002ADDFF850801E
:1052100045F8041D044691464FF0000A4FF400770C
:105220004FF6F8760CE094F82030227C0199102B90
:1052300014BF4346334607FA02F29942924408D219
:105240002A462046FFF7A6FF0028ECD102B0BDE8B1
:10525000F0870120C9F800A002B0BDE8F08700BFC8
:10526000F8FFFF0F2DE9F04F176883B06FB30137D8
:105270004FF0000AC36803F1010813B38B460646DA
:1052800091463C46002505E01C461F46F368013563
:10529000AB4216D9A04538BF0224214601AA3046A8
:1052A00038BF2746FFF776FF631CD91B48B1019A28
:1052B000002AE9D18B4510D01C46F3680135AB427A
:1052C000E8D8002003B0BDE8F08FA1F1010ABAFAD6
:1052D0008AFA07684FEA5A1ACCE7012CF1D9F36829
:1052E00001339C42EDD86FF0704221463046FFF703
:1052F000F3FE0028E5D0A74214D2013C012CE0D9EE
:10530000F36801339C42DCD8621C21463046FFF72B
:10531000E3FE0028D5D0A74204F1FF3402D0012CCF
:10532000EED1CEE7D9F8001059B10129C9D9F368F7
:1053300001339942C5D83A463046FFF7CDFE0028E2
:10534000BFD0C9F80070BAF1000F01D00137376043
:105350000120B7E701290AD9C3680133994210B483
:1053600002D810BCFFF7B8BE002010BC7047002068
:10537000704700BFF0B5022383B00546134F0360AA
:105380000C464FF6F8760FE0EB6801339C4216D8D6
:10539000FFF7A2FE98B195F82030019C102B0CBFAE
:1053A00033463B469C420DD201AA21462846FFF7D0
:1053B000F1FE2146002210B1012C2846E4D800203D
:1053C00003B0F0BD012003B0F0BD00BFF8FFFF0F38
:1053D000F8B53E4B054619601446DAB1042A01D9E6
:1053E0000020F8BD00210846FFF752FE0028F7D044
:1053F000374B03EB041292F8AE215206F0D11B3466
:1054000003EB0414D4F80A30632BE9D9D4F806402E
:10541000002CE5D000212046FFF73AFE0028DFD01F
:105420002B4AB2F80B30B3F5007FD9D1117C00299B
:10543000D6D0D389002BD3D0567B002ED0D00023DA
:1054400029762E712B74012703E009290B46297454
:10545000C6D007FA03F0B04203F10101F5D1D68AB4
:105460001B4906B94E6AB2F80EE0AE60A644C5F814
:105470001CE0B2F81110177C6984480106FB07E6AE
:1054800000F2FF1006EB60206E626861B2F8131044
:105490000F4E01B9316A241A0C4424FA03F340F682
:1054A000F4718B42EB600BD94FF6F4718B4285BFE0
:1054B000D36A6B621023202385F820300120F8BDC9
:1054C0000C2385F820300120F8BD00BF582F0020A4
:1054D0005C2F002090F8392090F83800101A70479F
:1054E00090F8383090F839209A4205D95A1C034474
:1054F00080F83820187E70474FF0FF30704700BFAB
:1055000090F8383090F839209A4286BF1B18187EE0
:105510004FF0FF30704700BF704700BFB0F85E30FB
:105520006BB190F85D30202B07D8C218013380F89A
:105530005D30012082F83B10704701230371002089
:10554000704700BF38B50546B0F85E0090B195F8D9
:105550005D301446C3F1210294420CD805F13B00A2
:105560001844224600F046FC95F85D30234485F847
:105570005D30204638BD012014462871EEE700BF9B
:1055800010B50269D378DBB2D90604463DD51021A7
:105590005806D17038D503F0040303F0FF02002B46
:1055A00051D03D49626E00230B7084F85D30002AB3
:1055B0005BD0904794F85D30002B56D02369D02201
:1055C0009A70236994F83B201A712369012284F8A8
:1055D0005C200222DA7010BD304B84F860009C42DF
:1055E0004AD02F4B9C4252D094F8391013791F297E
:1055F000DBB207D82848007820B16018013184F860
:10560000391003760223D37010BD5906C3D49178A4
:1056100001F0100101F0FF000029DDD013F00103BB
:105620001ED194F85C1094F85D00884281BF4B1C39
:10563000091984F85C3091F83B3013712369D0224A
:105640009A702269DEE7236984F83920C0229A70B3
:105650002369114A1979012111700222DA7010BDF3
:10566000C023937022691379CCE70122002384F8C8
:105670005D2084F83B30A1E7626994F86130094904
:1056800013440322187A00F06BFF2269ACE76269C9
:1056900094F861300449F3E7CC310020D031002088
:1056A0006031002009570000155700000369DB78BE
:1056B00003F0200373B190F860300133DBB2012BAB
:1056C00080F860301AD9426990F861301344187A32
:1056D00000F0C2BF70B5426903F0FF0590F8613079
:1056E00013440446187A00F0B7FFA36E5BB184F848
:1056F000385094F83900BDE87040184790F85F3092
:10570000002BE0D0704770BD0148FFF7CFBF00BF4E
:10571000D03100200148FFF7C9BF00BF6031002031
:105720000148FFF72DBF00BFD03100200148FFF72F
:1057300027BF00BF60310020F0B41049104B114A60
:105740000A6100224FF47A740F4F1048104E114D29
:105750000A710A7381F8612081F862201A711A7344
:1057600083F8612083F862204F618C609C601E6129
:105770005D6108601860F0BC704700BFD031002048
:105780006031002000600640DCDB000024DC00000B
:1057900000700640FCDB000070B50021064602F0F8
:1057A00009F8C0B1B6F91E40B6F92010031D00F586
:1057B000827533F9022B9442A8BF14469142B8BFB8
:1057C00011469D42F5D80123F48331843377BDE837
:1057D000704001F0B1BF70BD2DE9F84F8469002C15
:1057E00040D0631C06464FF0000147D001F0EEFFA9
:1057F000834600283BD0D6F81CE096F82050274F6F
:1058000002300BF5817804E0964534D2744480452B
:105810001DD0230E5A1C37F9139037F9121030F9A6
:10582000022FC4F30F2ACAF5803309FB03F30AFBE6
:1058300001331B1402FB03F3DB13E2430380002D4F
:10584000E2D1A64515D28045CEEB0404E1D1304625
:10585000B4610022594601F093FF5846BDE8F84F65
:1058600001F06ABF214601F0A5FF0028F6D1BDE88E
:10587000F88F2C46CBE74FF0FF34C8E701F09AFFD2
:1058800004460028F3D030462146002201F078FF7C
:105890002046BDE8F84F01F04FBF00BF3CDC0000E0
:1058A00072B683694BB1013304BF6FF001038361AA
:1058B000C16180F8202062B6704701238361C16115
:1058C00080F8202062B6704710B5044602F076F8E2
:1058D000204610BD024A0349034806F0D5B800BF70
:1058E000FCA3FF1FC95800003C32002038B5074D0B
:1058F000074C08482A46214606F0C6F82A462146A3
:105900000548BDE8384006F0BFB800BFFCA3FF1F44
:10591000C9580000443200204C320020024A03499A
:10592000034806F0B1B800BFFCA3FF1FC958000030
:1059300054320020024A0349034806F0A5B800BFCC
:10594000FCA3FF1FC95800005C3200202DE9F8437A
:105950004FF00008064600F118054746414630461C
:10596000002F4FD001F026FFF0B12C68B4F5803F36
:1059700007F1040100F1040E07F5827C27D05EF8E0
:10598000042B34FB02F334FB12F903F30F0209F387
:105990000F03C2EA03430A6893FA12F341F8043B87
:1059A0008C45ECD801F0C8FE08F10108B8F1040FED
:1059B00005F10405D2D1002F40D0304639460022EF
:1059C00001F0DEFE3846BDE8F84301F0B5BE07F150
:1059D0000C0100F10C0451F8083C54F8082C93FA1F
:1059E00012F341F8083C54F8042C51F8043C93FAA3
:1059F00012F38C4541F8043C04F1080401F108015C
:105A0000E9D8CFE701F0E2FE07460028CCD02868AD
:105A1000B0F5803FC8D0391D07F582740B6830FBA4
:105A200003F230FB13F302F30F0203F30F03C2EA96
:105A3000034341F8043B8C42F0D8B5E7BDE8F88356
:105A400010B5002101F0B6FE70B172B60A4B1A68AB
:105A500072B10A490C6844B11C60086062B6104615
:105A6000BDE8104001F068BE10BD086062B610BD10
:105A7000186062B610BD00BF74320020643200208E
:105A800038B5194B19491A68194C12681B79194D08
:105A90000B70A242286836BF2246A4F5807202F538
:105AA0008074C8B1011D31F9023B03F5FF437F3318
:105AB0001B1122F8023B9442F5D801F03DFE0E4B3B
:105AC0000022196829601A600C4B1B781BB10C4B23
:105AD0004FF080421A6038BD40F2FF7322F8023B5B
