:1000000000800020BD010000F5300000AD30000090
:10001000AD300000AD300000AD300000AD3000006C
:10002000AD300000AD300000AD300000F530000014
:10003000F5300000AD300000F53000009D300000CC
:10004000F5300000F5300000F5300000F53000001C
:10005000F5300000F5300000F5300000F53000000C
:10006000F5300000F5300000F5300000F5300000FC
:10007000F5300000F5300000F5300000F5300000EC
:10008000F5300000F5300000F5300000F5300000DC
:10009000F5300000F5300000F5300000F5300000CC
:1000A000912B00009D2B0000F5300000F530000082
:1000B000F5300000F5300000F5300000F5300000AC
:1000C000F5300000F5300000F5300000F53000009C
:1000D000F5300000F5300000F5300000F53000008C
:1000E000F5300000F5300000F5300000F53000007C
:1000F000F530000011500000F530000055570000A9
:10010000F5300000C55C0000F5300000F53000005F
:10011000F5300000F5300000F5300000F53000004B
:10012000F5300000F5300000F5300000F53000003B
:10013000F5300000F5300000F5300000F53000002B
:10014000F5300000F5300000F5300000F53000001B
:10015000F5300000F5300000F5300000F53000000B
:10016000F5300000DD380000F5300000F53000000B
:10017000F5300000F5300000F5300000F5300000EB
:10018000F5300000F5300000F5300000F5300000DB
:10019000F5300000F5300000F5300000F5300000CB
:1001A000F5300000F5300000F5300000F5300000BB
:1001B000F5300000F530000029470000564B4CF2A6
:1001C000205210B51A804DF628121A8000BF00BFC9
:1001D00002F094FF514B4FF010621A60504A9A603F
:1001E000504ADA60504A136813F4807304D14F49BF
:1001F0000B604FF4A85313604D4B1A78110703D5C9
:100200001A7842F008021A704A4B4B492A221A7097
:100210004A4A4B4B8B4204D252F8040F43F8040B6A
:10022000F8E7484B484900228B4202D243F8042B9E
:10023000FAE74649464A002352F8230041F82300D2
:1002400001336F2BF8D1434B434A802103F8011B44
:100250009342FBD1414B3D4A1A60414B8A221A70AE
:10026000A3F5805324225A70A0221A709A7992071B
:10027000FCD59A79D406FCD43A4A937903F00C035E
:10028000082B384BF9D103221A7140225A719A79FE
:100290009006FCD5334A9179324B4906FBD5324A58
:1002A000324911600221516020221A709A7902F0BD
:1002B0000C020C2AFAD12E4B2E4A1A602E4B2F4AD2
:1002C0001A6000225A60072243F8042C2C4AC3F813
:1002D0000C2D62B603F0DAF9144B1B68DA0705D56A
:1002E000284803F069F8284B284A1A60284B1B78E5
:1002F0005B0609D5244C254B22689A4204D121483B
:1003000003F05AF80023236006F07CFA02F0FCFEAA
:1003100004F0DEFAFEE700BF0E2005403080044006
:10032000823F04000100002B10D0034014D0034092
:1003300002D0074000E00740DCA3FF1F2C7800003C
:100340002099FF1FDCA3FF1FE8AFFF1F0094FF1FD2
:100350000000000000E400E05FE400E008ED00E0E1
:100360000050064000400640448004400000030165
:1003700004800440C010050014E000E0FF76010096
:1003800000002020B148C05C1CE00340A5C3945A83
:1003900000F00740FFFFFFFFFFFFFFFFFFFFFFFF32
:1003A000FFFFFFFFFFFFFFFFFFFFFFFFFFFFFFFF5D
:1003B000FFFFFFFFFFFFFFFFFFFFFFFFFFFFFFFF4D
:1003C000FFFFFFFFFFFFFFFFFFFFFFFFFFFFFFFF3D
:1003D000FFFFFFFFFFFFFFFFFFFFFFFFFFFFFFFF2D
:1003E000FFFFFFFFFFFFFFFFFFFFFFFFFFFFFFFF1D
:1003F000FFFFFFFFFFFFFFFFFFFFFFFFFFFFFFFF0D
:10040000FFFFFFFFFFFFFFFFFFFFFFFFDEF9FFFF23
:1004100010B5054C237833B9044B13B10448AFF33E
:1004200000800123237010BDDCA3FF1F000000002B
:1004300030780000084B10B51BB108490848AFF3ED
:1004400000800848036803B910BD074B002BFBD0A0
:10045000BDE81040184700BF00000000E0A3FF1FE8
:1004600030780000DCA3FF1F00000000002310B460
:10047000104C4172026104600372C36041B11946BD
:1004800000E0026942F82310427A01339A42F8DC14
:10049000094B1A680AB90AE01A465369002BFBD1C6
:1004A0005061002343618380C38010BC7047186093
:1004B000F7E700BF3C7200009CADFF1FF8B50F21AD
:1004C0002A482B4E2B4C2C4F2C4D04F019F80021B0
:1004D000082003F087F80021092003F083F80121A8
:1004E0000B2003F07FF80121062003F07BF80121A7
:1004F000052003F077F80121042003F073F80121AF
:10050000032003F06FF81E4ADFF884E010681D49ED
:1005100043F67053B361F36133627362A36143F2D4
:100520003336E36123626362BB61FB613B627B62E2
:10053000154C164FCEF81830CEF81C30CEF82030BF
:10054000CEF82430AE61EE612E626E620B783BB164
:1005500023789B0704D013683D685B1B182B04D8D5
:1005600013681B1AB3F57A7FF0D9F8BD0082FF1F1C
:10057000ECA7FF1F5CA8FF1F94A8FF1F24A8FF1F64
:100580009CACFF1F80ADFF1F98ADFF1FE0AFFF1FAA
:10059000B4A7FF1F70B5322482B0082002F0E0FC3F
:1005A0000644062002F0DCFC013C0544F5D1C549B7
:1005B000C54A0B680093009B10681B1A322B03D9A5
:1005C0000B680193019B1360C04CF11784FB063646
:1005D000C1EBA611042002F001FF84FB0531ED17E9
:1005E000C5EBA111032002F0F9FE082002F0B8FCCF
:1005F000400005F0BBFE0021044606F0A9F80028E3
:1006000040F04685B249204606F0C0F8002840F088
:100610001585B049204605F0FDFE06F0C1F80146FB
:10062000AD4B4EF26662D9611A62082002F098FC66
:100630000446062002F094FC0546600005F096FE94
:100640000446284605F092FEA44905F0E3FE014663
:10065000204605F0DFFE0021044606F079F8002868
:1006600040F028859A49204606F090F8002840F08E
:1006700005859849204605F0CDFE06F091F8014623
:10068000974B4EF26662D9611A62082002F068FC4C
:100690000546062002F064FC0446062002F060FCD9
:1006A0000646204605F062FE8C4905F0B3FE04467E
:1006B000304605F05BFE894905F0ACFE0146204658
:1006C00005F0A8FE0446680005F050FE01462046ED
:1006D00005F0A0FE0021044606F03AF8002840F09C
:1006E000E6847B49204606F051F8002840F0C38498
:1006F0007849204605F08EFE06F052F80146794B07
:100700004EF26662D9611A62082002F029FC0546A1
:10071000062002F025FC0446062002F021FC0646D5
:10072000204605F023FE6D4905F074FE0446304670
:1007300005F01CFE694905F06DFE0146204605F0F6
:1007400069FE0446680005F011FE0146204605F0EA
:1007500061FE0446062002F003FC05F007FE5F4937
:1007600005F058FE214605F055FE0021044605F02F
:10077000EFFF002840F0A4845549204606F006F813
:10078000002840F075845349204605F043FE06F0EA
:1007900007F80146544B4EF26662D9611A6208208E
:1007A00002F0DEFB0546062002F0DAFB04460620D6
:1007B00002F0D6FB0646204605F0D8FD474905F075
:1007C00029FE0446304605F0D1FD444905F022FEDD
:1007D0000146204605F01EFE0446680005F0C6FDF1
:1007E0000146204605F016FE0446062002F0B8FB3E
:1007F00005F0BCFD394905F00DFE214605F00AFE65
:100800000446062002F0ACFB05F0B0FD334905F0CC
:1008100001FE214605F0FEFD0021044605F098FF8B
:10082000002840F04A842A49204605F0AFFF0028FE
:1008300040F01B842749204605F0ECFD05F0B0FF91
:1008400001462A4B4EF26662D9611A62082002F014
:1008500087FB0546062002F083FB0446062002F0D3
:100860007FFB0646204605F081FD1C4905F0D2FDC0
:100870000446304605F07AFD184905F0CBFD0146E7
:10088000204605F0C7FD0446680005F06FFD0146EF
:10089000204605F0BFFD0446062002F061FB05F08E
:1008A00065FD0E4905F0B6FD214605F0B3FD044691
:1008B000062002F055FB05F059FD084905F0AAFD98
:1008C000214615E09CACFF1F90A5FF1F1F85EB5133
:1008D000A655AC464B24BE4764A6FF1F6F12833A51
:1008E00088A6FF1FACA6FF1FD0A6FF1FF4A6FF1F00
:1008F00005F090FD0446062002F032FB05F036FDBF
:10090000C74905F087FD214605F084FD0021044616
:1009100005F01EFF002840F0D883C249204605F0AC
:1009200035FF002840F09F83BF49204605F072FD47
:1009300005F036FF0146BD4B4EF26662D9611A6280
:10094000082002F00DFB0546062002F009FB0446D4
:10095000062002F005FB0646204605F007FDB049DB
:1009600005F058FD0446304605F000FDAC4905F0A1
:1009700051FD0146204605F04DFD0446680005F096
:10098000F5FC0146204605F045FD0446062002F030
:10099000E7FA05F0EBFCA24905F03CFD214605F025
:1009A00039FD0446062002F0DBFA05F0DFFC9C4925
:1009B00005F030FD214605F02DFD0446062002F02D
:1009C000CFFA05F0D3FC964905F024FD214605F049
:1009D00021FD0446062002F0C3FA05F0C7FC904949
:1009E00005F018FD214605F015FD0021044605F02F
:1009F000AFFE002840F067838A49204605F0C6FE16
:100A0000002840F02E838849204605F003FD05F0BC
:100A1000C7FE0146864B4EF26662D9611A62082013
:100A200002F09EFA0546062002F09AFA04460620D5
:100A300002F096FA0646204605F098FC784905F043
:100A4000E9FC0446304605F091FC754905F0E2FCEE
:100A50000146204605F0DEFC0446680005F086FCF1
:100A60000146204605F0D6FC0446062002F078FA3E
:100A700005F07CFC6A4905F0CDFC214605F0CAFC76
:100A80000446062002F06CFA05F070FC644905F09B
:100A9000C1FC214605F0BEFC0446062002F060FAC7
:100AA00005F064FC5E4905F0B5FC214605F0B2FC9A
:100AB0000446062002F054FA05F058FC584905F0A7
:100AC000A9FC214605F0A6FC0446062002F048FADF
:100AD00005F04CFC524905F09DFC214605F09AFCBE
:100AE0000021044605F034FE002840F0F2824D4912
:100AF000204605F04BFE002840F0B1824A492046CE
:100B000005F088FC05F04CFE01464A4B4EF2666249
:100B1000D9611A62082002F023FA0446062002F086
:100B20001FFA0546600005F021FC0446284605F042
:100B30001DFC3B4905F06EFC0146204605F01EFDFC
:100B40000021044605F004FE002840F0C08235492B
:100B5000204605F01BFE002840F07F8232492046E7
:100B600005F058FC05F01CFE0146334B4EF2666260
:100B7000D9611A62082002F0F3F90446062002F057
:100B8000EFF90546062002F0EBF90646600005F095
:100B9000EDFB0446284605F0E9FB214905F03AFC47
:100BA0000546304605F0E2FB1D4905F033FC0146E1
:100BB000284605F02FFC0146204605F0DFFC002109
:100BC000044605F0C5FD002840F06B82154920461B
:100BD00005F0DCFD002840F03E821349204605F078
:100BE00019FC05F0DDFD0146144B4EF26662D96139
:100BF0001A62082002F0B4F90446062002F0B0F9A7
:100C00000546062002F0ACF90646600005F0AEFB92
:100C10000446284605F0AAFB014905F0FBFB0FE05E
:100C20006F12833AA655AC464B24BE4718A7FF1F48
:100C30003CA7FF1F60A7FF1F84A7FF1FF8A3FF1F8C
:100C40000546304605F092FBC64905F0E3FB014638
:100C5000284605F0DFFB0146204605F08FFC0446E0
:100C6000062002F07DF905F081FBBE4905F0D2FBBC
:100C7000214605F0CFFB0021044605F069FD002860
:100C800040F00D82B849204605F080FD002840F074
:100C9000E081B649204605F0BDFB05F081FD014627
:100CA000B34B4EF26662D9611A62082002F058F91D
:100CB0000446062002F054F90546062002F050F9D9
:100CC0000646600005F052FB0446284605F04EFB40
:100CD000A44905F09FFB0546304605F047FBA149B6
:100CE00005F098FB0146284605F094FB0146204696
:100CF00005F044FC0446062002F032F905F036FB0C
:100D0000984905F087FB214605F084FB0446062040
:100D100002F026F905F02AFB924905F07BFB2146FB
:100D200005F078FB0021044605F012FD002840F094
:100D3000BC818D49204605F029FD002840F08781BF
:100D40008A49204605F066FB05F02AFD0146894BDD
:100D50004EF26662D9611A62082002F001F9044677
:100D6000062002F0FDF80546062002F0F9F80646D6
:100D7000600005F0FBFA0446284605F0F7FA7949C9
:100D800005F048FB0546304605F0F0FA754905F0D8
:100D900041FB0146284605F03DFB0146204605F093
:100DA000EDFB0446062002F0DBF805F0DFFA6D49A2
:100DB00005F030FB214605F02DFB0446062002F02D
:100DC000CFF805F0D3FA674905F024FB214605F07A
:100DD00021FB0446062002F0C3F805F0C7FA61497A
:100DE00005F018FB214605F015FB0021044605F02F
:100DF000AFFC002840F057815B49204605F0C6FC57
:100E0000002840F022815949204605F003FB05F0F7
:100E1000C7FC0146584B4EF26662D9611A6208203F
:100E200002F09EF80446062002F09AF805460620D5
:100E300002F096F80646600005F098FA0446284647
:100E400005F094FA474905F0E5FA0546304605F005
:100E50008DFA444905F0DEFA0146284605F0DAFA33
:100E60000146204605F08AFB0446062002F078F889
:100E700005F07CFA3B4905F0CDFA214605F0CAFAA7
:100E80000446062002F06CF805F070FA354905F0CA
:100E9000C1FA214605F0BEFA0446062002F060F8C9
:100EA00005F064FA2F4905F0B5FA214605F0B2FACB
:100EB0000446062002F054F805F058FA294905F0D6
:100EC000A9FA214605F0A6FA0021044605F040FCE7
:100ED000002840F0E2802449204605F057FC002815
:100EE00040F0B1802149204605F094FA05F058FC05
:100EF0000146224B4EF26662D9611A62082002F066
:100F00002FF80446062002F02BF80546062002F0D2
:100F100027F80646600005F029FA0446284605F041
:100F200025FA104905F076FA0546304605F01EFA16
:100F30000C4905F06FFA0146284605F06BFA0146A8
:100F4000204605F01BFB0446062002F009F805F0D8
:100F50000DFA044905F05EFA214605F05BFA0446F5
:100F600006200DE06F12833AA655AC464B24BE47CF
:100F70001CA4FF1F2CA5FF1F40A4FF1F64A4FF1F7C
:100F800001F0EEFF05F0F2F9544905F043FA21466D
:100F900005F040FA0446062001F0E2FF05F0E6F90C
:100FA0004E4905F037FA214605F034FA044606208A
:100FB00001F0D6FF05F0DAF9484905F02BFA214691
:100FC00005F028FA0446062001F0CAFF05F0CEF924
:100FD000424905F01FFA214605F01CFA002104469B
:100FE00005F0B6FB002856D13D49204605F0CEFB62
:100FF00038BB3C49204605F00DFA05F0D1FB01460F
:10100000394B4EF26662D9611A62082001F0A8FFDE
:10101000400005F0ABF90021044605F099FB0028DB
:1010200059D12F49204605F0B1FB002829D02F487F
:101030002F4B0022D8611A6202B070BD2B49FFF716
:10104000EFBA2A49DCE7294953E72849E2E627496C
:101050007DE6264924E62549C6E5244985E5234958
:1010600053E52249D6E4214965E42049FFF7E9BB6D
:101070001E49FFF78FBB1D49FFF741BB1B49FFF717
:10108000FFBA1849204605F0C5F905F089FBCFE7FE
:101090000021FFF7C5BA0021B2E7002129E70021AE
:1010A000FEE50021A0E50021B4E600214FE6002185
:1010B000FFF725BB0021FFF7E3BA0021FFF7C1BB13
:1010C0000021FFF767BB0021A4E4002133E40021E5
:1010D0004BE5002119E50020AAE700BF6F12833A13
:1010E000A655AC464B24BE4788A4FF1F80FFFF7F58
:1010F000ACA4FF1F2DE9F04F002285B011467948BE
:10110000794DDFF834A2DFF83492DFF83482774F7C
:10111000DFF830B2764EFFF7A9F9724B75481D60C3
:1011200000224FF4804411461C62FFF79FF9714B77
:1011300071481D60002211461C62FFF797F96E4B43
:101140006E481D60002211461C62FFF78FF96B4B41
:101150006B481D60002211461C62FFF787F9684B3F
:1011600068481D60002211461C62FFF77FF9654B3D
:1011700065481D60002211461C62FFF777F9624B3B
:1011800062481D60002211461C62FFF76FF95F4B39
:101190005F481D60002211461C62FFF767F95C4B37
:1011A0005C481D60002211461C62FFF75FF9594B35
:1011B00059481D60002211461C62FFF757F9564B33
:1011C00056481D60002211461C62FFF74FF9534B31
:1011D00053481D60002211461C62FFF747F9504B2F
:1011E00050481D60002211461C62FFF73FF94D4B2D
:1011F0004D481D60002211461C62FFF737F94A4B2B
:101200004A481D60002211461C62FFF72FF9474B28
:101210000AF12802042150461D601C624FF48034FC
:10122000FFF724F909F1280204214846CAF800B062
:10123000CAF81840CAF81C40CAF82040CAF824402E
:10124000FFF714F908F1280204214046C9F800B05C
:10125000C9F81840C9F81C40C9F82040C9F8244012
:10126000FFF704F907F1280204213846C8F800B056
:10127000C8F81840C8F81C40C8F82040C8F82440F6
:10128000FFF7F4F82A4B019306F1280204213046B7
:10129000C7F800B0BC61FC613C627C62FFF7E6F815
:1012A000019BDFF8A4E0C6F800B00020012503F19F
:1012B00018015D72B461F461346274620246C3F86D
:1012C00000E019611872D8601D4600E0296941F8F4
:1012D0002200597A164C01329142F7DC154A116806
:1012E000A9BB33E164A6FF1F8074000094A8FF1F10
:1012F00024A8FF1FACA6FF1FD0A6FF1F88A6FF1FB4
:10130000F4A6FF1F60A7FF1F18A7FF1F3CA7FF1F22
:1013100084A7FF1FF8A3FF1F2CA5FF1F64A4FF1FB6
:1013200040A4FF1F1CA4FF1F88A4FF1FACA4FF1F25
:10133000D0A4FF1F9CADFF1FECA7FF1FB4A7FF1F8A
:101340005CA8FF1F687400003C72000011464A69E7
:10135000002AFBD14B6100247D495C619C80DC80CC
:101360007C481960019300F07DFB7B497B4B0C723C
:10137000084681E808024C72CC6003F0A5F9784970
:10138000784B0C720225084681E80802CC604D7249
:1013900003F09AF97449754B0C7281E8080208460B
:1013A0004FF00303CC604B7203F08EF97049714B20
:1013B0000C724FF0010B084681E80802CC6081F8FE
:1013C00009B003F081F96C496C4B0C72084681E856
:1013D00008044C72CC6003F077F96949694B0C72D0
:1013E00081E8080408464FF003034B72CC6003F019
:1013F0006BF96549654B0C72084681E8080481F871
:1014000009B0CC6003F060F96149624B0C72084688
:1014100081E808044D72CC6003F056F95E495F4BD9
:101420000C72084681E808014C72CC6003F04CF95C
:101430005B495C4B0C72084681E8080181F809B0F1
:10144000CC6003F041F95849584B0C7281E808010F
:1014500008464FF003034B72CC6003F035F9544952
:10146000544B0C72084681E8880081F809B0CC60C2
:1014700003F02AF95049514B0C72084681E8880064
:101480004C72CC6003F020F94D494E4B0C7208466B
:1014900081E808014D72CC6003F016F94A494B4BC4
:1014A0000C72084681E888004D72CC6003F00CF99C
:1014B0004749484B0C7281E8880008464FF0030307
:1014C0004B72CC6003F000F94349084681F809B03B
:1014D000C1F800A04E600C72CC6003F0F5F83F49F3
:1014E00008460C72C1F800904E604C72CC6003F05C
:1014F000EBF83B4908464D72C1F800804E600C7213
:10150000CC6003F0E1F837494FF0030308464B7213
:101510000F604E600C72CC6003F0D6F83249019B2C
:101520000C7208460E604B604C72CC6003F0CCF835
:101530002E4B2F4A1B68039303982E4B2E491060A5
:101540000A2219601A7205B0BDE8F08F146002E734
:1015500074740000D0A4FF1F0CA5FF1F64A6FF1F1A
:101560001CA5FF1FACA6FF1FC4A5FF1FD0A6FF1F11
:1015700050A5FF1F88A6FF1F60A5FF1FF4A6FF1F31
:1015800070A5FF1F60A7FF1F80A5FF1F18A7FF1FE3
:1015900054A6FF1F3CA7FF1F94A5FF1F84A7FF1F92
:1015A000A4A5FF1FF8A3FF1FB4A5FF1F2CA5FF1FB5
:1015B00044A6FF1F64A4FF1FD4A5FF1F40A4FF1F64
:1015C000E4A5FF1F1CA4FF1FF4A5FF1F88A4FF1F95
:1015D00004A6FF1FACA4FF1F14A6FF1F24A6FF1F15
:1015E00034A6FF1FECA4FF1FFCA4FF1F9CACFF1F31
:1015F00090A5FF1FA8A7FF1F4C7400000020704794
:1016000000207047F8B5144C037A242908BFC28023
:101610005B0001250E462046C1F30721174684F8DA
:101620003B3084F85E5084F85D5001F0CFF8F1B2A1
:10163000204601F0CBF8C7F30721204601F0C6F899
:10164000F9B2204601F0C2F82946204601F00AFA14
:10165000B0FA80F04009F8BD28ACFF1F38B501256D
:1016600004460571334801F0E3F8052001F0C0FF9E
:10167000204644F260023021FFF7C4FF20466C226E
:101680002621FFF7BFFF20464FF4F9722821FFF70C
:10169000B9FF204640F622722C21FFF7B3FF204607
:1016A00044F246423C21FFF7ADFF204640F237129C
:1016B0002421FFF7A7FF204644F2FF023021FFF765
:1016C000A1FF732202212046FFF79CFF4FF4C87050
:1016D00001F08EFF204641F61D522E21FFF792FFAA
:1016E000042211462046FFF78DFF20464FF49872E2
:1016F0000621FFF787FF204610220A21FFF782FF0D
:10170000204600220E21FFF77DFF204643F63C4293
:101710001021FFF777FF204647F67F722221FFF75F
:1017200071FF204636222421FFF76CFF65722846A0
:1017300038BD00BF28ACFF1F10B5044619B1012900
:1017400011D0002010BD55222021FFF75BFF00289B
:10175000F7D0E28842F00402204692B22421BDE88C
:101760001040FFF74FBF40F273122A21FFF74AFFE4
:101770000028E6D0882220212046FFF743FF0028DA
:10178000DFD0E288204622F004022421BDE8104088
:10179000FFF738BF38B50546F1B1802903799ABF04
:1017A000C1F1800444EA0424002433B922462846C7
:1017B0002221BDE83840FFF725BFC288002322F070
:1017C000100203712421FFF71DFF22462846222123
:1017D000BDE83840FFF716BF0123037147F67F725B
:1017E0002221FFF70FFFEA8842F01002284692B24A
:1017F0002421BDE83840FFF705BF00BF0B4610B5F8
:1018000007490446184604F005FE064904F0FAFCB0
:1018100004F0C6FF01462046BDE81040FFF7BABFFE
:1018200000000143EE7CFF3E10B5044603F022F8B1
:10183000204610BD024A0349034804F0D1BF00BF4F
:10184000FC99FF1F29180000CCA8FF1F38B5074DD1
:10185000074C08482A46214604F0C2FF2A46214682
:101860000548BDE8384004F0BBBF00BFFC99FF1F2E
:1018700029180000D4A8FF1FDCA8FF1F024A034953
:10188000034804F0ADBF00BFFC99FF1F29180000FA
:10189000E4A8FF1F024A0349034804F0A1BF00BFA8
:1018A000FC99FF1F29180000ECA8FF1F2DE9F84341
:1018B0004FF00008064600F11805474641463046FD
:1018C000002F4FD002F0D2FEF0B12C68B4F5803F6B
:1018D00007F1040100F1040E07F5827C27D05EF8C1
:1018E000042B34FB02F334FB12F903F30F0209F368
:1018F0000F03C2EA03430A6893FA12F341F8043B68
:101900008C45ECD802F074FE08F10108B8F1040F20
:1019100005F10405D2D1002F40D0304639460022CF
:1019200002F08AFE3846BDE8F84302F061BE07F1D6
:101930000C0100F10C0451F8083C54F8082C93FAFF
:1019400012F341F8083C54F8042C51F8043C93FA83
:1019500012F38C4541F8043C04F1080401F108013C
:10196000E9D8CFE702F08EFE07460028CCD02868E1
:10197000B0F5803FC8D0391D07F582740B6830FB85
:1019800003F230FB13F302F30F0203F30F03C2EA77
:10199000034341F8043B8C42F0D8B5E7BDE8F88337
:1019A00010B5002102F062FE70B172B60A4B1A68DF
:1019B00072B10A490C6844B11C60086062B61046F6
:1019C000BDE8104002F014BE10BD086062B610BD44
:1019D000186062B610BD00BF04A9FF1FF4A8FF1F66
:1019E00038B5194B19491A68194C12681B79194DE9
:1019F0000B70A242286836BF2246A4F5807202F519
:101A00008074C8B1011D31F9023B03F5FF437F33F8
:101A10001B1122F8023B9442F5D802F0E9FD0E4B6F
:101A20000022196829601A600C4B1B781BB10C4B03
:101A30004FF080421A6038BD40F2FF7322F8023B3B
:101A40009442FBD8F0E700BFF8A8FF1F1F800040BA
:101A50003C92FF1F04A9FF1FF4A8FF1F00A9FF1F4E
:101A600008E200E0F8B501215148524D02F09EFE17
:101A7000514A52491368802043F480531360002474
:101A800008702C800120083401F0B2FDA3B2B3F538
:101A9000006F1CB2F5D14A4B1B685B0208D5494B5D
:101AA0001A6848F6A273134048F6A27293426DD0AA
:101AB0004349444A0B68444F444D4548454C43F420
:101AC00080030B604FF0010E40F23F4648F6A371D1
:101AD00040F20113C7F800E02E601160146003604B
:101AE000334D3D492B6800221960197C1A746FF040
:101AF0003F01587C59740C21987C99744021D87C02
:101B0000D974997D9A750124D97DDC7502204FF036
:101B1000FF316FF001065A715A729A72DA721A73B3
:101B20001A755A751A765A769A76DA765E739C71B9
:101B3000DC71187118729973D973997F29799A7722
:101B400001F18041D87FDC7701F5043106201E7F4A
:101B50001877B0205E7F5A770A70087002F0CCFDCB
:101B60002A791E4B1E4E187053119B0003F16043DF
:101B700002F01F051B49327003F5614302F11000AA
:101B8000AC40194D41F820501C60F8BD0F4B1A684D
:101B900040F23F439A428BD10B4B1B68012B87D1FC
:101BA0000B4B1A6840F201139A4281D198E700BFAB
:101BB000F8A8FF1F00C00C402C80044021C00C403E
:101BC0003C800440006003400C600340046003401C
:101BD00010600340A28F01003C91FF1F00A9FF1F6E
:101BE0001B8000400094FF1FE1190000024A0349D6
:101BF000034804F0F5BD00BFFC99FF1F2918000041
:101C0000F8A8FF1F024A0349034804F0E9BD00BFDA
:101C1000FC99FF1F2918000008A9FF1F024A034969
:101C2000034804F0DDBD00BFFC99FF1F2918000028
:101C300010A9FF1F024A0349034804F0D1BD00BFA9
:101C4000FC99FF1F2918000018A9FF1F024A034929
:101C5000034804F0C5BD00BFFC99FF1F2918000010
:101C600020A9FF1F024A0349034804F0B9BD00BF81
:101C7000FC99FF1F2918000028A9FF1F036A2DE9FE
:101C8000F04780464BB9D8F81830D8F81C2003EB41
:101C9000C213C8F81830BDE8F08702F05DFC0646B4
:101CA0000028F0D0D8F81890D8F81C70D8F820C0C8
:101CB000134D4946841C00F5817E0B0E5A1C35F9E4
:101CC000130035F91220C1F30F2ACAF5803300FB47
:101CD00003F30AFB023353FB0CF324F8023FA6453F
:101CE0003944EAD109EBC7174046C8F818703146A5
:101CF000002202F0A1FC3046BDE8F04702F078BCBB
:101D000040720000064B074ADA6202210022596045
:101D10009A7083F8242083F8302083F832207047AB
:101D20004CA9FF1F8C74000008B50121007801F058
:101D300053FC0E4B1A7802B908BD0D4A12780021E7
:101D40001970002AF8D0D00703D50A490A4B096850
:101D50001960910703D50749084B49681960530773
:101D6000EAD5044A064B92681A6008BDA4A9FF1F71
:101D700048A9FF1F3CA9FF1F00E100E004E100E0CB
:101D800008E100E0204B1A781AB10078002101F038
:101D900023BC70B41D491E4A0C78126801251D70C1
:101DA00004B372B60B78DC0707D51A4C1A492668BB
:101DB00009681A4D314029602160990707D5184CF0
:101DC000154926684968154D3140216069605B07F7
:101DD00007D51449104B0D689B68104C2B400B60C5
:101DE000A36062B6104BD968914207D00F4C1C60BB
:101DF0000F49DA6042F080441C61196000780021CC
:101E000070BC01F0E9BB00BFA4A9FF1F48A9FF1FD8
:101E1000A0A9FF1F80E100E030A9FF1F3CA9FF1F20
:101E200084E100E088E100E000C0024001401F00C2
:101E300000001F80F0B4134C134A236882B0174689
:101E4000009300984FF0004680B2FF25136843F4DA
:101E500080631360D6625563D36A002BFCDABB6BD8
:101E6000DBB2FF2B0AD023680193019B9BB21B1AA4
:101E70008B42EBDB002002B0F0BC7047012002B0C7
:101E8000F0BC70479CACFF1F00C00240F8B50D4687
:101E90004FF4967116460446FFF7CCFF284B1A689C
:101EA0004FF0004042F4806245F040011A60D86271
:101EB0001A465963D36A002BFCDA214918204FF0E7
:101EC00000470A6826FA00F342F48062DBB20A6037
:101ED000CF624B63CB6A002BFCDA083810F1080F95
:101EE000EFD155B3082D0CBF8721FF21144B1A6881
:101EF0004FF0004042F480621A60D8621A4659637B
:101F0000D36A002BFCDA0E4A002716464FF0004534
:101F1000FF21136843F480631360D5625163D36A71
:101F2000002BFCDAB36BD8B21B06607000D4F8BD8E
:101F30000137B7F5807FECD1F8BD9521D6E700BF1A
:101F400000C00240F0B4164C164A236882B017460F
:101F5000009300994FF0004689B2FF25136843F4BF
:101F600080631360D6625563D36A002BFCDABB6BC7
:101F7000DBB2FF2B43700BD123680193019B9BB213
:101F80005B1AB3F5967FE9DD002002B0F0BC704724
:101F9000A3F1FE00B0FA80F0400902B0F0BC704737
:101FA0009CACFF1F00C00240F8B58378032B0E469F
:101FB000044618BF4E021546FFF7E4FE32461121D3
:101FC0002046FFF763FF18B92046FFF7BBFF20B993
:101FD0002046FFF7A9FE0020F8BD204B2049214AEA
:101FE0001A608E4659631A4659631E46596305F5B1
:101FF000FD70A91C05F5FE77D36A13F0F00FFBD036
:10200000C6F834E0B36B01F8013C1B1201F8023C46
:1020100002318F42F0D105F50075A8420DD20F4A6A
:102020001646D36A13F0F00FFBD0B36B191200F809
:10203000021BA84200F8013CF3D3084B0949084AA7
:10204000196019465A63CB6A044A13F0F00FFAD0AC
:102050002046936BFFF768FE0120F8BD00C00240E8
:10206000FFFF009000041F80F0B4314E33684FF042
:10207000004743F4806333603D46F7623446716342
:102080003346511C02F20127E26A002AFCDA1A6880
:1020900011F8016C42F480621A60DD625E63E26AEC
:1020A000002AFCDA1A6811F8026B42F480628F424F
:1020B0001A60DD625E63E7D11D49CA6A1C4B002AC3
:1020C000FBDA1A684FF0004542F48062FF241A6080
:1020D0001946DD625C63CB6A154A002BFBDA136894
:1020E0004FF0004543F48063FF2413601146D5622E
:1020F0005463CB6A0E4A002BFBDA13684FF000459D
:1021000043F48063FF2413601146D5625463CB6AA5
:10211000074A002BFBDA936BDBB203F01F0243701C
:10212000A2F10500B0FA80F04009F0BC704700BF92
:1021300000C0024070B5044671B18378032B0D4690
:1021400018BF4D021646FFF71DFE2A4618212046ED
:10215000FFF79CFE054620B12046FFF7E5FD002075
:1021600070BD3246FE212046FFF77EFF0028F3D0E7
:102170004FF416712046FFF75DFE0028ECD02A468A
:102180000D212046FFF782FE0028E5D10B4B1A688F
:102190004FF0004542F48062FF201A601946DD626C
:1021A0005863CB6A054A002BFBDA936B13F0FF0FE1
:1021B000D2D12046FFF7B8FD012070BD00C002401B
:1021C000014B024A1A607047A0A9FF1F0110013895
:1021D00038B590F90530002B03DBBDE8384000F03E
:1021E00091B904460121006900F0B6F9F8B1257DE6
:1021F000104B13EB45151AD0A3790F4A012B9CBF46
:10220000A369EB61E36912686B831B0CAB8232B18B
:1022100005F1160105F1180090472B8B6B8263794D
:1022200003F07F036371BDE8384000F06BB9002014
:1022300038BD00BFB4A9FF1FA8A9FF1F10B500F14A
:10224000080204460121006A00F024FA50B1E36953
:102250003BB96379A268E26163F07F036371012097
:1022600010BD012010BD00BFF8B5837913B182699C
:102270008A4201D20020F8BD022B0F4605461AD033
:1022800007B32B6AE9681C7C4A1E04F109037C1E13
:10229000DA40DC40A24211D9EB69AB6005F10806D7
:1022A00006E0A968286A00F0BDF9013C0028E1D0E9
:1022B0003246002CF5D1EF600120F8BD0029EBD0AB
:1022C000A41AEBE7AF60EF600120F8BD2DE9F04FF5
:1022D0008B46817985B001298046019206D0012381
:1022E00088F80430002005B0BDE8F08F42799107EE
:1022F000F5D553070AD5D8F80C40D8F818108C42F9
:1023000000F0C680FFF7B0FF0028E8D0019BD8F8A6
:102310000C40002B00F0AF80DFF8C891DFF8C8A1B7
:10232000019F3AE0002C43D1D8F80810002940F072
:102330008380D8F81C20002A00F09280C8F808207A
:10234000C4F50076B6B2BE4239D890F810E04169C3
:10235000023A02FA0EF20D44B6F5007F154435D16B
:10236000DAF80020954204BF4FF0FF32CAF800208F
:10237000584A294610685A46FFF7DCFE0028AED0BE
:102380000BF5007B4FF40074D8F80C20BF1B1444ED
:10239000BFB2C8F80C40002F6DD0D8F820000579E6
:1023A000013D05EA542515F0FF05C4F30804B9D032
:1023B000C4F50076B6B2BE42D8F80820C5D9067C6E
:1023C0004169023AB2400D4415443E462CB9D8F852
:1023D0000C10D8F8182091421BD22846012100F099
:1023E000BBF800283FF47BAF4C4404EB060E744569
:1023F00020D00BF1FF31621E0EF1FF3511F8010FF5
:1024000002F8010F9542F9D1C4EB0E0EF3443446A5
:10241000BAE700F077F800283FF461AF2E49CAF818
:1024200000500A784C4404EB060E42F00102744559
:102430000A70DED13446A7E703AA00F0F3F80028BB
:102440003FF451AFD8F82000244B90F82060039A55
:102450004FF6F871102E18BF19468A42FFF46EAF7E
:102460004046FFF7EBFE00283FF439AFD8F82000D4
:10247000D8F8082064E7D8F81830A3420DD298F8AD
:102480000520C8F8184042F0800288F805200FE0C7
:10249000019B002B7FF440AF0AE0114B98F8052018
:1024A0001B682BB1019B1BB142F0800288F805200C
:1024B00012070AD598F80630002B3FF410AF4046BB
:1024C000FFF786FE00283FF40AAF019805B0BDE88B
:1024D000F08F00BFB0A9FF1FB4ABFF1FF8FFFF0FC5
:1024E000A8A9FF1FB4A9FF1F009AFF1F00B583B062
:1024F00002AB012203F8011D1946FFF7E7FE03B006
:102500005DF804FB70B50F4C23780BB9012070BD4A
:102510000D4B0E4D196828680D4AFFF70BFE70B180
:102520000C4E316819B900232370012070BD286852
:10253000074AFFF7FFFD10B100233360F3E70020E7
:1025400070BD00BFB4ABFF1F009AFF1FB0A9FF1FF3
:10255000B4A9FF1FACA9FF1F70B50D4D2B688342B6
:102560000E460ED00446FFF7CDFF08B9002070BD1F
:10257000084B094A18682146FFF716FD0028F5D0D8
:102580002C60064B197831431970012070BD00BFD3
:10259000009AFF1FB0A9FF1FB4A9FF1FB4ABFF1F14
:1025A000F8B590F82030C469102B1A4B05460E463A
:1025B00017461B6816D004EBD1149C4216D106F0C6
:1025C0007F06154A42F826701449287E0A780128A9
:1025D00042F001020A7018D9A968114A0B4413602D
:1025E0000120F8BD04EB11249C4208D000212046B4
:1025F000FFF7B2FF50B195F82030102B07D1F6B29B
:10260000054A234622F81670DEE70120F8BD23466E
:10261000D5E700BF009AFF1FB4A9FF1FB4ABFF1F8F
:10262000ACA9FF1FC36801338B4218D370B590F873
:102630002030102B154B044616460D46C0691B680A
:102640000FD000EBD11098420FD105F07F01104B55
:1026500053F8213023F070433360012070BD002017
:10266000704700EB1120984207D00021FFF774FF5C
:1026700050B194F82030102BE7D1E9B2044B33F875
:1026800011303360012070BD002070BD009AFF1F23
:10269000B4A9FF1F2DE9F04F176883B06FB301375E
:1026A0004FF0000AC36803F1010813B38B460646D6
:1026B00091463C46002505E01C461F46F36801355F
:1026C000AB4216D9A04538BF0224214601AA3046A4
:1026D00038BF2746FFF7A6FF631CD91B48B1019AF4
:1026E000002AE9D18B4510D01C46F3680135AB4276
:1026F000E8D8002003B0BDE8F08FA1F1010ABAFAD2
:102700008AFA07684FEA5A1ACCE7012CF1D9F36824
:1027100001339C42EDD86FF0704221463046FFF7FE
:102720003FFF0028E5D0A74214D2013C012CE0D99C
:10273000F36801339C42DCD8621C21463046FFF727
:102740002FFF0028D5D0A74204F1FF3402D0012C7E
:10275000EED1CEE7D9F8001059B10129C9D9F368F3
:1027600001339942C5D83A463046FFF719FF002891
:10277000BFD0C9F80070BAF1000F01D0013737603F
:102780000120B7E790F8392090F83800101A704708
:1027900090F8383090F839209A4205D95A1C0344F1
:1027A00080F83820187E70474FF0FF30704700BF28
:1027B00090F8383090F839209A4286BF1B18187E5E
:1027C0004FF0FF30704700BF704700BFB0F85E3079
:1027D0006BB190F85D30202B07D8C218013380F818
:1027E0005D30012082F83B10704701230371002007
:1027F000704700BF38B50546B0F85E0090B195F857
:102800005D301446C3F1210294420CD805F13B001F
:102810001844224600F0F8F995F85D30234485F815
:102820005D30204638BD012014462871EEE700BF18
:102830000023426980F8383080F8393080F85C3005
:1028400080F85D3080F85E3080F85F3006CA30B4C2
:102850000D68046943662A4383660A60A37042696F
:1028600090F861301649146813441D7A5B7B01EBC4
:10287000C5051B026D6803F4E06343F064032B603D
:1028800090F8623013449D7CDB7D01EBC5011B0297
:10289000496803F4E06343F064030B602168536804
:1028A000194205D0036927225A70036904229A71DC
:1028B000036920225A71036980229A7030BC7047E4
:1028C0002075000010B50269D378DBB2D906044642
:1028D0003DD510215806D17038D503F0040303F01C
:1028E000FF02002B51D03D49626E00230B7084F82B
:1028F0005D30002A5BD0904794F85D30002B56D0B5
:102900002369D0229A70236994F83B201A712369B5
:10291000012284F85C200222DA7010BD304B84F86A
:1029200060009C424AD02F4B9C4252D094F8391000
:1029300013791F29DBB207D82848007820B1601826
:10294000013184F8391003760223D37010BD590683
:10295000C3D4917801F0100101F0FF000029DDD00F
:1029600013F001031ED194F85C1094F85D008842C6
:1029700081BF4B1C091984F85C3091F83B3013710E
:102980002369D0229A702269DEE7236984F839200E
:10299000C0229A702369114A19790121117002220B
:1029A000DA7010BDC023937022691379CCE701223D
:1029B000002384F85D2084F83B30A1E7626994F835
:1029C0006130094913440322187A00F035FC22696A
:1029D000ACE7626994F861300449F3E724ACFF1F67
:1029E00028ACFF1FB8ABFF1F4D2A0000592A00007A
:1029F0000369DB7803F0200373B190F86030013392
:102A0000DBB2012B80F860301AD9426990F861304E
:102A10001344187A00F08CBC70B5426903F0FF05CE
:102A200090F8613013440446187A00F081FCA36EDC
:102A30005BB184F8385094F83900BDE8704018470D
:102A400090F85F30002BE0D0704770BD0148FFF771
:102A5000CFBF00BF28ACFF1F0148FFF7C9BF00BFB1
:102A6000B8ABFF1FF0B503691222DA7002699378E0
:102A70000546980687B04ED5B423444C937023681E
:102A80000293029E2A6905E023680393039B9B1B24
:102A9000042B57D8D37803F0200303F0FF00002B5A
:102AA000F2D095F85D30002B2ED000274FF0020EAB
:102AB000EB1993F83B30137123680493DDF810C0D1
:102AC000286908E09B060ED523680593059BCCEB8F
:102AD0000303052B3DD8C378DBB203F0020202F0FA
:102AE000FF06002AEED080F803E02A69D378DBB233
:102AF000DE063DD49E063BD5DB0741D4013795F871
:102B00005D30FFB2BB42D3D80020002934D100236E
:102B100085F85E301BE01D4C23680093009E05E0A5
:102B200023680193019B9B1B0F2B19D8D37803F0CB
:102B3000200303F0FF00002BF2D1B02385F85F00E3
:102B400093709CE790702B6980229A70042007B0E4
:102B5000F0BD86702B69802204209A7007B0F0BD0A
:102B6000002393702B69802204209A7007B0F0BD77
:102B7000802393700420C8E72A6980239370C6E7F6
:102B8000002F0CBF02200320F7E700BF9CACFF1F03
:102B90000148FFF797BE00BF28ACFF1F0148FFF7B1
:102BA00091BE00BFB8ABFF1FF0B41049104B114AE3
:102BB0000A6100224FF47A740F4F1048104E114DE5
:102BC0000A710A7381F8612081F862201A711A7300
:102BD00083F8612083F862204F618C609C601E61E5
:102BE0005D6108601860F0BC704700BF28ACFF1F33
:102BF000B8ABFF1F0060064094740000DC74000056
:102C000000700640B4740000844641EA000313F0EB
:102C100003036DD1403A41D351F8043B40F8043BE3
:102C200051F8043B40F8043B51F8043B40F8043BA6
:102C300051F8043B40F8043B51F8043B40F8043B96
:102C400051F8043B40F8043B51F8043B40F8043B86
:102C500051F8043B40F8043B51F8043B40F8043B76
:102C600051F8043B40F8043B51F8043B40F8043B66
:102C700051F8043B40F8043B51F8043B40F8043B56
:102C800051F8043B40F8043B51F8043B40F8043B46
:102C900051F8043B40F8043B403ABDD2303211D3E6
:102CA00051F8043B40F8043B51F8043B40F8043B26
:102CB00051F8043B40F8043B51F8043B40F8043B16
:102CC000103AEDD20C3205D351F8043B40F8043BE6
:102CD000043AF9D2043208D0D2071CBF11F8013BE4
:102CE00000F8013B01D30B8803806046704700BFAA
:102CF000082A13D38B078DD010F003038AD0C3F1B9
:102D00000403D21ADB071CBF11F8013B00F8013B9A
:102D100080D331F8023B20F8023B7BE7043AD9D359
:102D2000013A11F8013B00F8013BF9D20B7803702E
:102D30004B7843708B78837060467047374A3849C8
:102D400013681B06FCD40B6813F08003F8D172B62D
:102D500034490A78002A5FD0334A3448F0B4344CFE
:102D6000176806682568D4680C303E441432006841
:102D70001268304F35442C4420440244C2F34E02C2
:102D80002D4E2E482E4D2F4C42F400423A603768AB
:102D900006682D682C4A24680C303E44006812688E
:102DA0002A4F35442C4420440244C2F34E02284E9C
:102DB0002848294D294C42F400423A603768066899
:102DC0002D68274A24680C303E4400681268254F5D
:102DD00035442C4420440244C2F34E02224E234880
:102DE000234D244C42F400423A60376806682D684F
:102DF000214A24680C303E440068126835442C4453
:102E000020440244C2F34E021C4842F400420260D5
:102E10000B7062B6F0BC704762B6704724B00340D6
:102E200024B00B4095ACFF1F38B003403CB00340CA
:102E300040B003402CB0034058B003405CB00340A6
:102E400060B0034064B003406CB0034030B0034056
:102E500038B00B403CB00B4040B00B4044B00B408E
:102E60004CB00B402CB00B4058B00B405CB00B404A
:102E700060B00B4064B00B406CB00B4030B00B4006
:102E800030B42948294A2A4B2A4D6024E121047094
:102E900011701B78284C082B30D00A2B2748284962
:102EA00037D00C2B0CBF35223D2212232A60236021
:102EB00002600B60234B24491B78244ABBB10123D9
:102EC0000B601360224B23491B78234A012B26D920
:102ED000042B0FD9082B1ED9102B94BF86238723D0
:102EE0000B6013601D4B01221A7030BC70470B60E1
:102EF0001360E7E784230B601360F3E700F58E208F
:102F00000F490830012213232A60236002600B60FE
:102F1000D0E73922F7E785230B601360E2E78023CF
:102F20000B601360DEE700BF004007400140074030
:102F3000049AFF1F08B003400CB0034008B00B40D8
:102F40000CB00B4098ACFF1F20B0034020B00B40EA
:102F5000059AFF1F24B0034024B00B4095ACFF1F1F
:102F600028282FD8334B2DE9F0411E5CFF2E2BD0A3
:102F7000314B1B78002B2AD132062CD472B62F4D40
:102F80002F4C2F46012326602B7062B672B6236841
:102F90001B060CD43B781BB9F4E72B78002BF1D03F
:102FA00062B601F0BFFC72B623681806F5D5254B52
:102FB0001B6800222A7062B6234A107843FA00F098
:102FC000BDE8F081002070470020BDE8F081FFF7E8
:102FD000B5FE3206D2D572B61C4DDFF87C801C4C93
:102FE00006F04007FFB206F03F06D8F80030DFB128
:102FF00023F01003C8F8003001232660134A2B7019
:1030000062B672B6236819060CD413781BB9ECE7C4
:103010002B78002BE9D062B601F084FC72B62368ED
:103020001B06F5D50B4BC3E743F01003C8F800307F
:10303000E2E700BFF474000095ACFF1F97ACFF1FE0
:1030400000B0034010B0034094ACFF1F96ACFF1FCC
:1030500000B00B4010B00B400CB00B400B4A0C49B9
:10306000136843F4805313600B783BB1094B802203
:103070001A70094B80F30C0018807047054BC02272
:103080001A70054B80F30C00188070472C800440A8
:1030900098ACFF1F21C00C4000C00C40024A1368CE
:1030A00001331360704700BF9CACFF1F08B5104C84
:1030B00008E0236859050DD423681A050FD4236846
:1030C000DB0411D423685803F3D500F007FC236810
:1030D0005905F1D501F09CFF23681A05EFD502F0E0
:1030E00039FB2368DB04EDD502F0ECFDEAE700BF15
:1030F0003480044008B5FFF7D9FF00BF014B102210
:103100001A80704700200540704700BF094908B584
:103110000B6830B16A461844A2F58052904202D240
:103120000860184608BD03F067FB0C2303604FF0EE
:10313000FF3008BD089AFF1FFEE700BFEFF31380C2
:1031400070B9EFF310836BB9EFF305825AB94FF4FE
:103150008070EFF311832BB1984228BF1846704757
:103160004FF0FF3070470F2A01D81846F1E7014BA6
:10317000D05CEEE7F0E300E0704700BF10B40F4B07
:1031800053F8302092F880422CB1012369B182F8C3
:10319000803010BC704703EBC0035B681A6841B90C
:1031A00022F002021A6010BC704782F8003110BC95
:1031B000704742F003021A6010BC7047207500008F
:1031C0001C4A02EBC00301295B6811D004291BD003
:1031D00052F83000002280F8802229B1022920D044
:1031E000032922D01A6070474FF480721A6070472A
:1031F00052F830004FF4A27280F880121A601A68F8
:1032000022F020021A60704752F830104FF4A27278
:10321000012081F880021A601A6842F020021A60C8
:10322000704740F203121A6070474FF481721A60BF
:10323000704700BF20750000212817D8F8B5042A70
:1032400013D8DFE802F0494C4F1446002C4872B600
:10325000236823F4702343F08072C4F3840116437F
:10326000236040F82150266062B6F8BD70474FF4E5
:103270001026244B03EBC0030D465C68216811F453
:10328000E06134D0204B214A2149C3F89C2104F14C
:1032900040422048C3F8A411A2F592211E4FC3F862
:1032A000A0017C291D48C3F8A871C3F8AC01CDD991
:1032B000A2F594237C2B18D9A2F596237C2B19D93F
:1032C000A2F598237C2B17D9A2F59A227C2A15D92E
:1032D000F8BD4FF43026CCE74FF40026C9E74FF491
:1032E0004026C6E74FF42026C3E70D48AFE7FFF7B7
:1032F00067FFC7E70B48AAE70B48A8E70B48A6E714
:103300000C9AFF1F207500000094FF1FD199FF1F2A
:103310007999FF1FA599FF1F4D99FF1F2199FF1F45
:10332000449AFF1F949AFF1FC49AFF1FE49AFF1F3D
:103330001A4B03EBC00010B4426802F14043A3F5FE
:1033400092217C2905D9A3F594217C2913D814490D
:1033500000E0144972B61368134C23F08773C2F36C
:10336000840023F4803343F08073136041F82040DD
:1033700062B610BC7047A3F596217C2909D9A3F544
:1033800098217C2907D9A3F59A237C2BF1D80749EA
:10339000E0E70749DEE70749DCE700BF20750000EA
:1033A000449AFF1F0C9AFF1F79310000E49AFF1F17
:1033B000949AFF1FC49AFF1F30B4054B054D064C6D
:1033C000002210211A602A602060196030BC70470A
:1033D00014D0034004D0034000D00340282838B55F
:1033E0002ED0002904464FDD5F4B1B78012505FADE
:1033F00003F28A4202D8212837D938BD0338C2B235
:10340000012A3AD9202C4AD0192C48D0574A1268A0
:1034100002FB011222FA03F31D2800F29B80DFE871
:1034200000F0928B847D9999766F999999999999E1
:1034300099999968615A53994C999999999999458B
:10344000494B1B780B2B08D90C2B1CBF0C3B19418B
:103450000846BDE83840FFF701BEC3F10C039940B0
:103460000846BDE83840FFF7F9BD2946FFF786FE5C
:103470002946BDE83840FFF7A3BE3D4A126802FB6B
:10348000011222FA03F3C7E72128B6D80021FFF77B
:1034900075FE20460121BDE83840FFF791BE354A50
:1034A000126802FB011222FA03F3B5E73249334AEC
:1034B0000B604FF45173136038BD3149314A0B60D2
:1034C0004FF45173136038BD2F49304A0B6040F2FE
:1034D0004443136038BD2E492E4A0B6040F24443EA
:1034E000136038BD2C492D4A0B6040F244431360F1
:1034F00038BD2B492B4A0B6040F24443136038BD62
:1035000029492A4A0B6040F24443136038BD2849D8
:10351000284A0B6040F24443136038BD2649274ACD
:103520000B6040F24443136038BD2549254A0B60C7
:1035300040F24443136038BD2349244A0B604FF4E2
:103540005173136038BD2249224A0B604FF4517306
:10355000136038BD212C3FF650AF7F29D4BF002126
:103560000121204693E700BFEC9AFF1F088003402B
:103570000890034008800B4010800B4048A0044096
:1035800018800B404CA004401880034008B0044051
:103590001080034004B004404080034018C0044041
:1035A0003880034014C004402880034010B0044019
:1035B000208003400CB004403080034010C0044021
:1035C000488003401CC004401890034034900440DD
:1035D0001090034030900440212801D8FFF7CEBD61
:1035E000704700BF212801D8FFF7EABD704700BF30
:1035F0002DE9F843054672B6204F214B214A1B683E
:103600003C68126862B6520102D5322B88BF013481
:1036100095B3C3F5BB331C4EDFF86490DFF86480CC
:10362000FF334FF47A72A6FB031302FB04F404EB9E
:10363000931472B6D9F800103A68D8F800E062B670
:10364000C1F5BB33FF33A6FB03031EF0806FC4EB51
:1036500093134FF47A7002D0322988BF013200FBF5
:103660000233B3F57A7F04D3013D05D004F57A74B3
:10367000DFE701F057F9DCE7BDE8F8839CACFF1FFA
:1036800018E000E004ED00E0ABAAAAAAF8B52D4BC3
:103690002D49DFF8D0E0DFF8D0C02C4E2C4D2D4C5A
:1036A0002D4A2E4F4FF4000018604FF080701860C4
:1036B0004FF0007018604FF0806018604FF00060AD
:1036C00018600020086028234BF6FF71CCF800102A
:1036D000CEF80030336013602B6023603B60B36230
:1036E0009362092245F8242CC4F8D80F05F57F65AC
:1036F000C7F8D41F07F5FF2707F5FA67C6F8F83FA4
:103700002B6006F5FF26C4F8D42F05F5FD2504F53A
:10371000FF24386006F2F4761148316005F5FF6544
:1037200004F5FD642B6023600260FFF7A9FB3220E3
:10373000FFF75EFF00F0FCFC4FF4AF70BDE8F8400F
:10374000FFF756BF08E100E0048003401480034007
:10375000248003402C8003401C80034034800340BD
:1037600000800B400C80034008800340431E032B65
:1037700014D872B60A4951F8230068B170B4094CE4
:10378000058834F81320466841F82360521B24F85A
:10379000132062B670BC704762B670470020704755
:1037A000F8ACFF1FD0AFFF1F013803280BD872B64B
:1037B000074B53F8203043B100205B680130002BE9
:1037C000FBD162B67047002070471846F9E700BF8A
:1037D0004CADFF1FF0B472B61A491B4E012311F80D
:1037E000014B194F9A00240742F0010505D556F800
:1037F000324064B156F83520BAB10133052BEED111
:1038000062B6124B00221A70F0BC00F00DBD0F4CD6
:103810000F4D217847F8325007EB431308304A1E0A
:103820005860227062B6F0BC70470849094B0A78AC
:1038300047F8353007EBC5030830013A58600A7085
:1038400062B6F0E7547600000080FF1F75ADFF1FE1
:1038500088004000C8004000431E032B1DD81B4AAF
:10386000400140F0100030B4104472B6184CE25CD5
:10387000032A1BD8DFE802F00212151703220D8875
:10388000E25410F0080F14BFC823882343EA05430D
:1038900008310360416062B630BC704708300222D4
:1038A000EDE70522EBE708300422E8E7094A52F881
:1038B000230038B1084A52F82300416042F823102F
:1038C00062B6E9E742F82310034AF7E70080FF1FDA
:1038D00084ADFF1F4CADFF1F5CADFF1F2DE9F04F06
:1038E000DFF800A3DFF800B387B044E0A84F4FEA49
:1038F000930807EBC809013ED9F8042003F0080338
:10390000F6B2A2F1080003F0FF04002B40F0FC80A7
:1039100057F838301B0C99B222F8081C002B00F025
:10392000EA809C4B22F8064C42F8044C53F82620BF
:10393000002A00F02982984D55F826305860974C9F
:1039400045F8260034F81630194424F8161000F013
:103950004BFC002800F01182914A924B19F0080F9D
:1039600000F1080018BF1346C9F8040047F83830C2
:1039700008238AF800309AF80040E4B260071AD5AC
:10398000894B1B78A3B189490A7802F0FF0322B161
:10399000013BDBB20B7003B900BE85490A7802F027
:1039A000FF032AB1013BDBB20B70002B00F0BB819F
:1039B00004238AF8003004F0080303F0FF02002B10
:1039C00000F0C6809BF80030DBB21E098ED19C0847
:1039D0006F4F57F8342007EBC401C2F38302013A5A
:1039E00049680C2A00F28380DFE802F07777818152
:1039F0008181818140818181070008686D4B6E4D16
:103A00000193674B4A686D4E47F8343081B240F2FB
:103A10008164684B6A60286000220120A1421A601C
:103A20003A61BA61307000F2E180B1F5D06F80F098
:103A30002582B1F5817F00F0DE8100F2C18180290D
:103A400000F03482822940F0DC81A9885C4B042993
:103A500000F2D8815B4C89000B44227062701A78A6
:103A6000930740F122832070022023E2514B0193FF
:103A70001A683AB3544B514E5449188834780D782B
:103A80004028864645F0020828BF4FF0400E002C23
:103A900084F001043470CEEB00000CBF8824C824ED
:103AA00007EBC80680B285F0010544EA0E44726057
:103AB000188047F8384072440D70002800F0B78035
:103AC000019B1A603C4B1A88B2F5A06F0FD1002100
:103AD0009A7859703E4B1A7009E0374A108842F2C2
:103AE0002102904200F0A8802D4A47F83420394A3C
:103AF000012313703CE72A4A2A4B19F0080F18BF1C
:103B0000134647F8383033E700F08EFB324A33492A
:103B100052F82630002B00F03B8158688C5D42F84B
:103B2000260003F10802C9F80420032C05D8DFE8B9
:103B300004F02C02292602228A551A8819F0080F4F
:103B40000CBF8823C82343EA024347F838300FE705
:103B5000E00700F1EB80210600F12881A20706D5DD
:103B60001F4A204913780220DBB213700870E30665
:103B700002D51C4B10221A7007B0BDE8F08F04224A
:103B80008A55DAE705228A55D7E703228A55D4E712
:103B90000080FF1FF8ACFF1FA4ACFF1FD0AFFF1FBA
:103BA000C80040008800400080ADFF1F09ADFF1F26
:103BB00088ADFF1FA0ACFF1F6CADFF1F08ADFF1F3E
:103BC000C020074078ADFF1FB4ACFF1F74ADFF1FCE
:103BD00098200740942007404CADFF1F84ADFF1F85
:103BE00088200740802007409020074042F22104AF
:103BF000A14200F0948043D8B1F5086F00F0A8818D
:103C0000B1F5106F40F0FD80B84AB94CA978117039
:103C100004F1800503E00834AC4200F09E81236A81
:103C20001906F8D5606A083800F0FEFAF3E7BEF12D
:103C3000400F18BF002243E7AE4ACD1D11F8013BEB
:103C400002F8013FA942F9D1AB4A1268862A00F076
:103C50001181AA49AA4E0A78307882F0010500281D
:103C600042F002020D700CBF8821C82147F83210C3
:103C700007EBC20280F0010000213070516033E791
:103C800042F22124A14240F0FE81DFF8BCC29D4BEC
:103C90009D49AC78DCF800501D6081460C70002016
:103CA000029080468446044694490D7845F0020E01
:103CB00007EBCE03B9F1000F5C600CBF8824C82469
:103CC00044EA080385F0010447F83E3032700C7076
:103CD000DFF81CE28A4BDFF82482002840F098804D
:103CE000BCF1400F1BD144F0020407EBC403029F58
:103CF000DFF8FCE15F60002A40F09F80020442F0A0
:103D0000880207444EF8342086F800900D703B4638
:103D1000402804D100207D4A019910800B607C4A24
:103D200001231370E3E600F0C7FB41E6704B7848CF
:103D300072491A614FF0020E80F800E0754F0A7068
:103D4000754919609960754E754D764C9A610D21D3
:103D50003970FF213170DFF8F4E129702270724D63
:103D6000724A8EF800109F27012406F8047C5D60DB
:103D70000470DA6007B0BDE8F08F6D4A47F838008C
:103D8000137801331370F3E543F82600694DD6E547
:103D90008B5D032B67D801A252F823F07139000024
:103DA00071390000F13D0000EB3D000059495C4BCA
:103DB00080220D2008701A70A2077FF5D8AECFE6DA
:103DC00040F20232914240F05681A98801F07F0111
:103DD000042916D86A88A2B94E4C89000C44814641
:103DE000217841F00201217059E701238B55BFE58D
:103DF00000238B55BCE5A98801F07F01042940F21E
:103E00004781444B0F221A70414A012313706EE61A
:103E100040287FF668AF44F002040EEBC401029E16
:103E20004E60AAB1444A83F800903346403888F87F
:103E3000005040334EF834206DE70204029B86F8B0
:103E4000009042F0C8020D7003444EF834205FE742
:103E500083F80090029B304A88F800504038403385
:103E60004EF8342057E719F0080F0CBF0223032344
:103E70008B557DE5314A0F211170EAE6304A5468CE
:103E8000002CBED06888B5F804E003E00C3254681A
:103E9000002CB6D013888342F8D153887345F5D1EE
:103EA000000A03280CBF2078108903E0254C02206B
:103EB00022706270EA88824280F00C810F490D788E
:103EC000402A45F0020E944607EBCE0028BF4FF083
:103ED000400C04EB0C0344600293CCEB02004FEA6D
:103EE0000C484FF001090022C824E9E680ADFF1F0D
:103EF0000080FF1FD7AFFF1FD8AFFF1F74ADFF1F9C
:103F000008ADFF1FE0AFFF1F98ADFF1FB4ACFF1F50
:103F100094200740C02007408800400088200740C8
:103F20008020074098200740B8ACFF1F0CADFF1F52
:103F300075ADFF1FA4ACFF1FC800400009ADFF1FF7
:103F40005876000078ADFF1F9CACFF1F8C20074007
:103F5000684A694C12782270ACE76849684B694A34
:103F600002916949694C6A4D039405964FF0000926
:103F700088461C4616460495206828B1456800F01E
:103F800053F92846002DF9D100232360049B3068A3
:103F90001A46002342F8293028B1456800F044F958
:103FA0002846002DF9D100223260029A98F800309C
:103FB0001146002241F8042B039A0291023B4FF074
:103FC000000122F81910032B07D8DFE803F03402B0
:103FD00034024FF0010388F8003009F10109B9F10A
:103FE000040F04F1040406F1040608F10108C3D12A
:103FF000484B059EDFF83091DFF8308100211970C1
:10400000012518F8013B09F8043B1A0718D4AC0045
:1040100044F0020244F00304002347F8323047F82A
:1040200034303D4B994505F10105EAD196F80090F1
:1040300089F0010233E64FF0000388F80030CCE746
:1040400000F0D2F8AC0007EB451300F1080200289D
:1040500037D05A60314B47F8343000F0C5F844F09F
:10406000010307EBC30200F1080100B351602C4AC1
:1040700047F83320CCE7B1F5A06F7FF4C2AE002241
:104080004FF001090BE642F221329142F7D0B8E637
:104090006A88002A7FF4B5AE224C89000C44814620
:1040A000217821F002012170F9E5022002E7194B85
:1040B00044F001021B7847F83200164A01331370AE
:1040C000A6E7144B134A1B78AC00013347F83400C1
:1040D0001370C2E74028844628BF4FF0400C04EB21
:1040E0000C03CCEB00004FEA0C48029300224FF087
:1040F0000109D9E580ADFF1F78ADFF1F5CADFF1F43
:10410000F8ACFF1F4CADFF1F84ADFF1FD0AFFF1FEA
:10411000A4ACFF1F75ADFF1FD420074088004000EE
:10412000C8004000C0200740C4200740547600006B
:104130002DE9F843204C01F031FE002204F1880003
:1041400023461A605A60083383424FF00001F8D1C9
:104150001A4A1B4F13681B4D1B481C4EDFF8788012
:10416000DFF878C0DFF87890DFF878E043F4802358
:104170001360C4F307233B70C4F307432B70240E72
:10418000FF2302F528320470114D88F800301148E1
:104190008CF80030D4323370012389F80030702657
:1041A0008EF800104FF40074102107F8183C2E70A0
:1041B00004601170BDE8F8830080FF1F3480044064
:1041C0009C200740B0200740B42007401020074043
:1041D00049E400E008E100E0802007408820074033
:1041E000942007400021074072B60D480268B2FAD9
:1041F00082F30B2B10DC4FF00041D94022EA010280
:10420000026062B6074803EBC303DB00C21800215B
:10421000C15010465160704762B60020704700BF21
:10422000F09AFF1FBC95FF1F0D4B0E4AC31AA2FB4D
:1042300003231B090B2B0CD80B4A127852B972B608
:104240000A484FF00041026821FA03F31A43026062
:1042500062B67047064A1278002AF0D0FFF7BABA61
:10426000BC95FF1F398EE33875ADFF1FF09AFF1F15
:1042700080ADFF1F38B50F4D286878B1438802889C
:10428000C118013393420C7A02D24380204638BDD4
:10429000FFF7CAFF002320462B6038BD064B1B7872
:1042A0002BB10320FFF762FA28600028E6D14FF017
:1042B000FF3038BD94ADFF1F80ADFF1F10B5094C16
:1042C000206818B143881844007A10BD064B1B784B
:1042D0002BB10320FFF74AFA20600028F2D14FF0FB
:1042E000FF3010BD94ADFF1F80ADFF1F044B054A8A
:1042F0001B6890881BB11A885B88D31A18447047D2
:1043000094ADFF1FD0AFFF1F0B4B1B789BB110B5B7
:104310000A4C206848B1FFF787FF00230320236081
:10432000FFF724FA30B1FFF77FFF0320FFF71EFAF3
:104330000028F8D110BD704780ADFF1F94ADFF1F5E
:104340002DE9F04FDFF8F89083B0012289F80020C2
:10435000019169B3DFF8EC80364F019E8346D8F8AF
:104360000000B0B3344D4488C4F14001B14228BFCD
:10437000314604EB010E00221FFA8EFE2A70761AD7
:10438000A0F802E000F1080251B1013C2244594476
:104390001BF8014B02F8014F8B45F9D1B0F802E050
:1043A000BEF13F0F0BD8254A05211170002ED6D142
:1043B0000198002389F8003003B0BDE8F08F402257
:1043C000028001460420FFF747FA0022C8F80020C7
:1043D000E9E73A782AB3184D4AF2F9244FF0010A76
:1043E00007E0013C16D02A78A2B900F09BFA3A788F
:1043F000BAB10420FFF7D8F90728F2D889F800A04D
:10440000FFF7F2FEC8F800000028ACD10C4B013CCD
:104410001870E8D101234FF0FF302B7003B0BDE8D6
:10442000F08F00234FF0FF3089F8003003B0BDE873
:10443000F08F00BF80ADFF1F90ADFF1F88ADFF1F45
:1044400089ADFF1F8CADFF1F00B583B002AB01210A
:1044500003F8010D1846FFF773FF03B05DF804FB86
:10446000F8B5114B1B788BB1104E114D34680127F4
:104470002F7064B10F4A638800271770214623808C
:104480000420FFF7E9F9376000232B70F8BDFFF730
:10449000ABFE084B28B1014604201C70FFF7DCF985
:1044A000F2E71F70F0E700BF80ADFF1F8CADFF1F6C
:1044B00089ADFF1F88ADFF1F38B50E4B1B7873B950
:1044C0000D4C216861B103F0FF054B880B8004207F
:1044D000FFF7C2F9256038BD084B01221A7038BDBC
:1044E000FFF782FE0028F7D00146BDE838400420DF
:1044F000FFF7B2B989ADFF1F8CADFF1F88ADFF1F5D
:10450000C029F0B428BFC02172B6114B114E1860FB
:10451000002333607360B360F3603361736101271C
:1045200099B15D0903F01F0456F8252007FA04F439
:10453000013322438B4246F82520F2D100234370F9
:1045400001338B4200F58270F9D162B6F0BC70473E
:10455000A4ADFF1FACADFF1F70B472B6204B19683D
:1045600021B9596821B30433202200E000221D4EF6
:104570003478B1FA81F54FF00040E8400134E4B2FC
:1045800021EA00003470186062B6531B03EB8313FA
:104590009A00154B1549186802F5FB531C3301228C
:1045A000C2540A78A242184438BF0C7070BC7047DD
:1045B000996821B9D96829B10C336022D7E708334B
:1045C0004022D4E7196921B9596929B11433A022CD
:1045D000CDE710338022CAE762B60846E6E700BF9F
:1045E000ACADFF1FA9ADFF1FA4ADFF1FA0ADFF1F06
:1045F000427872B60378012B03D9013B037062B68F
:10460000704770B456110A4D0A4C55F8261023789D
:10461000D2434FF0004002F01F0220FA02F2114391
:10462000013B45F82610237062B670BC704700BF8E
:10463000ACADFF1FA9ADFF1FC368B3B130B401E03B
:10464000DB688BB1187A9042FAD158685C7A0069BD
:1046500050F82450002DF3D140F824100878013090
:104660000870DB68002BEDD130BC7047437A8B4279
:1046700006D90369002253F8210043F8212070472E
:104680000020704738B5437A8B421AD9036953F832
:104690002140002243F821209CB12378012B0ED920
:1046A000FFF75AFF054628B14FF48072211D0430F0
:1046B000FEF7AAFA2378013B2370284638BD20462E
:1046C00038BD002038BD00BF4368427A5B7A9A4209
:1046D0000ED872B60168CA680AB90AE01A46D368E9
:1046E000002BFBD1D060426801230B72137262B6BB
:1046F0007047C860F7E700BF084B1A7862B930B45A
:1047000007480849D02505704FF0804401220C600D
:1047100010461A7030BC704700207047A8ADFF1FCC
:104720005EE400E008E100E01A491B4A1B48F8B5C6
:104730000B681B4D046843F080730B60136843F0F3
:10474000010313602E6814B915E064699CB1237AE3
:10475000002BFAD023682F681B68204698472B68E7
:10476000E188DB1B1B099AB28B42A28088BFE280E2
:104770006469002CEBD10A4B0A4A1B6810880A4C6A
:104780009B1B1B0999B28342218001D91180F8BD7E
:10479000F8BD00BFFCED00E0001000E09CADFF1F85
:1047A000041000E0AAADFF1FC4ADFF1FF0B572B644
:1047B00099B902688AB103790F2B0ED8274C21884A
:1047C00041FA03F5ED070AD503F1007303F5906391
:1047D000B2EB431F03D162B6F0BD204C2188002309
:1047E00041FA03F212F0010207D00133102BF7D186
:1047F00062B6002203710260F0BD01259D4029438D
:10480000218062B6164E174D174FDFF864E0D9B21B
:104810000171346844F0020434602C6844F00204EE
:104820002C60A6F580268224A5F5802503F100736F
:104830003C6003F59063223E243D0C4C8EF8001042
:104840005B0131702970217003601A605A609A60B0
:10485000DA601A615A619A61DA61F0BDC6ADFF1F74
:10486000408004403C800440008000401F800040A5
:104870001A80004003790F2B11D8094A10B4137025
:1048800072B6084904790A880123A34022EA030387
:104890000B8062B61022002310BC027103607047C7
:1048A0001A800040C6ADFF1FF8B572B106460F462C
:1048B00014460025336817F8011B1B6830469847DB
:1048C000013C0544F6D12846F8BD1546FBE700BF7C
:1048D00008B5FBF7F3FDFBF75DFE00F023F8FAE700
:1048E000FFF712BDFFF7BCBDFFF7E8BCFFF7C2BC86
:1048F000FFF7FCBC08461146FFF722BD0846FFF74C
:10490000A3BD00BF704700BF044B054A1A604FF4B7
:104910007A71002299601A711A737047C8ADFF1F2F
:104920003876000010B5154C237803B110BD012373
:104930002370FFF7DBFC58B900F0E8FA70B900F01B
:1049400087FE88B901F050F9A0B90023237010BD8B
:10495000FFF7D8FF00F0DAFA0028F0D001F0D4FA1F
:1049600000F076FE0028EDD001F082FB01F03CF96A
:104970000028EAD001F030FCE7E700BFD8ADFF1F08
:10498000F0B44D1E2E46002400E00134B0FBF2F3DB
:1049900002FB1300092800F130078ABF3730F8B254
:1049A000C0B206F8010F1846002BEED10A19537059
:1049B0004CB1107815F8016F28700133E01A83426A
:1049C00002F80169F5DB0846F0BC70472DE9F84FA5
:1049D000214B1B6807460BB101221A70DFF8889043
:1049E0001E4D99F80040DFF884801D4E01343F2CA5
:1049F0008ABF4FF0000A5FFA84FA5446AB462B7820
:104A0000A34216D1FEF79AFB40281FDC33791B0620
:104A1000F5D59BF8003001333F2B86BF00221346AB
:104A2000DAB218F80330DBB2F3712A702B78A342A4
:104A3000E8D00C490A4BFFB208F804700120BC22F0
:104A4000087089F800A0DA70BDE8F88FFF28D6DD7D
:104A5000FFF768FFD3E700BF6CAEFF1F69AEFF1F13
:104A600000A0064068AEFF1F70AEFF1FE4ADFF1F41
:104A7000274A28491368F0B543F4806313600A7825
:104A8000254F264E264D274C274900233B70337077
:104A90002B7023700B70002A35D0152A26D0234B9B
:104AA0001B78012B2AD0052B03D1214B4FF45172D7
:104AB0001A60204B204C2149C0F34436C0F34715FF
:104AC0001E7000F01F005D7004224FF0020E882758
:104AD0003C26402598729A704FF4005083F813E0FA
:104AE0005A751F74DE7025700860F0BD144B40F2DB
:104AF00013321A600D4B1B78012BD4D1114B4FF49C
:104B000051721A60D5E7104B40F213321A60C6E7B3
:104B10003480044024AEFF1FE0ADFF1FE1ADFF1F56
:104B200070AEFF1F69AEFF1F68AEFF1FF49AFF1F34
:104B30001CC0044000A006402DE400E004E100E0B9
:104B400018C0044044A0044040A00440144B144941
:104B50009B7803F0EC0200F003031343420700F0DC
:104B60000F0248BF43F01003042A8B7013D00C4B84
:104B70000B4A5B79C10603F0EF0348BF43F0100313
:104B800053719379820603F0EF03054A48BF43F05F
:104B90001003937170478B7943F040038B71E6E704
:104BA00000A00640214B1B685B053ED510B5204C8C
:104BB000237823B1FFF7B6FE2378002BFAD11D48E6
:104BC0001D4A1E4B4FF4005400210460D1701B7825
:104BD000E3B1152B03D11A4B40F203121A60194BA3
:104BE0001B7803F07F03012B1AD0052B03D1164B42
:104BF00040F203121A60154B154816491A68002333
:104C000003700B700AB10123137010BD124B40F2F8
:104C100003121A600B4B1B7803F07F03012BE4D1C6
:104C20000E4B40F203121A60E5E7704734800440EF
:104C300068AEFF1F84E100E000A0064024AEFF1F25
:104C400018C00440F49AFF1F1CC00440DCADFF1FD5
:104C5000E0ADFF1FE1ADFF1F40A0044044A00440B1
:104C60000A4A38B50546137803F0FF04002BFAD141
:104C700001212846FEF7B6FC21462846FEF7ACFC8B
:104C8000034A044B52F835201A6038BD68AEFF1F46
:104C9000207500006CAEFF1F09B140F08000174A7C
:104CA0001378984216D010B4154C246864050FD5BB
:104CB00003F07F03012B1CD0052B11D0002900F03D
:104CC0007F0114BF6023442301290DD0052902D0A0
:104CD000107010BC70470B4943F440730B60F7E74A
:104CE000084B00241C60E9E7074943F440730B605C
:104CF000EEE7054B00241C60E0E700BFF49AFF1FBD
:104D0000348004401CC0044044A00440104B1A7876
:104D100082420AD00F490968490505D5AAB1152A6A
:104D200009D068B1152801D0187070470A4A40F2BE
:104D300013311160F8E7084A002111600028F1D111
:104D4000064A40F213311160EEE704490A60E8E7D1
:104D500024AEFF1F3480044018C0044040A004402B
:104D60000D4B1B6813F4806305D0212805D90B4B2C
:104D700000201860704718467047094B10B5074C63
:104D800053F8303023600121FEF72CFC2368002209
:104D90001A70012010BD00BF34800440DCADFF1F3D
:104DA000207500000F4B1B6813F4806308D0122895
:104DB00008D0142811D00C4A537B03F0FE03537320
:104DC00000207047094B40F202321A60064A537BBA
:104DD00043F00103537301207047054B40F2023248
:104DE0001A60F3E73480044000A006400CA00440A1
:104DF00014C00440034B1B685B0501D5FFF7E6BDFB
:104E0000704700BF348004402DE9F84F294B1B68E0
:104E10005A0548D5284B1B6805460BB101221A706C
:104E200005EB010A554540D2DFF89C80234CDFF8A2
:104E30009C90234F0AE015F8012B09F80B20214A1A
:104E40000123AA45137088F800602ED098F800302E
:104E5000227803F1010BBBF13F0F86BF0026B3465A
:104E60005FFA8BF69345E6D1BC22FA7005E03A79F9
:104E700013060BD422789345DDD1FEF75FF9402865
:104E8000F5DDFF28F6DDFFF74DFDF3E7227801326F
:104E90003F2A86BF00210A46D1B219F80220D2B2B9
:104EA000FA712170E6E7BDE8F88F054BBC22DA7095
:104EB000BDE8F88F348004406CAEFF1F69AEFF1F61
:104EC00000A0064068AEFF1F70AEFF1FE4ADFF1FDD
:104ED00010B5044C237823B1FFF724FD2378002B71
:104EE000FAD110BD68AEFF1F064A074B1B78107839
:104EF000DBB2C0B283422CBF3F3000F1FF30C01A9A
:104F0000704700BF69AEFF1F70AEFF1F054A064B1A
:104F100010781B78C0B2DBB2984238BF4030C01A5C
:104F2000704700BFE0ADFF1FE1ADFF1F30B4154B70
:104F3000154C1A782378D2B2DBB29A421ED00133D4
:104F40003F2B0ED91149124B087819680023C0B2C3
:104F5000237021B1D31A1A2B01DC00230B7030BC53
:104F600070470A480A49C05C0968DDB2C0B22570C2
:104F70000029F4D09A4238BF4032EBE74FF0FF30BF
:104F8000EDE700BFE0ADFF1FE1ADFF1F28AEFF1F43
:104F9000DCADFF1F084A094B12781B78DBB29A423E
:104FA00007D00133402B28BF0023054AD05CC0B294
:104FB00070474FF0FF307047E0ADFF1FE1ADFF1FBE
:104FC00028AEFF1F0D4B1B685B0516D530B40C4B8C
:104FD0000C4CDA780C480D4902F0CB024025DA700F
:104FE0005D74DA7842F03402DA7023780268DBB25A
:104FF0000B700AB10023137030BC7047348004403A
:1050000000A00640E1ADFF1FDCADFF1FE0ADFF1FBC
:10501000F0B4384B1A7912F0300F2CD072B6997D5B
:1050200001F0FF0200293DD062B6334F3349387892
:105030000D78334E1C46C0B2EDB2431C402BE179D3
:1050400028BF0023AB4202F1FF32C9B21CBFF154AA
:10505000184612F0FF02F0D12A4B1B68C2B23A7018
:105060004BB1A84236BFC5F14005401B4019272867
:10507000C4BF01221A701F49CA78D2B2150616D4CD
:1050800052060DD51B4B1B795B0609D51E4B1F49DC
:105090001B6800220A7003B11A70164B3C22DA70AA
:1050A000F0BC70474022D9795A7462B6E3E70B79B5
:1050B0001C06E5D5164B174E1C783378E4B2DBB2EC
:1050C0009C420ED0144D01E0A3420AD00133402B84
:1050D00028BF00230879E85CC0B2C871087D0728A2
:1050E000F2D9DBB2034933700B79180644BF7C2335
:1050F000CB70C5E700A00640E0ADFF1FE1ADFF1F8C
:1051000028AEFF1FDCADFF1F6CAEFF1F68AEFF1F98
:1051100070AEFF1F69AEFF1FE4ADFF1F274A28498D
:105120001368F0B543F4006313600A78254F264EE8
:10513000264D274C27490023092A3B7033702B70DA
:1051400023700B7035D01A2A26D0234B1B780A2BDC
:105150002AD01F2B03D1214B4FF451721A60204BE0
:10516000204C2149C0F34436C0F347151E7000F0AF
:105170001F005D7004224FF0020E88273C26402558
:1051800098729A704FF4004083F813E05A751F74B8
:10519000DE7025700860F0BD144B40F213321A60C7
:1051A0000D4B1B780A2BD4D1114B4FF451721A605E
:1051B000D5E7104B40F213321A60C6E73480044042
:1051C000F59AFF1FE4AEFF1F79AEFF1FECAEFF1F85
:1051D000E5AEFF1F78AEFF1FF69AFF1F00D0044018
:1051E00000B006402FE400E004E100E004D00440F9
:1051F00010B004400CB00440144B14499B7803F0E9
:10520000EC0200F003031343420700F00F0248BF13
:1052100043F01003042A8B7013D00C4B0B4A5B79BC
:10522000C10603F0EF0348BF43F0100353719379B5
:10523000820603F0EF03054A48BF43F01003937161
:1052400070478B7943F040038B71E6E700B006406E
:10525000224B1B681B053FD510B5214C237823B189
:10526000FFF760FB2378002BFAD11E481E4A1F4B24
:105270004FF4004400210460D1701B78092B1CD02E
:105280001A2B03D11A4B40F203121A60194B1B78E8
:1052900003F07F030A2B1AD01F2B03D1164B40F2C9
:1052A00003121A60154B164816491A68002303703A
:1052B0000B700AB10123137010BD134B40F203129F
:1052C0001A600C4B1B7803F07F030A2BE4D10F4BC1
:1052D00040F203121A60E5E7704700BF34800440D3
:1052E00078AEFF1F84E100E000B00640F59AFF1F92
:1052F00004D00440F69AFF1F00D0044074AEFF1F94
:10530000E4AEFF1F79AEFF1F0CB0044010B00440A4
:105310000A4A38B50546137803F0FF04002BFAD18A
:1053200001212846FEF75EF921462846FEF754F98A
:10533000034A044B52F835201A6038BD78AEFF1F7F
:1053400020750000E8AEFF1F09B140F08000174A49
:105350001378984216D010B4154C246824050FD544
:1053600003F07F030A2B1CD01F2B11D0002900F063
:105370007F0114BF602344230A290DD01F2902D0C6
:10538000107010BC70470B4943F440730B60F7E793
:10539000084B00241C60E9E7074943F440730B60A5
:1053A000EEE7054B00241C60E0E700BFF69AFF1F04
:1053B0003480044000D0044010B00440124B1A78EE
:1053C00082420CD011490968090507D5092A16D06F
:1053D0001A2A0AD009280DD01A2801D0187070474F
:1053E0000B4A40F213311160F8E7094A00210928FD
:1053F0001160F1D1074A40F213311160EEE7054A1E
:1054000000211160E6E700BFF59AFF1F34800440D9
:1054100004D004400CB004400D4B1B6813F400632F
:1054200005D0212805D90B4B00201860704718467D
:105430007047094B10B5074C53F8303023600121F9
:10544000FEF7D0F8236800221A70012010BD00BFBB
:105450003480044074AEFF1F207500000C4B1B68A5
:1054600013F4006306D0172806D00A4A537B03F0D2
:10547000FE03537300207047074B064A40F2023187
:105480001960537B43F0010353730120704700BF41
:105490003480044000B0064008B004402DE9F84FC5
:1054A000234B1B681A053BD5224B1B680BB101220D
:1054B0001A70DFF89090204D99F80040DFF888804E
:1054C0001E4E0134272C8ABF4FF0000A5FFA84FA7F
:1054D00054460746AB462B789C4216D1FDF72EFE6C
:1054E00040281FDC33791B06F5D59BF800300133CB
:1054F000272B86BF00221346DAB218F80330DBB23E
:10550000F3712A702B789C42E8D00D490B4BFFB207
:105510000120BC2208F80470087089F800A0DA7035
:10552000BDE8F88FFF28D6DDFFF7FCF9D3E700BF11
:1055300034800440E8AEFF1FE5AEFF1F00B0064018
:1055400078AEFF1FECAEFF1F7CAEFF1F2DE9F84FBA
:10555000294B1B681A0548D5284B1B6805460BB11B
:1055600001221A7005EB010A554540D2DFF89C80F4
:10557000234CDFF89C90234F0AE015F8012B09F823
:105580000B20214A0123AA45137088F800602ED011
:1055900098F80030227803F1010BBBF1270F86BF8A
:1055A0000026B3465FFA8BF69345E6D1BC22FA702B
:1055B00005E03A7913060BD422789345DDD1FDF747
:1055C000BDFD4028F5DDFF28F6DDFFF7ABF9F3E779
:1055D00022780132272A86BF00210A46D1B219F863
:1055E0000220D2B2FA712170E6E7BDE8F88F054BD0
:1055F000BC22DA70BDE8F88F34800440E8AEFF1FAB
:10560000E5AEFF1F00B0064078AEFF1FECAEFF1FF7
:105610007CAEFF1F10B5044C237823B1FFF782F94D
:105620002378002BFAD110BD78AEFF1F064A074B36
:105630001B781078DBB2C0B283422CBF273000F158
:10564000FF30C01A704700BFE5AEFF1FECAEFF1F72
:10565000054A064B10781B78C0B2DBB2984238BFBF
:105660004030C01A704700BFE4AEFF1F79AEFF1F85
:1056700030B4154B154C1A782378D2B2DBB29A426B
:105680001ED001333F2B0ED91149124B08781968EF
:105690000023C0B2237021B1D31A1A2B01DC0023DE
:1056A0000B7030BC70470A480A49C05C0968DDB21B
:1056B000C0B225700029F4D09A4238BF4032EBE7DF
:1056C0004FF0FF30EDE700BFE4AEFF1F79AEFF1FE4
:1056D000A4AEFF1F74AEFF1F084A094B12781B7857
:1056E000DBB29A4207D00133402B28BF0023054A82
:1056F000D05CC0B270474FF0FF307047E4AEFF1F80
:1057000079AEFF1FA4AEFF1F0D4B1B681B0516D5FE
:1057100030B40C4B0C4CDA780C480D4902F0CB023B
:105720004025DA705D74DA7842F03402DA7023785A
:105730000268DBB20B700AB10023137030BC7047F3
:105740003480044000B0064079AEFF1F74AEFF1FE6
:10575000E4AEFF1FF0B4384B1A7912F0300F2CD0A2
:1057600072B6997D01F0FF0200293DD062B6334F39
:10577000334938780D78334E1C46C0B2EDB2431C25
:10578000402BE17928BF0023AB4202F1FF32C9B2BE
:105790001CBFF154184612F0FF02F0D12A4B1B68CF
:1057A000C2B23A704BB1A84236BFC5F14005401BAA
:1057B00040192728C4BF01221A701F49CA78D2B2E3
:1057C000150616D452060DD51B4B1B795B0609D561
:1057D0001E4B1F491B6800220A7003B11A70164B3A
:1057E0003C22DA70F0BC70474022D9795A7462B614
:1057F000E3E70B791C06E5D5164B174E1C7833787A
:10580000E4B2DBB29C420ED0144D01E0A3420AD0B8
:105810000133282B28BF00230879E85CC0B2C87187
:10582000087D0728F2D9DBB2034933700B791806DB
:1058300044BF7C23CB70C5E700B00640E4AEFF1F39
:1058400079AEFF1FA4AEFF1F74AEFF1FE8AEFF1FAF
:1058500078AEFF1FECAEFF1FE5AEFF1F7CAEFF1F53
:105860002DE9F84F214B1B6807460BB101221A7036
:10587000DFF888901E4D99F80040DFF884801D4EB7
:105880000134272C8ABF4FF0000A5FFA84FA54468D
:10589000AB462B78A34216D1FDF750FC40281FDC05
:1058A00033791B06F5D59BF800300133272B86BFD3
:1058B00000221346DAB218F80330DBB2F3712A7013
:1058C0002B78A342E8D00C490A4BFFB208F80470C9
:1058D0000120AC22087089F800A0DA70BDE8F88FCA
:1058E000FF28D6DDFFF71EF8D3E700BF64AFFF1F28
:1058F00061AFFF1F00C0064060AFFF1F68AFFF1F12
:10590000F8AEFF1F184A19491368F0B543F48053E5
:10591000174C184D184FDFF878E01360174E184AEF
:10592000002323708EF80030164C2B700B703B70E8
:1059300040F213373760144D1449C0F344364FF426
:10594000517727601670C0F347142C2700F01F0012
:105950004026547090724FF4003493701374D770D3
:105960002E700C60F0BD00BF3480044061AFFF1F9B
:10597000F4AEFF1F68AFFF1F60AFFF1F08C00440F9
:1059800000C006400CC0044031E400E004E100E047
:10599000F5AEFF1F144B14499B7803F0EC0200F0A6
:1059A00003031343420700F00F0248BF43F0100304
:1059B000042A8B7013D00C4B0B4A5B79C10603F0A1
:1059C000EF0348BF43F0100353719379820603F04D
:1059D000EF03054A48BF43F01003937170478B797A
:1059E00043F040038B71E6E700C00640F8B5124B68
:1059F0001B68DB041DD5114C237823B1FEF792FF01
:105A00002378002BFAD10E4B0E4F0F4E0F4D104C3A
:105A1000104811494FF400321A600023FB7040F225
:105A2000031232602A60226803700B7012B10123E6
:105A30001370F8BDF8BD00BF3480044060AFFF1F95
:105A400084E100E000C0064008C004400CC00440EF
:105A5000F0AEFF1FF4AEFF1FF5AEFF1F0A4A38B5C8
:105A60000546137803F0FF04002BFAD101212846E4
:105A7000FDF7B8FD21462846FDF7AEFD034A044B6D
:105A800052F835201A6038BD60AFFF1F2075000046
:105A900064AFFF1F09B140F080000F4A13789842AD
:105AA00019D010B40D4C2468E40412D503F07F0320
:105AB000082B02D10A4B00241C60002900F07F0350
:105AC00014BF60214421082B03D1054B41F44071E0
:105AD0001960107010BC7047F79AFF1F34800440A3
